:020000040800F2
:1000000030540020050300085B3800087D360008E6
:1000100059380008351E0008894400080000000017
:100020000000000000000000000000004502000881
:10003000011F000800000000A1020008653E000842
:100040001F0300081F0300081F0300081F03000808
:100050001F0300081F0300081F0300081F030008F8
:100060001F0300081F0300081F0300081F030008E8
:100070001F030008391E00081F030008451E000862
:10008000511E00081F0300081F0300081F0300087B
:100090001F0300081F0300081F0300081F030008B8
:1000A0001F030008253F00081F0300081F03000866
:1000B0001F0300081F0300081F0300081F03000898
:1000C0001F0300081F0300081F0300081F03000888
:1000D0001F0300081F0300081F0300081F03000878
:1000E0001F0300081F0300081F0300081F03000868
:1000F0001F0300081F0300081F0300081F03000858
:100100001F0300081F0300081F0300081F03000847
:10011000014000081F0300081F0300081F03000818
:100120001F0300081F0300081F0300081F03000827
:100130001F03000800000000000000001F0300086B
:100140001F0300081F0300081F0300081F03000807
:100150001F0300081F0300081F0300081F030008F7
:100160001F0300081F0300081F0300081F030008E7
:100170001F0300081F03000800000000000000002B
:100180001F0300081F03000800F002F800F04AF8FF
:100190000AA090E8000C82448344AAF10107DA45E2
:1001A00001D100F03FF8AFF2090EBAE80F0013F0EA
:1001B000010F18BFFB1A43F001031847F06A000053
:1001C000106B0000103A24BF78C878C1FAD85207E3
:1001D00024BF30C830C144BF04680C6070470000C1
:1001E0000023002400250026103A28BF78C1FBD840
:1001F000520728BF30C148BF0B6070471FB506F0DB
:10020000CDFB00F07FFD04000020002106F0BEF9C8
:10021000401C60600020002106F0A2F9E0601FBDD4
:1002200010B510BD00F03AFA1146FFF7E7FF04F0F1
:1002300099FC00F08CFA03B4FFF7F2FF03BC00F066
:100240005BFD00002C4B19680868B0E8F04F80F3A4
:100250000988BFF36F8F4FF0000080F3118870475B
:100260000000000008480068006880F308884FF02C
:10027000000080F3148862B661B6BFF34F8FBFF3FE
:100280006F8F00DF00BF00BF08ED00E0DFF80C005B
:10029000016841F470010160704700BF88ED00E023
:1002A000EFF30980BFF36F8F134B1A681EF0100F26
:1002B00008BF20ED108A20E9F04F106009B44FF01C
:1002C000500080F31188BFF34F8FBFF36F8F05F09D
:1002D000ABFB4FF0000080F3118809BC1968086877
:1002E000B0E8F04F1EF0100F08BFB0EC108A80F39A
:1002F0000988BFF36F8F704754000020EFF305802B
:10030000704700000948804709480047FEE7FEE7BC
:10031000FEE7FEE7FEE7FEE7FEE7FEE7FEE7FEE7B5
:1003200004480549054A064B70470000153F000880
:1003300089010008304E0020305400203050002049
:100340003050002053EA020C00F069802DE9F04B98
:100350004FF00006002B1FBFB3FA83F503FA05F434
:1003600024FA05F65E4012BF1643B2FA82F502FA8D
:1003700005F4C5F120051EBF22FA05FC44EA0C0471
:10038000203556EA044C4FEA144418BF641C4FF061
:1003900000084FF00009904271EB030C39D300299B
:1003A00019BFB1FA81F701FA07F6B0FA80F700FA3F
:1003B00007F6C7F120071EBF20FA07FC46EA0C0625
:1003C0002037B6FBF4FCA7EB0507103F07F01F0B27
:1003D000CBF120060CFA0BFB2CFA06F644BFB34611
:1003E0000026202FA4BF5E464FF0000B5BEA060CF0
:1003F00008BF4FF0010B19EB0B09ABFB027C48EB7C
:100400000608C01B06FB02CC0BFB03CC71EB0C01F6
:10041000C1E70B46024641464846BDE8F08B13B59E
:100420004FF000004FF00001AFF30080BDE81C402A
:100430007047CBB22AB101788B4203D0401C521EC8
:10044000F9D100207047032A40F2308010F0030CED
:1004500000F0158011F8013BBCF1020F624498BF17
:1004600011F801CB00F8013B38BF11F8013BA2F1B4
:10047000040298BF00F801CB38BF00F8013B11F02F
:10048000030300F02580083AC0F0088051F8043BCF
:10049000083A51F804CBA0E80810F5E7121D5CBF3C
:1004A00051F8043B40F8043BAFF30080D20724BF6F
:1004B00011F8013B11F801CB48BF11F8012B24BF03
:1004C00000F8013B00F801CB48BF00F8012B704752
:1004D00010B5203AC0F00B80B1E81850203AA0E8DF
:1004E0001850B1E81850A0E81850BFF4F5AF5FEA13
:1004F000027C24BFB1E81850A0E8185044BF18C9C6
:1005000018C0BDE810405FEA827C24BF51F8043B6C
:1005100040F8043B08BF7047D20728BF31F8023BC0
:1005200048BF11F8012B28BF20F8023B48BF00F854
:10053000012B704702F0FF0343EA032242EA024222
:1005400000F002B84FF000020429C0F0128010F051
:10055000030C00F01B80CCF1040CBCF1020F18BF9F
:1005600000F8012BA8BF20F8022BA1EB0C0100F032
:100570000DB85FEAC17C24BF00F8012B00F8012B05
:1005800048BF00F8012B70474FF0000200B513463A
:1005900094469646203922BFA0E80C50A0E80C50A3
:1005A000B1F12001BFF4F7AF090728BFA0E80C5054
:1005B00048BF0CC05DF804EB890028BF40F8042B4D
:1005C00008BF704748BF20F8022B11F0804F18BFBA
:1005D00000F8012B70477047704770477CB505469F
:1005E00000236846CDE9003300F024F86946284628
:1005F00004F056FA7CBD00000FB4002300B589B0AA
:100600000CA900910B99CB60214B7B440693214BA5
:100610007B44079304236FF00042CDE901321E4A68
:100620007A446B4608920246002006F024FA09B08C
:100630005DF814FB70B506464FF0FF3015460C46CA
:10064000324686B00091CDE9010169460020049050
:1006500004A8FFF7D1FF02460498211825B108B17C
:10066000084600E020462860049800280DD0002AA3
:1006700002DD0098884208D03246081B6946009483
:10068000CDE9010404A8FFF7B7FF06B070BD000074
:100690000101000019010000D9000000754600F0BA
:1006A0005FF8AE4605006946534620F007008546D0
:1006B00018B020B5FFF734FEBDE820404FF000062B
:1006C0004FF000074FF000084FF0000B21F007013A
:1006D000AC46ACE8C009ACE8C009ACE8C009ACE87D
:1006E000C0098D46704710B500F046F8006810BD8F
:1006F00010B5044600F040F8046010BD10B5044683
:1007000000F032F80068005D00F0010010BD4268A2
:1007100042B1016811F8013B23B1521EC0E9001239
:10072000184670470121C160881E704742685AB15F
:10073000C368016843B983688B4205D0491E521CC7
:10074000C0E90012002070474FF0FF30704710B52D
:100750000446AFF300802046BDE81040FFF76BBDB4
:1007600000487047CC4D002010B500F0CBFA001DBA
:1007700010BD00BF195E000000487047CC4D00203E
:100780002DE9FF4F06468BB00878FF2806D0491C9C
:100790002D2805D000244FF0000908E000200CE0CF
:1007A0000124F8E709EB8903491C00EB43090878A9
:1007B000FF28F7D114B1C9F1000081461078002557
:1007C0002C46AA4629462D2801D02B2804D1521C9C
:1007D0002D2813D0002082468B461078FF280FD09A
:1007E0004FF0000C0A21521CA5FB017804FB01818B
:1007F00005FB0C11C5194BEB0104EEE70120EAE7FC
:10080000002108464FF00000BAF1000F02D000EBC3
:1008100080004008C0F38157012F01DD4FF0FF3702
:100820000E9955EA040009EB01080BD04FF00209BC
:1008300018F5FA7F16DA4FEACA70002F706008DDEB
:10084000012007E04FEACA70C6E900B00FB0BDE86A
:10085000F08F00203060FFF78FFFC0F80090182164
:10086000084616E0B8F5FA7F18DD002F02DAF748DF
:10087000784401E0F6487844D0E90010C6E9001059
:1008800040EACA707060FFF777FFC0F8009014214B
:1008900008460FB0BDE8F04F06F08AB800210846C0
:1008A0004FF00000B8F10001099002DAC7F1000230
:1008B00000E03A4601DAC8F1000106A800F026FA85
:1008C00006AB93E8070003AB83E8070044F23E0061
:1008D0005BEA04010090584604D144F21E012C4604
:1008E0005D460091210C0904014306D100992404BE
:1008F00044EA15442D041039009104F07F4101436E
:1009000006D10099240244EA15642D0208390091A9
:1009100004F07041014306D10099240144EA1574A2
:100920002D01091F009104F04041014306D10099B7
:10093000A40044EA9574AD00891E009104F00041C2
:10094000084304D100986D196441401E00904FF097
:1009500001033A466846B8F1000FCDE9014503A905
:1009600002DD00F01EFF01E000F0F1FEBAF1000F21
:1009700004460D4601D084F00044002108464FF0A3
:100980000000099940F2FF77484010F00C0F07D1A2
:1009900024F00040284303D0C4F30A50B84212D1D7
:1009A000FFF7EAFEC0F80090C4F30A50B8420AD13B
:1009B000A8487844D0E90010C6E9001004F00041CE
:1009C0000843706042E7C6E900543FE72DE9FF4F56
:1009D0001F464FF0000A4FF0FF38454691B0D7E967
:1009E0000146CDF83CA000F08DF9C0680168405C7C
:1009F0001090B96912986D1C8847396A81468847FA
:100A00000028F6D1B9F1FF3F0AD0002E24F4D064BB
:100A100011DDB9F12B0F08D0B9F12D0F0BD102E088
:100A2000404615B013E744F48064B96912986D1C10
:100A30008847761E8146600504A901D52D2000E077
:100A40002B20002E01F1010B0DF130088DF8100064
:100A50003FDDB9F1690F08D0B9F1490F05D0B9F1FF
:100A60006E0F02D0B9F14E0F1CD13B4601A8009584
:100A700080E85002DDE912126FF0020005F0FFFF7E
:100A8000C11CCED10EE0B96912986D1C8847814611
:100A90001398761E44F4007405600F98401C002ED5
:100AA0000F9016DDB9F1300FEDD0B9F1780F02D00B
:100AB000B9F1580F0DD10F9801280AD13B46CDE965
:100AC0000054DDE91212001F029605F0D6FFC11C8A
:100AD000A7D1109989453ED144F0800406E01399CE
:100AE000681CAAF1010A44F400740860B9696D1C1D
:100AF0001298761E884730288146F0D02BE0109956
:100B0000894505D1200603D4761E44F0800418E000
:100B1000484603F0D8FF08B3761E0DF123018B453C
:100B200044F4007408D2A9F130000BF8010B200640
:100B300007D5AAF1010003E0200602D40AF1010062
:100B40008246A00502D51399681C0860B9691298FD
:100B50006D1C88478146002ED1DC53E0002E51DD0C
:100B6000B9F1650F02D0B9F1450F4BD1A00549D5B8
:100B7000B9696D1C1298761E24F440748847002EC3
:100B800081460CDD2B2804D0B9F12D0F07D144F498
:100B90008074B96912986D1C8847761E8146E005FD
:100BA00001D52D2100E02B2108F8011BCDF8008094
:100BB00021E0761E0DF13901884544F400740CD211
:100BC000A9F1300010F0FF0088F8000002D1009970
:100BD000884509D908F1010806E0E00501D51E485D
:100BE00001E042F20F708246B96912986D1C884785
:100BF000814613980560002E04DD484603F063FF2C
:100C00000028D6D1F96912988847FF2053468BF8FF
:100C1000000088F8000000200A900B9004AA0CA99C
:100C20000AA8FFF7ADFDA00502D46FF00100F8E6B9
:100C300014F0240F12D0E0071CD13868DDE90A1245
:100C4000031D3B600068C0E9001213E0606400000F
:100C50005264000016630000F1D8FFFF0AA968463D
:100C600003F01EFFE00705D13868009A011D3960C6
:100C7000006802602846D4E64FF0013C50F8042B8F
:100C800051F8043B9A4221D1A2EB0C03934313EA9F
:100C9000CC1317D150F8042B51F8043B9A4215D1CC
:100CA000A2EB0C03934313EACC130BD150F8042BA3
:100CB00051F8043B9A4209D1A2EB0C03934313EA87
:100CC000CC13DBD04FF00000704700BFD01A01BA40
:100CD000B1FA81F101F0180122FA01F0CB40C1F123
:100CE0002001DBB2C0B2C01A2CFA01F3D11A914331
:100CF00011EAC311E6D1704701491820ABBEFEE7E7
:100D00002600020000487047EC4D00202DE9F04716
:100D1000814616468AB0354878440DC88DE80D00E6
:100D200032487844801C03AC0DC884E80D0041F6BD
:100D30009B300844372190FBF1F290FBF1F5A5F1CF
:100D4000800501FB12041B3C02D56442012000E037
:100D50000020DFF898A080460027FA44AAF1BE0AD6
:100D60000EE0E0070AD03246684607EB4701012350
:100D70000AEB810100F000FD8DE8070064107F1C84
:100D8000002CEED1194F7F44AE3F19E0E80715D093
:100D900007EB04100DF1180A90E80E008AE80E0027
:100DA000C068F04201D1981908903246012306A983
:100DB00003A800F0E1FC03AB83E807006D10641C9E
:100DC000002DE3D14FF0010332466946B8F1000F20
:100DD00003A802D000F0A6FC01E000F0CDFCC9E9B8
:100DE0000001C9F808200AB0BDE8F0870C5F0000D8
:100DF000704700002DE9FF4F1F464FF03C0987B0B8
:100E00004FF00042DDE9141001F10108DDF858A0AF
:100E100002EA4050039000200590834605460446B0
:100E20000490B969461E08988847AAF1010A029001
:100E3000BAF1000F3BDD02982E2815D0102100F0EA
:100E400016FA00282EDB4FF0010B0599014317D04D
:100E5000B9F1000F0BDB4A46C11700F0F5F9054365
:100E60000C43A9F1040905E0012004900BE008B14E
:100E700045F0010501200590049820B9361D02E0D7
:100E8000049800B1361FB969089808F1010888472D
:100E9000BBF1000FAAF1010A0290C9D00999C1F86B
:100EA0000080C5E70298702808D0502806D0F9695C
:100EB00008988847BBF1000F14D04FE00020029043
:100EC0000120BBF1000F049009D0B969089808F11E
:100ED00001088847AAF10109B9F1000F07DCF96997
:100EE000089888476FF001000BB0BDE8F08F2B2801
:100EF00004D02D280CD14FF0FF300490B969089828
:100F000008F101088847A9F10109B9F1000FE6DDF0
:100F1000411CE4D00A2100F0AAF90028DFDB029985
:100F200008F1010801EB810100EB41000290B96971
:100F3000089888470A2100F09AF9099AA9F101094D
:100F4000B9F1000FC2F8008001DD0028E7DAF96985
:100F5000089888470499029800FB016655EA040046
:100F600004D004F04041090002D006E0039898E064
:100F7000A40044EA9574AD00B61E04F000410800D8
:100F800002D16D196441761E159810F0240F03D01C
:100F90004FF00B095C4803E04FF028096FF07D002B
:100FA0008246564507DAAAEB06018944B9F1410F9A
:100FB00001DD4FF0410901200021A9F1010200F0FB
:100FC00043F9024628400B462140084301D0012145
:100FD00000E00021501E029143F1FF3128402140E2
:100FE000084301D0012000E000200299834651EA25
:100FF0000B014FD0002108464FF00000039900F488
:10100000400039B100EB80004FF4400100EBD0709C
:1010100001EA60008015012802DD4FF0FF3000E09A
:1010200013D0401C36D0029860B3BBF1000F0CD136
:101030004A460120002100F007F9284021400843DA
:1010400001D0012000E00020E0B101204A4600214B
:1010500000F0FAF8034640190A4661412D1A8C4106
:1010600011D3B9F1400F09DD159810F0240F02D00B
:10107000AAF1340603E0AAF1170600E0761C002569
:101080004FF0004406E05B1E42F1FF3220EA030508
:1010900021EA0204CAF10100B04206DA1B490398B2
:1010A00008430190002000900EE0039AC4F3D3217E
:1010B000E80A0A43164940EA44500A433146CDE95A
:1010C0000002684603F0F5FC159810F0240F0BD0D1
:1010D0001598C00715D13868DDE90012031D3B6083
:1010E0000068C0E900120CE002A8694603F0D8FCD1
:1010F0001598C00705D13868029A011D396000684B
:1011000002604046F0E6000002FCFFFF0000F07FB6
:101110000000F03F2DE9FF4F92461D4685B04FF08D
:101120000041DDE9124BDDE914727F1E01EA4B50EC
:10113000414940F0FF4940EA0108002122F0200027
:101140004928049102D04E2828D04CE03BA001262B
:1011500007C88DE80700A9690698641C88477F1EA8
:10116000014606D41DF8060018B121F02001814285
:101170000BD0E96906988847032E34D0082E32D068
:101180006FF0010009B0BDE8F08F761C032E01D08E
:10119000082EE0D1601CCAF80000DCE7A9690698B7
:1011A000641C88477F1E2AD420F02000412826D1C5
:1011B000A9690698641C88477F1E20D420F020006F
:1011C0004E281CD1A9690698641C88477F1E48F4E4
:1011D000002849F48009CAF8004001D4282806D024
:1011E000E969069888475FEACB7012D022E0A969C6
:1011F0000698641C88477F1E01D4002803DAE96939
:1012000006988847BCE72928F1D1641CCAF8004039
:10121000E9E71BF0240F07D028680499031D2B6011
:101220000068C0E9001805E02868021D2A6000680F
:10123000C0F800902046A5E70000F07F494E4649DF
:101240004E49545900000000B2F120030AD5C2F102
:10125000200301FA02F120FA03F300FA02F041EA56
:101260000301704700FA03F14FF0000070473A287D
:1012700000D2303820F02002412A01D3A2F13700F9
:10128000884201D34FF0FF30704720F07F4C80EA56
:10129000030023F07F47ACEB070303F57C5300F01A
:1012A000004003F1FF032DE980494FEA154B09B4D3
:1012B0004FEA144325EA0B4E24EA03480FF20426B2
:1012C00006EB132749083E785FEA320203FB066704
:1012D000C7F5000707FB06F64FEA54374FEAD64634
:1012E00006F1020607FB066CCCF1005C4FEA1C47D6
:1012F0002CEA074C07FB06F40CFB06F504EB15463D
:101300004FEA961634BF00204FF000404FEAD13725
:1013100006FB07FC4FEA1C4C0CFB0BF7D21B03FB34
:101320000CF761EB07010CFB0EF7B0EB074072EB1B
:1013300017420CFB08F734BFA2EB0742B2EB07429F
:1013400061EB17414FEA0C444FEA910706FB07FC9B
:101350004FEA1C4C0CFB0BF7B0EBC74072EB57325B
:1013600003FB0CF734BFA2EBC742B2EBC74261EB01
:1013700057310CFB0EF7B0EBC70072EB57720CFB4A
:1013800008F734BFA2EBC702B2EBC70261EB57719B
:10139000039F4FEA816141EA921104EBCC044FEACA
:1013A000D1374FEA826206FB07FC42EA90124FEA0D
:1013B00080604FEA1C4C0CFB0BF7D21B03FB0CF7B5
:1013C00061EB07010CFB0EF7B0EB074072EB174225
:1013D0000CFB08F734BFA2EB0742B2EB074261EB0C
:1013E00017414FEA8C554FEA910704EB9C2406FB0A
:1013F00007FC4FEA1C4C0CFB0BF7B0EBC74072EB41
:10140000573203FB0CF734BFA2EBC742B2EBC74223
:1014100061EB57310CFB0EF7B0EBC70072EB577264
:101420000CFB08F734BFA2EBC702B2EBC70261EBBB
:10143000577115EB4C254FEA816141EA92114FEA51
:1014400082624FEAD13742EA901206FB07FC44F170
:1014500000044FEA80604FEA1C4C0CFB0BF7D21BD8
:1014600003FB0CF761EB07010CFB0EF7B0EB074039
:1014700072EB17420CFB08F734BFA2EB0742B2EB4A
:10148000074261EB174115EB1C154FEA813141EA28
:1014900092414FEA823242EA90424FEA80304FEA6C
:1014A0000C7644F1000448EA03434EEA0B484FF03F
:1014B000000EB2EB080C71EB030724BF62463946FD
:1014C0004EEB0E0E4FF0000B0018524149414BEB12
:1014D0000B0BB2EB080C71EB03077BF1000B24BF85
:1014E000624639464EEB0E0E4FF0000B001852418B
:1014F00049414BEB0B0BB2EB080C71EB03077BF193
:10150000000B24BF624639464EEB0E0E51EA02072D
:1015100018BF46F0010616EB0E7655F1000254F1A5
:10152000000103D5BDE88901BDE80088BDE8890157
:10153000BDE80048B619524141EB0101A3F1010396
:10154000704780807F7E7D7C7B7A79787776767530
:101550007473727171706F6E6E6D6C6C6B6A6A69A8
:101560006868676666656464636362616160605F42
:101570005F5E5E5D5D5C5C5B5B5A5A5959585857BB
:101580005756565555555454535352525251515023
:1015900050504F4F4F4E4E4D4D4D4C4C4C4B4B4B76
:1015A0004A4A4A49494948484847474747464646BC
:1015B00045454544444444434343434242424241F7
:1015C0004141000046EA0646A3F570534FEA16462D
:1015D00046EA42564FEAD22242EA415210B54FEA59
:1015E000D121A3F1010300F02FF820F0004000F119
:1015F000020C00F0004701EB00501146BCF5006FF3
:1016000040EA070000D210BDBAF1000F0AD01CB5A5
:1016100003B44FF004004FF004014FF000000FBC82
:10162000BDE810404FF00001BBF1010FB9BF044805
:101630004FF0FF310348002140EA070010BD00BF12
:10164000FFFFEF7F0000F07F002B9C4630D4770037
:101650002BD01CB54FEA370703B44FF010004FF002
:101660001001BAF1000F06D0BCF1000FDCBF40F052
:10167000080040F008014FF000000FBCBDE810402A
:101680000BF1010BBBF1010F08BF5FEA170722BF87
:1016900012F1010211F101014FF0004143F1000389
:1016A00000F0004043EA00007047F9D35708D0E744
:1016B00046EA064613F1400F4FEA16461FDD13F1C6
:1016C000200FDFBF16430A46002120335B42BED005
:1016D000C3F1200746EA064602FA07F74FEA164624
:1016E00046EA0706C3F1200722FA03F201FA07F7D8
:1016F00021FA03F14FF0000342EA0702A7E746EAA6
:10170000020646EA06464FEA164646EA0106BCBF0E
:1017100046EA0646360C4FF000034FF000024FF049
:10172000000194E72DE9804C9A46934670B491E805
:10173000380007C831EA400C48BF34EA430C03D5EF
:10174000FFF7A3FDFFF780FFF0BCBDE8008C2DE99B
:10175000804C9A46934670B491E8380007C831EA45
:10176000400C48BF34EA430C03D5FFF78EFDFFF76A
:1017700029FFF0BCBDE8008C2DE9804C9A469346C9
:1017800070B491E8380007C810F0804F08BF13F01C
:10179000804F03D100F01AF8FFF756FFF0BCBDE808
:1017A000008C2DE9804C9A46934670B491E838003D
:1017B00007C810F0804F08BF13F0804F03D100F02E
:1017C00005F8FFF7FFFEF0BCBDE8008C20F07F4776
:1017D00080EA030023F07F4C07EB0C03A3F57C5356
:1017E00000F00040A3F1FE0392F0000F00F0B38080
:1017F00095F0000F00F077802DE901494FEA114084
:101800004FEA144621EA004800FB06FC24EA06479A
:1018100008FB06F607FB08F800FB07F718EB06487D
:101820004CEB164C4FEA124B18EB07484FEA1546A3
:101830004CEB174022EA0B4E0BFB06FC25EA064751
:101840000EFB06F607FB0EFE0BFB07F71EEB064E24
:101850004CEB164C4FF000061EEB074E4CEB174BB3
:1018600018EB0B0840F1000018EB0E0B58EB0008CA
:1018700040F100008F1A4FF000013CBFC943661BC6
:1018800014BFB5EB040C00213CBFC943F61B4FEA63
:1018900017444EEA8E0E27EA04454FEA1C4704FB24
:1018A00007622CEA074C05FB07F70CFB05F604FB67
:1018B0000CFC16EB074642EB174216EB0C4642EBCC
:1018C0001C421BEB060658EB0202414146EA9E060B
:1018D00001D5BDE80189B619524141EB0101A3F1DF
:1018E0000103BDE801894FEA14454FEA114724EA94
:1018F000054621EA074C05FB07F406FB07F70CFB3E
:1019000006F105FB0CFC11EB074144EB17444FEAD1
:10191000124711EB0C4144EB1C4422EA074C05FB37
:1019200007F206FB07F70CFB06F605FB0CFC16EBB3
:10193000074642EB174216EB0C4642EB1C456A1871
:1019400054F1000148BF7047B619524141EB010103
:10195000A3F10103704795F0000F37D04FEA114211
:101960004FEA144721EA024624EA074C02FB07F13A
:1019700006FB07F70CFB06F402FB0CFC14EB074418
:1019800041EB17414FEA154714EB0C4441EB1C4166
:1019900025EA074C02FB07F506FB07F70CFB06F6EA
:1019A00002FB0CFC16EB074645EB174516EB0C4605
:1019B00045EB1C42121951F1000148BF7047B6199E
:1019C000524141EB0101A3F1010370474FEA144575
:1019D0004FEA114724EA054621EA074C05FB07F1C7
:1019E00006FB07F70CFB06F24FF0000605FB0CFCAC
:1019F00012EB074241EB174112EB0C4251EB1C4139
:101A000048BF7047921841EB0101A3F101037047F1
:101A100010B51E4A2DED028B135C8B421FD0115462
:101A2000A2F11204B3EE0E8A30B101280DD00228C3
:101A300018D0032813D119E0B0EE600A00F076F94F
:101A400094ED070A30EE080A07E0B0EE600A00F0F5
:101A50006DF994ED070A30EE480A84ED070ABDECF3
:101A6000028B10BD022908D00029F8D100F046F9F8
:101A700094ED060A30EE480A05E000F03FF994EDD7
:101A8000060A30EE080A84ED060AE8E73600002070
:101A900070B5040038D01D4D21886088EA8802F1B5
:101AA0003C0399422ED83C3191422BD3298901F134
:101AB0003C02904226D83C30884223D3A08900F0D3
:101AC00027F80646688900F023F886421AD1E08993
:101AD00000F01EF80646A88900F01AF8864211D1D7
:101AE000208A00F01DF80646E88900F019F88642C1
:101AF00008D1608A00F00CF80446288A00F008F843
:101B0000844201D0012070BD002070BD240000205F
:101B100040F2DF31884201D9012070470020704730
:101B200040F267610322B1FBF2F140F6CE43B3FB12
:101B3000F2F2AC31AC3289B292B2884201D80020C4
:101B40007047904201D30220704701207047000087
:101B500070B504468089FFF7DBFF144D2870E089DB
:101B6000FFF7D6FF6870208AFFF7DAFFA870608A57
:101B7000FFF7CEFFE8709FED0E0AA5F112000021DD
:101B800080ED060A80ED070A8170C1702188C1804E
:101B900061880181A1894181E1898181218AC18195
:101BA000618A01820121417070BD00003600002071
:101BB00000000000F0B52DED048B8FB003ADEFF306
:101BC000108472B602F0CCF8010003D0302228460F
:101BD000FEF77EFC04B962B602F0C6F89FED448AB7
:101BE0000126444F444C002528B19DF8350010B91A
:101BF0009DF8360070B18DED008A8DED018A8DF86B
:101C000008602570657084ED068A84ED078AA570EA
:101C1000E57055E08DF808509DED0C9ADDED0B8ACE
:101C2000A570E570207938B103A8FFF731FFE0B364
:101C3000257103A8FFF78CFF2078B8B36078A8B3AC
:101C4000BDF81800FFF764FF0146F0EE680AB0EE39
:101C5000490A0020FFF7DCFEBDF81A00FFF758FF25
:101C60000146F0EE680AB0EE490A0120FFF7D0FE07
:101C7000BDF81C00FFF754FF0146F0EE680AB0EE15
:101C8000490A0220FFF7C4FEBDF81E00FFF740FF1F
:101C90000146F0EE680AB0EE490A0320FFF7B8FEED
:101CA00094ED060A39EE000A01E013E017E08DED2D
:101CB000000A94ED070A38EE800A8DED010A2670BD
:101CC00000231A466946386802F0FEFF0FB0BDECEB
:101CD000048BF0BD8DED008A8DED018AEFE703A83E
:101CE000FFF736FF8DED009ACDED018AE7E70000A2
:101CF00000000000000000202400002010B50A4C65
:101D00002DED028BB0EE408AA078002808D1022089
:101D100001F030FE30EE480A012084ED060AA07082
:101D2000BDEC028B10BD00002400002010B50A4C51
:101D30002DED028BB0EE408AE078002808D1042017
:101D400001F018FE30EE480A012084ED070AE07029
:101D5000BDEC028B10BD00002400002030B5002532
:101D60002DED028B87B02F4C10E000BFDDED050A92
:101D70009DED040A01F0EEFE9DF8180030B101253A
:101D800001F046FE0021084600F0D4F800231A4670
:101D900004A9206802F03AFF0028E7D0234C9FED09
:101DA000228A75B18DED008A022001F0E3FD8DEDF0
:101DB000010A8DED028A042001F0DCFD8DED030A9D
:101DC00026E001F0DDFE30B101F022FE00210846E0
:101DD00000F0B0F8E6E7022001F0ECFD8DED000A1E
:101DE000022001F0C7FD8DED010A042001F0E2FDA3
:101DF0008DED020A042001F0BDFD0D488DED030AB2
:101E0000417929B18DED008A8DED028A0021417161
:101E100000231A466946206802F056FF07B0BDEC61
:101E2000028B30BD000000200000000004000020F4
:101E300024000020FEE70000014800F035BA000051
:101E40008C010020014800F02FBA0000EC010020B6
:101E5000014800F029BA00004C0200200168182354
:101E6000CAB2103AB2FBF3F2054B6FF30901032A31
:101E70009B5CC36500D9091D816508467047000059
:101E80008C6B000810B5014600208B698A6A4FF000
:101E9000C07453B1B3F5005F15D072B1012A0CD0F4
:101EA000022A0AD0032A09D104E01AB1012A06D075
:101EB000022A03D1C96AC90100D5012010BDC96A2F
:101EC000A142FAD010BD002AF7D0012AF2D0022A8E
:101ED000F3D0032AF3D010BD30B50468256825F48B
:101EE00080252560046863608368402B036803D005
:101EF00099600068C26030BD9A600068C16030BD02
:101F0000704772B6FEE746F2A811884202DC4942E9
:101F1000884200DA08467047022803D0042803D01C
:101F20000020704702487047014810307047000099
:101F30008C03002070B58AB00E460546182168460D
:101F4000FEF722FB00240694079428460894FFF726
:101F5000DAFF05463046FFF7D6FF40F2FF11CDE924
:101F6000001408210294CDE90341290A8DF81A10C2
:101F7000010A8DF81E108DF81F008DF814408DF8A1
:101F80001B5008AB06AA6946024800F005F80AB0E3
:101F900070BD0000D4000020F0B590F82050046817
:101FA000A468012D05D0022D03D0416A41F480219F
:101FB00057E014F0406F01D1E5004FD5C4F3016440
:101FC0000125A5401D608D684FF4C0739DB1CE689A
:101FD00035434E6845EAC605066803EB0417F5511C
:101FE0004FF4C275076805EB04150E697E51097D33
:101FF000012905D009E00E88CD6845EA4655EBE792
:1020000001684E5946F480764E511179D57956794A
:1020100041EA056195792D0445EA062529434FF4E7
:10202000C676056806EB0416A9511178D57841EA01
:102030000561957852782D0445EA022211434FF448
:10204000C475026805EB04155151006803EB0411D7
:10205000425842F0010242500020F0BD416A41F472
:10206000001141620120F0BD70B5040003D094F866
:10207000200010B104E0012070BD204600F082F87D
:102080002068016841F00101016000F077FB05461E
:10209000052604E000F072FB401B0A2811D82068D6
:1020A0004068C007F6D02068016821F00201016095
:1020B00000F064FB05460BE000F060FB401B0A28C3
:1020C00006D9606A40F40030606284F82060D2E78C
:1020D000206840688007EFD4207E012820680168CE
:1020E0003DD021F080010160607E012820680168F8
:1020F00038D021F040010160A07E012820680168ED
:1021000033D021F020010160E07E012820680168C1
:102110002ED041F010010160207F01282068016865
:1021200029D021F008010160607F01282068016842
:1021300024D021F004010160D4E902010843D4E96C
:102140000412114308436168491E08432168C861AD
:1021500000206062012084F82000002070BD41F062
:102160008001C0E741F04001C5E741F02001CAE726
:1021700021F01001CFE741F00801D4E741F004015C
:10218000D9E7000010B586B0044614216846FEF772
:10219000FBF914492068884221D1134800210268C4
:1021A00042F000720260006800F0007005900E4876
:1021B0001038026842F001020260006800F001007D
:1021C00005904FF4C05000900220CDE9010103209A
:1021D0000390092004906946044800F0D7F906B03E
:1021E00010BD000000640040403802400000024082
:1021F0002DE9F0410446876D00F0C0FA064694F8D8
:1022000035000025022806D08020606584F834500F
:102210000120BDE8F0812068016821F0160101600D
:102220002068416921F080014161206C08B9A06CEF
:1022300020B12068016821F0080101602068016870
:1022400021F0010101600CE000F098FA801B0528E4
:1022500007D920206065032084F8350084F83450C5
:10226000D7E720680068C007EED194F85C103F20E3
:102270008840B860012084F8350084F8345000208C
:10228000C7E790F83510022903D08021416501206D
:102290007047052180F835100068016821F00101C0
:1022A00001600020704700002DE9F84304464FF01C
:1022B0000009CDF8009063484FF41651A56D0068F1
:1022C000B0FBF1F72E6894F85C10082000FA01F1D9
:1022D00031420FD021680A6852070BD50A6822F0F4
:1022E00004020A6094F85C108840A860606D40F0B9
:1022F0000100606594F85C104FF0010808FA01F0E5
:10230000304208D021684969090604D5A860606D8B
:1023100040F00200606594F85C1004208840304270
:1023200008D021680968890704D5A860606D40F06D
:102330000400606594F85C1010208840304218D08A
:1023400021680968090714D5A86020680168490355
:1023500004D50068000308D5A16C07E00168C90531
:1023600003D4016821F008010160216C09B1204605
:10237000884794F85C1020208840304231D0216892
:102380000968C9062DD5A86094F83500052820688D
:10239000016806D0490347D5006800031DD4616C6D
:1023A0001CE021F0160101602068416921F08001E4
:1023B0004161206C08B9A06C20B12068016821F04F
:1023C0000801016094F85C103F208840A86084F800
:1023D000358084F83490216D1FE0E16B09B120460F
:1023E0008847606D00282BD0606DC00714D0052091
:1023F00084F835002068016821F00101016000982F
:10240000401C0090B84203D820680068C007F6D18D
:1024100084F8358084F83490E16C002910D001B044
:102420002046BDE8F04308470168C905D5D40168D6
:1024300021F01001016084F8358084F83490CCE7F5
:10244000BDE8F883500000202DE9F041044600F07B
:1024500095F906465CB1022084F83500002584F821
:1024600034502068016821F0010101600DE0012075
:10247000BDE8F08100F082F9801B052805D92020F5
:102480006065032084F83500F2E720680068C00723
:10249000F0D12268116820480140D4E901031843B3
:1024A000D4E903363343184363691843A3691843D7
:1024B000E3691843236A18430843616A042903D176
:1024C000D4E90B1319430843106020684069666A19
:1024D00020F0070130460E43012704280CD1A06AE2
:1024E0000643E06A40B12046FFF7CCFC20B1402013
:1024F000606584F83570BAE7206846612046FFF7CA
:10250000ADFC94F85C203F2191408160656584F8C2
:1025100035700020ACE700003F8010F02DE9F0415D
:102520000446866D90F83400002501280DD0012066
:1025300084F8340094F835700020012F07D084F817
:10254000340002252846BDE8F0810220FBE702277F
:1025500084F8357060652046FFF7BEFC94F85C1087
:102560003F208840B0602068016841F0160101609A
:10257000206C20B12068016841F0080101602068EA
:10258000016841F001010160DCE700002DE9F84F2E
:10259000DFF8BCA10022012503264FF00F090AF144
:1025A000040BAAF1040E00BF0B6805FA02F42340E5
:1025B000A34270D10F7907F00307012F01D0022F3A
:1025C00016D187684FEA420806FA08FC27EA0C078A
:1025D000D1F80CC00CFA08FC4CEA070CC0F808C093
:1025E0004768A7430C79C4F3001494403C4344600B
:1025F0000C79E443A4070AD0C4684FEA420C06FAF7
:102600000CF7BC438F6807FA0CF72743C7600C79B7
:1026100004F00304022C12D1D40800EB840CDCF883
:1026200020405707FF0E09FA07F824EA0804D1F8FA
:10263000108008FA07F848EA0408CCF820800468FB
:102640004FEA420C06FA0CF7BC430F7907F0030778
:1026500007FA0CF7274307604C6814F4403F70D02A
:102660003C4C276847F480472760246822F0030722
:1026700004F480440094384C07EB040CDCF8084860
:1026800097074FEA177809FA08F7BC43334FB84267
:1026900002D1002724E054E0314FB84201D1012794
:1026A0001EE0304FB84201D1022719E02E4FB84248
:1026B00001D1032714E02D4FB84201D104270FE0C8
:1026C0002B4FB84201D105270AE02A4FB84201D169
:1026D000062705E0284FB84201D1072700E0082768
:1026E00007FA08F72743CCF80878DAF8004057468D
:1026F000D1F804C09C435FEACC2C00D51C433C605D
:10270000DBF800405F46D1F804C09C435FEA8C2CA4
:1027100000D51C433C60DEF800407746D1F804C089
:102720009C435FEA8C3C00D51C433C60084F083F4B
:102730003C68D1F804C09C435FEACC3C00D51C4304
:102740003C60521C102AFFF42FAFBDE8F88F000048
:10275000083C014044380240003001400000024083
:102760000004024000080240000C02400010024039
:102770000014024000180240001C0240014880681A
:10278000704700004400002002488168027811442C
:1027900081607047440000200B4810B5016841F487
:1027A00000710160016841F480610160016841F4D9
:1027B00080710160032000F099F80F2000F006F806
:1027C00000F04AF8002010BD003C024030B505463C
:1027D0001C4887B00024016841F0010101600068D5
:1027E00006A900F00100009001A800F02BF900F00C
:1027F00059F915494000B0FBF1F11548134A491E3B
:10280000026040F2E732C0E90324C0E901148461A8
:1028100000F042FB040012D10D4800F06BFB0400F5
:102820000DD1192000F034F8102D07D200222946CE
:10283000192000F03BF80748056000E0012407B0CC
:10284000204630BD4438024040420F0000000140A5
:10285000AC020020480000200C4882B0016841F41E
:1028600080410160006800F4804000900748001F2C
:10287000016841F0805101600068002200F0805042
:1028800000900F21901E02B000F010B844380240B2
:10289000002809DB00F01F0201219140400980005F
:1028A00000F1E020C0F8001170470000F0B40E4BBA
:1028B0001B680C46C3F30223C3F10705042D00D99E
:1028C0000425191D072901D2002300E0DB1E012683
:1028D00006FA05F1491E214099409E40761E164099
:1028E0003143F0BC01F0B8BF0CED00E0064900F048
:1028F000070208684FF6FF03184040EA0220034A27
:1029000010430860704700000CED00E00000FA057D
:102910002DE9F0470E46050065D0DFF81481D8F8A0
:102920000000F7B200F00700B04207D288F800704C
:10293000D8F8000000F00700B04254D128683D4CA0
:10294000810712D5400703D5206840F4E05020608D
:102950002878000703D5206840F460402060206894
:10296000A96820F0F000084320602878C0072DD027
:10297000304968680839012812D0022813D003288A
:1029800011D00968890700292DDA216821F0030197
:1029900001432160FFF7F2FE814641F2883A0EE0E2
:1029A00009688903EFE709688901ECE7FFF7E6FEAC
:1029B000A0EB0901514502D90320BDE8F08720684A
:1029C000696800F00C00B0EB810FEFD1D8F800106F
:1029D000404601F00701B14207D90770006800F0D6
:1029E0000700B04201D00120E7E72878400705D56D
:1029F0002068E96820F4E050084320602878000748
:102A000006D52068296920F4604040EAC1002060B2
:102A100000F058F82168084AC1F30311515CC8401E
:102A20000649086006480068FFF7D0FE0020C4E7AA
:102A3000003C024008380240946B0008500000201F
:102A4000480000200F2202600C4A136803F00303C1
:102A50004360136803F0F0038360136803F4E053EA
:102A6000C36012684FF4E05303EAD20202610448E3
:102A7000006800F007000860704700000838024056
:102A8000003C02400448054900680968044AC1F353
:102A90008221515CC8407047500000200838024035
:102AA000A46B00080448054900680968044AC1F39A
:102AB0004231515CC8407047500000200838024045
:102AC000A46B0008154810B5006810F00C021448FB
:102AD00013D01449042A0FD0082A0ED10F4C241FFA
:102AE0002268236802F03F025B0207D52068C0F32A
:102AF0008810A0FB010106E0084610BD2168C1F363
:102B00008811A1FB00010023FDF71CFC2168C1F323
:102B10000141491C4900B0FBF1F010BD08380240EA
:102B20000024F40040787D012DE9F84F04006ED0B8
:102B30002078DFF84C93C007A9F104054AD009F1C9
:102B400004000168C1F38101012908D00068C0F3C5
:102B5000810002280AD1D9F80000400206D5286871
:102B6000800337D560680028E1D033E06068B0F5B5
:102B7000803F10D0B0F5A02F286810D020F480300E
:102B80002860286820F4802028606068A8B1FFF7DA
:102B9000F5FD06460DE0286840F48030F4E740F487
:102BA00080202860F7E700BFFFF7E8FD801B64285E
:102BB00073D828688003F7D50CE0FFF7DFFD0646E1
:102BC00005E000BFFFF7DAFD801B6428F0D8286815
:102BD0008003F7D42078DFF8AC8280074FF0000A3A
:102BE0003ED5A748001D016811F00C0F08D0006801
:102BF000C0F3810002280BD1D9F80000400207D4AD
:102C00002868800716D5E068012800D112E033E17A
:102C1000E068B8B10120C8F80000FFF7AFFD064634
:102C200005E000BFFFF7AAFD801B0228C0D8286876
:102C30008007F7D52868216920F0F80040EAC10034
:102C400028600DE0C8F800A0FFF798FD064604E0F4
:102C5000FFF794FD801B02281FD828688007F7D44F
:102C60002078000722D5864F87486169703771B197
:102C700001210160FFF782FD064604E0FFF77EFDBB
:102C8000801B022809D838688007F7D50EE0C0F805
:102C900000A0FFF773FD064605E082E0FFF76EFD3A
:102CA000801B02287DD838688007F7D42078400739
:102CB00068D5DFF8CCB100270BF13C0BDBF8000046
:102CC000C0000BD4DBF8001041F08051CBF80010AD
:102CD000DBF80000012700F0805000906B4E306858
:102CE000C00510D4306840F480703060FFF746FDB6
:102CF000009005E0FFF742FD0099401A022850D8E5
:102D00003068C005F6D55E4EA0686C3601280FD03D
:102D10000528306810D020F001003060306820F0C5
:102D200004003060A068B8B1FFF728FD00900FE004
:102D3000306840F00100F4E740F004003060F7E74D
:102D4000FFF71CFD0099411A41F28830814266D894
:102D500030688007F4D50EE0FFF710FD009007E023
:102D6000FFF70CFD0099411A41F28830814256D894
:102D700030688007F4D42FB1DBF8001021F08051C7
:102D8000CBF80010A069C8B33D49091D0968C1F31B
:102D9000810102294AD00228504607D0C8F86000B5
:102DA00000E03CE0FFF7EAFC04463BE04746C8F899
:102DB0006000FFF7E3FC064605E000BFFFF7DEFC1E
:102DC000801B02282BD828688001F7D4D4E907019A
:102DD0000843A16A2E4A490802EB0141626A41EAAE
:102DE0008211084394F82C1040EA0161C9F80010E0
:102DF00001203866FFF7C2FC044606E03EE000BF53
:102E0000FFF7BCFC001B022809D828688001F7D511
:102E100034E000BFFFF7B2FC001B022802D90320F8
:102E2000BDE8F88F28688001F4D427E00128F7D0A6
:102E3000D9F80000E26900F4800191421CD1226AB5
:102E400000F03F01914217D147F6C071626A01401C
:102E5000B1EB821F10D1A26A4FF0FF3300F4403172
:102E600003EB5202B1EB024F06D194F82C1000F0A4
:102E70007060B0EB016F01D00120D1E70020CFE7F7
:102E80000438024000004742800E47420070004074
:102E90000000FFFF7047704710B5040003D094F89E
:102EA0003D0010B107E0012010BD002084F83C0077
:102EB000204600F01EF8022084F83D00211D206805
:102EC00001F036F8012084F8460084F83E0084F8CA
:102ED0003F0084F8400084F8410084F8420084F800
:102EE000430084F8440084F8450084F83D00002045
:102EF00010BD704790F83D10012901D001207047A6
:102F0000022180F83D100168CA6842F00102CA60DF
:102F100000681149884214D0B0F1804F11D00F4998
:102F200088420ED00E4988420BD00E49884208D004
:102F30000D49884205D00D49884202D00C4988428B
:102F400004D1816801F00701062903D0016841F02E
:102F500001010160002070470000014000040040B2
:102F600000080040000C0040000401400040014007
:102F70000018004070472DE9F04104460068C6681B
:102F800005694FF00007A90713D5B10711D5F91E40
:102F9000016101202077206880698007204602D0E7
:102FA000FFF7E8FF04E000F07EF8204600F07CF830
:102FB0002777680716D5700714D521686FF00400CD
:102FC0000861022020772068806910F4407F204645
:102FD00002D0FFF7CFFF04E000F065F8204600F0D4
:102FE00063F82777280715D5300713D521686FF0C8
:102FF00008000861042020772068C0698007204607
:1030000002D0FFF7B7FF04E000F04DF8204600F0D3
:103010004BF82777E80616D5F00614D521686FF02F
:1030200010000861082020772068C06910F4407FF4
:10303000204602D0FFF79EFF04E000F034F820465F
:1030400000F032F82777E80708D0F00706D02168AB
:103050006FF001000861204600F028F8280608D526
:10306000300606D521686FF0800008612046FFF722
:1030700011FF680608D5700606D521686FF040007C
:103080000861204600F01CF8A8060AD5B00608D54D
:1030900021686FF0200008612046BDE8F041FFF78D
:1030A000FABEBDE8F0817047704700000068034930
:1030B000884201D1FFF768BB704700000000014063
:1030C000704738B5044690F84200202801D002200D
:1030D00038BD51B14AB10120206300206063204611
:1030E00001F02EF9216B012901D0012038BD2168A2
:1030F0000A684968009121680C3151E8002F42F0BC
:10310000100241E80023002BF5D138BD0068034AC6
:10311000904202D1084601F01BBB7047004C0040B2
:1031200070470000F8B5016804460868CA684B6932
:1031300010F00F0F4FF0000559D003F0010602F414
:103140009077374365D0C10705D0D10503D5616CB1
:1031500041F001016164410705D5D90703D0616CD5
:1031600041F002016164810705D5D90703D0616C84
:1031700041F004016164010707D502F020013143E9
:1031800003D0616C41F008016164616C00293AD0A0
:10319000800604D5900602D5204600F0EAFF20689C
:1031A0004069616CC0F38010090700D460B3204609
:1031B00000F0AAFF20684069400621D5206814303D
:1031C00050E8001F21F0400140E80012002AF5D12C
:1031D000E06BA8B172490165E06BFFF752F8002877
:1031E00011D0E06B016D01B0BDE8F04008478306E7
:1031F0000FD593060DD52046BDE8F84000F0B9BFC5
:103200002046FFF78DFFF8BD2046FFF789FF656474
:10321000F8BD266B2023012E7ED1C6067CD5D606AE
:103220007AD508684868009048694FF00206400661
:103230004DD5E26B106840684FF480770004000CB5
:103240003AD0A18D814237D9E085D069B8422DD0DE
:1032500020680C3050E8001F21F4807140E8001213
:10326000002AF5D12068143050E8001F21F0010138
:1032700040E80012002AF5D12068143050E8001F01
:1032800021F0400140E80012002AF5D184F84230D4
:10329000256320680C3050E8001F21F0100140E841
:1032A0000012002AF5D1E06BFEF7A2FF6663A08D45
:1032B000E18D401A81B206E0A18D8142A8D1D0698A
:1032C000B842A5D166632046FFF720FFF8BDA08D68
:1032D000E18D401A81B2E08D0028F7D00029F5D0A9
:1032E00020680C3050E8002F22F4907240E800274C
:1032F000002FF5D12068143050E8002F22F0010291
:1033000040E80027002FF5D184F84230256320687B
:103310000C3050E8002F00E006E022F0100240E8F8
:103320000023002BF3D1CDE705062BD5150629D5B3
:1033300094F841002128C9D1A068B0F5805F01D17F
:103340002069B0B1206A411C216221680078486080
:10335000E08C401E0004000CE084B7D12068C168F6
:1033600021F08001C1602068C16841F04001C16066
:10337000F8BD206A0088C0F308004860206A801CFD
:103380002062E5E74006F3D55006F1D5CA6820462D
:1033900022F04002CA6084F8413000F06EF9F8BDB6
:1033A0000D40000870B5040004D094F841000025D9
:1033B00010B106E0012070BD84F84050204600F0B6
:1033C00023F8242084F841002068C16821F40051CA
:1033D000C160204600F02EFF2068016921F4904171
:1033E00001612068416921F02A0141612068C168BA
:1033F00041F40051C1606564202084F8410084F8E4
:1034000042006563002070BD2DE9F04387B0064699
:1034100014216846FDF7B8F84B494B48DFF824C142
:10342000356810380222032300244F054FF48069C9
:10343000654551D10D6845F400250D60096801F41A
:1034400000210591016841F00401016000686946AE
:1034500000F00400059098028DE815000820CDE9E1
:1034600003303A48FFF792F83A4D3948B846286099
:10347000C5E90174C5E903496C61AC61EC612C627A
:103480004F4628466C62FEF7DFFF08B1FEF739FDB4
:10349000F563AE632F4D2E4860353030E5E8020805
:1034A000402091C52B4845F814496030AC61EC616F
:1034B0002C626C62FEF7C8FF08B1FEF722FDB5630F
:1034C000002205213420AE63FFF7F0F93420FFF726
:1034D000DFF907B0BDE8F083DFF87CC06545F8D1BF
:1034E0000D6845F400350D60096801F4003105915F
:1034F000016841F0010101600068694600F00100C7
:1035000005900C208DE815000720CDE90330134805
:10351000FFF73CF80F4D0E48C03548302860C5E92C
:103520000174C5E903496C61AC61EC612C62284609
:103530006C62FEF789FF08B1FEF7E3FCF563AE634A
:10354000C7E70000004C004040380240000802403D
:10355000406002408C010020004400400000024016
:1035600090F84230202B01D00220704721B11AB1CF
:103570000023036300F034BF0120704710B500281A
:1035800021D00068104988421DD110480278417846
:1035900009B90F2A10D10E4B5A54491CC9B24170B7
:1035A000192909D30021417018780F2804D1187EF9
:1035B00010B9184600F09CFBBDE8104001220349F9
:1035C0000448FFF7CDBF10BD004400401C000020A0
:1035D000DC0300204401002070472DE9F843044635
:1035E00090F84100984616460D46202802D0022049
:1035F000BDE8F88385B17EB100206064212084F8A5
:103600004100FFF7BBF8A6848146E684A068202726
:10361000B0F5805F02D003E00120E9E7206910B136
:103620002E4600250EE000260CE08021204600F00A
:10363000F2FEA8B9C6B116F8010B21684860E08C0B
:10364000401EE084E08C4B464FF00002CDF8008035
:103650000028EAD14FF04001204600F0DCFE40B1E6
:1036600084F841700320C3E735F8020BC0F308006B
:10367000E3E784F841700020BAE77047FEE70000F6
:103680000F4810B50D4901600321416000214FF43E
:1036900000228160C0E903124FF4401242610176BA
:1036A00041768176C17601774177FEF7DDFC00280F
:1036B00003D0BDE81040FEF724BC10BD00640040FC
:1036C000D4000020114808B5016841F400110160E0
:1036D0000068002200F40010009005210D20FFF783
:1036E000E5F80D20FFF7D4F8002205210F20FFF7A1
:1036F000DDF80F20FFF7CCF8002205211020FFF79E
:10370000D5F8BDE808401020FFF7C2B830380240B5
:1037100010B5194A0221102001F0AAFA174C164AD6
:103720000C21A061C03A082001F0A2FA124A2060E0
:10373000A83A1021082001F09BFA0F4A6060903AE5
:1037400000210F4801F0F4FA0B4AA0606C3A002106
:103750000C4801F0EDFA084AE060483A00210A48B6
:1037600001F0E6FA044A2061243A0021074801F0FA
:10377000DFFA606110BD0000746B000800000020DB
:10378000013E0008093E0008153E0008213E0008E1
:10379000114808B5016841F080010160016801F03D
:1037A00080010091016841F001010160016801F0B0
:1037B00001010091016841F004010160016801F01C
:1037C00004010091016841F002010160006800F00D
:1037D0000200009008BD0000303802400C4810B5CF
:1037E0000A4901604FF4E1314160002181600C22FF
:1037F000C160C0E904128161C161FFF7D3FD0028F7
:1038000003D0BDE81040FEF77CBB10BD004C00406B
:10381000FC0000200E4810B50C4901600D494160C4
:103820004FF4805181604900C160C91001610C21D1
:10383000416100218161C161FFF7B4FD002803D01F
:10384000BDE81040FEF75DBB10BD00000044004025
:1038500044010020A0860100FEE7FEE7B4EEC10AA5
:10386000F1EE10FA02DDB0EE410A7047B4EEE00A64
:10387000F1EE10FAF9D2B0EE600A704710B504000C
:103880002DED028B3DD030EE608A94ED040A30EECF
:10389000080A84ED040A94ED061AF1EE410AFFF7D6
:1038A000DDFF84ED040AD4ED050ADFED1D1A38EEC4
:1038B000601AD4ED030A60EEA10ADFED1A1A41EE98
:1038C000210AC4ED030A94ED011A21EE000A94EDD9
:1038D000001A01EE080A94ED021A01EE200A94ED96
:1038E000071AF1EE410AFFF7B9FF10EE100A0E4970
:1038F00084ED058A884206DD46F2A810BDEC028BF5
:1039000010BD0020FAE710EE100A0849884201D9DC
:103910000748F3E7BDEEC00A10EE100A00B2EDE76B
:10392000CDCC4C3FCDCC4C3E0050C3460050C3C61E
:10393000589EFFFFDFED060A20EE200ADFED050AA4
:1039400080EE201ABDEEC10A10EE100A704700008A
:10395000000000460000B443022803D0042803D02E
:10396000002070470248704701484C307047000003
:10397000F40200209FED0B0ADFED0B0A022804D0B1
:10398000042804D09FED090A7047094801E008485F
:103990004C3090ED111AB8EEC11A21EE000A20EE5B
:1039A000200A70470000B443000000390000000006
:1039B000F40200209FED0B0ADFED0B0A022804D071
:1039C000042804D09FED090A7047094801E008481F
:1039D0004C3090ED101AB8EEC11A21EE000A20EE1C
:1039E000200A70470000B4430000003900000000C6
:1039F000F4020020022803D0042803D000207047DE
:103A0000024801E001484C3020307047F4020020A9
:103A100010B5084800F010F80648203000F00CF807
:103A200004484C3000F008F80248BDE810406C3003
:103A300000F002B8F4020020002807D09FED040A2D
:103A400080ED040A80ED050A80ED030A704700004E
:103A50000000000010B52DED048BB0EE418AF0EEB1
:103A6000608AB0EE409AFFF777FF002822D0B5EECB
:103A7000C09AF1EE10FA07DBF5EEC08A80ED009AED
:103A8000F1EE10FA05DA06E0F5EEC08AF1EE10FA72
:103A900013DBC0ED018AB5EEC08AF1EE10FA01DB4E
:103AA00080ED028A9FED080A80ED040A80ED050A88
:103AB00080ED030ABDEC048B10BDB5EEC08AF1EEBB
:103AC00010FAEDDAF6E700000000000010B52DED69
:103AD000048BB0EE418AF0EE608AB0EE409AFFF7B8
:103AE00089FF002822D0B5EEC09AF1EE10FA07DB6C
:103AF000F5EEC08A80ED009AF1EE10FA05DA06E0E4
:103B0000F5EEC08AF1EE10FA13DBC0ED018AB5EED6
:103B1000C08AF1EE10FA01DB80ED028A9FED080AFF
:103B200080ED040A80ED050A80ED030ABDEC048BEC
:103B300010BDB5EEC08AF1EE10FAEDDAF6E700003E
:103B400000000000024A106402F14C00016470475A
:103B5000F402002010B52DED028BB0EE408AB0EEDD
:103B6000600AFFF7E7FE0446B0EE480AFFF7E2FE00
:103B7000BDEC028B2146BDE81040FFF7E3BF00001B
:103B800070B502202DED028BFEF7C6F90446042025
:103B9000FEF7C2F90546E4B3DDB3207BC8B3287B4A
:103BA000B8B32146364800F06DF8354829464C3008
:103BB00000F068F8324890ED110AF8EEC00A90ED76
:103BC000100AB8EEC00AFFF759FE08EE100A2C489A
:103BD0004C3090ED110AF8EEC00A90ED100AB8EEE4
:103BE000C00AFFF74BFE08EE900AB4F9020000EE9F
:103BF000100A2348F8EEC00AB8EEC80A2030FFF7D2
:103C00003DFE0446B5F9020000EE100AF8EEC00AC7
:103C100000E01FE01A48B8EEE80A6C30FFF72EFE0D
:103C20000146621E4FF49570824203D904F22B12B2
:103C3000824200D800244A1E824203D901F22B128C
:103C4000824200D8002143F2D4025042944205DD62
:103C5000144606E0BDEC028B012070BD844200DA00
:103C60000446914201DD114602E0814200DA01463C
:103C7000BDEC028B2046BDE87040FEF75BB900004A
:103C8000F4020020002816D0002914D090F84A2011
:103C90004AB10A88B0F84830D21AB2F5805F0BDD1D
:103CA000A2F500520DE00988A0F84810002140F864
:103CB000441F01218171704712F5805F01DA02F51E
:103CC0000052436C1A4442640988A0F848107047B7
:103CD000B4EEC10AF1EE10FA02DDB0EE410A70470F
:103CE000B4EEE00AF1EE10FAF9D2B0EE600A7047D5
:103CF00070B50021194C0546012600BF01EB4100BB
:103D000000EBC10006EBD00300F00702E81883784F
:103D1000008863F31F40D040C0F30A0024F811006C
:103D2000491CC9B21029E9D3208800F02FF884ED8E
:103D3000090A608800F02AF884ED080AE87DC0F3DB
:103D4000800184F82910C0F3C00084F82A0084F8A8
:103D50002860FEF713FDE06270BD0000AC03002098
:103D600000487047AC03002010B5074C94F82800B9
:103D7000002806D0FEF702FDE16A401A642801D24D
:103D8000012010BD002010BDAC03002010B500EED6
:103D9000100A2DED028B9FED158A9FED131AB8EED8
:103DA000400AF0EE480AFFF793FFBCEEC00A9FED11
:103DB000101ADFED101A10EE100A80B200EE100A91
:103DC000B8EE400A30EE480ABDEC028BBDE8104068
:103DD000C0EE010A9FED081AB0EE410A10EEA10AEA
:103DE000DFED060AFFF774BF0060E24400002C43D9
:103DF00000E0CC440000B44300003443000034C36E
:103E0000012000F0C8FEFBE7FDF7D4FE052000F01E
:103E1000C2FEF9E7FDF7A2FF052000F0BCFEF9E7BE
:103E20000F4C88B000231A4604A9206800F0EEFE6B
:103E300090B99DED050A68468DED000A9DED040AD6
:103E40008DED010A9DED070A8DED020A9DED060A32
:103E50008DED030A00F0B2FC0A2000F09CFEE1E7C1
:103E60000400002010B54FF0E020006902F0C2F914
:103E7000012803D0BDE8104001F082BE10BD000053
:103E800030B593B030216846FCF77EFB14210CA8B6
:103E9000FCF77AFB1D480025016841F08051016064
:103EA000006800F0805011901948016841F4804189
:103EB00001600068022400F480401190012003900A
:103EC00010200490009406940820CDE90750A82003
:103ED000CDE9090404200B906846FEF725FE08B1E1
:103EE00072B6FEE70CA90F2081E831004FF4A05014
:103EF0000F904FF48050109005210CA8FEF708FD9C
:103F0000002801D072B6FEE713B030BD4038024041
:103F1000007000400248016841F470010160704780
:103F200088ED00E00148FFF726B80000AC02002051
:103F3000F0B50268274B284D284E294F294C4FF0E9
:103F4000804C984209D0604507D0A84205D0B042C5
:103F500003D0B84201D0A04204D122F0700E4A68CA
:103F600042EA0E0298421BD0604519D0A84217D0F1
:103F7000B04215D0B84213D0A04211D01A4DA84279
:103F80000ED01A4DA8420BD0194DA84208D0194D99
:103F9000A84205D0184DA84202D0184DA84203D11E
:103FA00022F44075CA682A434D6922F080022A43F0
:103FB0008D68C5620D688562984201D0A04201D12A
:103FC00009690163016841F0040101600121416157
:103FD0000260F0BD00000140000400400008004005
:103FE000000C00400004014000400140004401403A
:103FF0000048014000180040001C00400020004024
:104000000148FFF78FB80000FC00002010B5806B5E
:104010000021C185FFF784F810BD70B5846B20685E
:10402000406994F84110C0F3C0100025212904D143
:1040300018B1E584204600F08EF82068406994F8B5
:104040004210C0F38010222904D118B1E585204622
:1040500000F05AF8606C40F0100060642046FFF7F2
:104060005FF870BD10B50146806B096809684FF0B4
:104070000002C9052ED4C28501680C3151E8003F09
:1040800023F4807341E80034002CF5D10168143129
:1040900051E8003F23F0010341E80034002CF5D142
:1040A0000168143151E8003F23F0400341E8003437
:1040B000002CF5D1202180F84210016B012909D193
:1040C00001680C3151E8003F23F0100341E800344F
:1040D000002CF5D14263016B012902D0FFF74EFAA3
:1040E00010BD818DFFF712F810BD10B5806B012156
:1040F0004163016B012902D0FFF76EFA10BD818D7B
:104100004908FFF703F810BD01680C3151E8002F92
:1041100022F4907241E80023002BF5D1016814319C
:1041200051E8002F22F0010241E80023002BF5D1D5
:10413000016B012909D101680C3151E8002F22F0EF
:10414000100241E80023002BF5D1202180F8421015
:1041500000210163704701680C3151E8002F22F003
:10416000C00241E80023002BF5D1202180F8411046
:10417000704708B590F84210222901D0022008BDEE
:1041800082684FF480539A4201D1016921B1816A5A
:104190009A421BD04AB10AE00268816A5268C2F3AF
:1041A00008020A80816A891C08E0026972B102680B
:1041B000526802F07F020A70816A491C8162C18DD7
:1041C000491E0904090CC18503D01BE0026852682E
:1041D000F1E70168CA6822F02002CA600168CA6873
:1041E00022F48072CA6001684A6922F001024A61C1
:1041F000202180F8421000214163026B012A03D084
:10420000FFF7BCF9002008BD016301680C3151E8DB
:10421000002F22F0100241E80023002BF5D10168A5
:104220000A68D20602D50A6849680091818DFEF7B6
:104230006DFFE7E770B5044600680169E26821F4A4
:104240004051114301612169A068E2690843616935
:10425000114308432168CA6849F20C639A43024338
:10426000CA6020684169A26921F44071114341612B
:1042700031492068884202D03049884202D1FEF795
:1042800011FC01E0FEF7FEFBE26900231921642521
:104290003226B2F5004F626828D0A0FB0101930FCF
:1042A0009200FCF74FF80146B0FBF5F06FF01802F2
:1042B000504301EB800006EB0010B0FBF5F000F07E
:1042C000F002B1FBF5F002EB0012B1FBF5F06FF07C
:1042D0001803584301EB800006EB0010B0FBF5F02B
:1042E00000F00F0021681044886070BDA0FB010140
:1042F00092185B41FCF726F80146B0FBF5F002018D
:10430000B1FBF5F06FF01803584301EB800006EBAA
:10431000C000B0FBF5F000F0F80002EB4002B1FB8A
:10432000F5F0584301EB800006EBC000B0FBF5F060
:1043300000F00700D6E70000001001400014014023
:1043400038B58162044682850020134660642222CB
:1043500084F84220E56B1F4AEA63E56B1E4A2A6433
:10436000E56B1E4AEA64E26B10650A462168E06B61
:10437000091DFEF7D3F830B110206064202084F8C6
:104380004200012038BD2068016840680090206923
:1043900048B120680C3050E8001F41F4807140E8BB
:1043A0000012002AF5D12068143050E8001F41F0B7
:1043B000010140E80012002AF5D12068143050E8CD
:1043C000001F41F0400140E80012002AF5D1002012
:1043D00038BD000065400008EB4000081B400008A5
:1043E00081628285C28500214164222180F84210C9
:1043F000016921B10168CA6842F48072CA6001682B
:104400004A6942F001024A610068C16841F0200136
:10441000C160002070472DE9F843984617460D46C5
:104420000446089E24E0701C22D0FEF7A7F9A0EBFA
:104430000800B0421AD8CEB12068C168490717D524
:10444000802D15D0402D13D00168C94309070FD422
:1044500001680025406800902046FFF755FE0820BF
:10446000606484F840500120BDE8F8830320FBE736
:104470002068006835EA000004D00020B842D2D09D
:104480000020F1E70120F9E7FEE730B50B7810EEE8
:10449000102AC2540D78431C140AEC540D78831C66
:1044A000140CEC540B78C01C120E1A540878001D22
:1044B000087030BDF0B5D0B1CAB1994217D3B3B1CD
:1044C0000024C91A8DB210E0002106E06618575C7E
:1044D000865DBE4203D1491C89B29942F6D3994206
:1044E00001D12044F0BD641CA4B2A542ECD200204E
:1044F000F0BD0000074910B5054808608021FCF7B1
:1045000021F803488021BDE810408030FCF71AB83C
:10451000F503002020000020F0B50C462DED028BA5
:104520008DB0050074D0002C72D00A463D21FBF7F7
:1045300080FF06006CD0224621212846FBF779FF38
:10454000002865D0864263D2711B0F0406F1010179
:10455000A0EB01003F0C84B25AD0002C58D0DFED04
:10456000738A89B1202C0FD2224604A8FBF76BFF77
:1045700004AE0020305501A9304600F061FA0198E0
:10458000B0EE408AB04201D1B0EE688A082368A23A
:1045900039462846FFF78EFF08B1002608E00523BC
:1045A00066A239462846FFF785FF002830D001264D
:1045B0000024032F0ED328784D280BD1A8785F282C
:1045C00008D16878322802D0342802D002E00224D0
:1045D00000E0042403235BA239462846FFF76AFF64
:1045E00068B3B6B10CB1022C09D1BFEE001AFFEED0
:1045F000000AB0EE480A0220FFF72CFA0CB1042C96
:1046000006D1BFEE001AFFEE000AB0EE480A64E0E1
:1046100088E00CB1022C09D1BFEE001AFFEE000AAF
:10462000B0EE480A0220FFF751FA0CB1042C79D100
:10463000BFEE001AFFEE000AB0EE480A6AE003235C
:1046400041A239462846FFF735FF40B39EB10CB171
:10465000022C09D1BFEE001AF0EE480ABFEE000AA4
:104660000220FFF7F7F90CB1042C5BD1BFEE001A62
:10467000F0EE480A2FE00CB1022C09D1BFEE001A6F
:10468000F0EE480ABFEE000A0220FFF71FFA0CB155
:10469000042C47D1BFEE001AF0EE480A38E003239D
:1046A0002AA239462846FFF705FF00283AD0E6B18E
:1046B0000CB1022C09D1B0EE481AFFEE000ABFEE91
:1046C000000A0220FFF7C6F90CB1042C2AD1B0EE83
:1046D000481AFFEE000ABFEE000A0DB00420BDEC40
:1046E000028BBDE8F040FFF7B5B90CB1022C09D13F
:1046F000B0EE481AFFEE000ABFEE000A0220FFF7F4
:10470000E5F90CB1042C0DD1B0EE481AFFEE000A09
:10471000BFEE000A0DB00420BDEC028BBDE8F040F6
:10472000FFF7D4B90DB0BDEC028BF0BD0000000066
:1047300056656C6F6369747900000000416E676CA8
:10474000650000004B505F004B495F004B445F0029
:1047500070B500282CD017490A68002A28D0164BBB
:104760009A4204D103F180021D460A6002E0124D14
:104770000B6080350446002005E0295C00F1010053
:10478000212903D080B2A042F7D30DE00604360CF5
:104790000AD0802E08D831462846FFF7BDFEA01B60
:1047A00004043544240CE6D1BDE8704000F040B864
:1047B00070BD000020000020F503002030B587B058
:1047C000044614216846FBF7DFFE00258DF81450DF
:1047D00054B394ED000A05A96846FFF756FE94ED20
:1047E000010A05A96846FFF750FE94ED020A05A9E3
:1047F0006846FFF74AFE94ED030A05A96846FFF7ED
:1048000044FE9DF814100A230DEB01000DF8015031
:104810004570802181707F21C17014226946034850
:10482000FEF7DBFE07B030BD0120FBE7FC000020F7
:10483000064810B5016880220548FEF742FC05488D
:104840000068016821F00801016010BD200000200F
:10485000FC0000208C0100200907090E002804DB61
:1048600000F1E02080F80014704700F00F0000F124
:10487000E02080F8141D704730B52DED048B81B019
:10488000B0EE408AF0EE608A6A4651EC180B00F0F8
:1048900023F900989FED329B7E300090002821DCA8
:1048A00053EC192B51EC180B01F0CCFE1AD000215F
:1048B00040F608004FF00000044651EC180B01F0E0
:1048C0007BFE08EE100A40F6080004EA00014FF0F3
:1048D0000000B5EEC08AF1EE10FA04BF0220FBF72B
:1048E00007FF2DE00098FF2830DB002108464FF03D
:1048F000000000F4400553EC192B51EC180B02F0AA
:1049000017F88CBF002401240220FBF7F1FE9FED75
:10491000168A4DB1002C0CBF4FF400004FF48000FC
:10492000A84218BF9FED118A042108464FF00000ED
:10493000002C01BFB1EE480A01B0BDEC048B30BDC4
:10494000B0EE480A01B0BDEC048B30BD51EC180B41
:1049500001F032FE01B000EE100ABDEC048B30BD58
:1049600000000000000000000000807FFFFF7F7F4C
:1049700030B540F2FF742DED048BF0EE608A18EE36
:10498000901A85B0B0EE408A9FED2B9B05468DEDC9
:10499000008B34EA115147D053EC192B51EC180B12
:1049A00001F050FE40D02A4651EC180B02F035F8C9
:1049B00041EC180B18EE900A8DED008B34EA105084
:1049C0001CD053EC192B51EC180B01F03BFE2BD1F2
:1049D0000220FBF78DFE00F053F810EE901A18EE4F
:1049E000900A8DED020B8DED008B61F31E0003909C
:1049F0009DED020B05B0BDEC048B30BD0220FBF732
:104A000077FE00F02DF810EE901A18EE900A8DED5A
:104A1000020B8DED008B61F31E0003909DED020BE8
:104A200005B0BDEC048B30BD05B0B0EE480AF0EE29
:104A3000680ABDEC048B30BD0000000000000000DF
:104A400008B59FED060A0A4601468DED000A684644
:104A5000FBF7C4FD9DED000A08BD0000000000004A
:104A60009FED050B10B553EC102B51EC100B01F022
:104A700061FE41EC100B10BD000000000000007052
:104A80009FED050B10B553EC102B51EC100B01F002
:104A900051FE41EC100B10BD0000000000000010A2
:104AA00010B5044691ED000BFFF7E6FE84ED000A19
:104AB00010BD10B5044690ED000B0846FFF758FFF7
:104AC00084ED000B10BD30380A2801D20120704758
:104AD000002070470000000010B582B01446CDE9F8
:104AE00000010023009A2360194B21F000409842F6
:104AF0002ADA024328D0B0F5801FA8BF226810DA56
:104B00009FED150B53EC102B9DED000B51EC100B92
:104B100001F010FECDE900016FF0350221F00040F8
:104B200022600F4B6FF31E5103EB205010442060A6
:104B300041F0FF5040F0005001909DED000B00BF90
:104B400002B051EC100B10BD9DED000BF8E700001A
:104B50000000F07F00000000000000000000504353
:104B600002FCFFFFFDF718FEFFF78AF9FEF710FEC3
:104B7000FEF7A8FDFEF784FDFEF730FEFEF74AFEC5
:104B800000F016F8FEF7C4FDFFF7B4FCFFF750FE87
:104B900000F020F8FEE710B5EFF3058111B16FF0DA
:104BA000050403E0002408B100F08AFE204610BD91
:104BB000EFF3058010B16FF00500704704480168FD
:104BC00011B14FF0FF3070470121016000207047A4
:104BD000A400002010B5EFF3058010B16FF00500C0
:104BE00010BD08480168012902D04FF0FF3010BD08
:104BF000054A002182F8141D0221016000F0C8FE60
:104C0000002010BDA40000200BE000E0F8B51D4618
:104C10006FF003026FF002064FF00004EFF305831C
:104C2000A3B1F0B1E9B1E5B9002200926A4601F002
:104C300001FA012817D10098B0B10C494FF080500B
:104C40000860BFF34F8FBFF36F8F0DE048B141B1E4
:104C50002A4601F053F9012806D025B16FF001046E
:104C600002E0144600E034462046F8BD04ED00E0C2
:104C7000F8B514464FF00005EFF3058212BB08B3F8
:104C800001B3A4B1D4E9023263B1502A1AD3226924
:104C9000C2B1676900FB01F6B74213D3009500F07B
:104CA000A6FF07E072B9226962B9626952B90022AF
:104CB00000F07CFF050005D00CB1216800E0002168
:104CC00000F0C8FD2846F8BDF8B51D466FF0030298
:104CD0006FF002064FF00004EFF30583ABB100B3B1
:104CE000F9B1F5B90022134600926A4601F0A6F820
:104CF000012818D10098B8B10C494FF080500860D5
:104D0000BFF34F8FBFF36F8F0EE050B149B1002357
:104D10002A4600F0E3FF012806D025B16FF0010418
:104D200002E0144600E034462046F8BD04ED00E001
:104D30002DE9FF414FEA01034FF00005EFF3058134
:104D4000039549BB40B38027182100244AB3166855
:104D500006B1344696691EB13146761E382E02D20F
:104D60001679F60703D0002004B0BDE8F08156693B
:104D700006B1B708D2F808C0BCF1000F0DD0D56855
:104D80005C2D18D312693AB136B18DE806103A4657
:104D9000214601F004FA03900DE0D6685EB912696D
:104DA0004AB903AACDE90012BAB2214601F0CAF904
:104DB000012800D003950398D6E700002DE9F041C3
:104DC000134C0F460546E6682068001D00F044FCC1
:104DD000681C07D137B12168BDE8F0410D48091DB5
:104DE00000F08ABC20683544B5424560216805D290
:104DF000A06BBDE8F041091D00F066BC606B091DA9
:104E000000F062FCA06A854200D2A562BDE8F08194
:104E100054000020E80900202DE9F041054600F08B
:104E200077FC2D4CA068401CA06020682B4F10B16F
:104E3000606930B32BE02560A068012827D10026E7
:104E400006EB860007EB800000F030FC761C382E65
:104E5000F6D3234800F02AFC2148143000F026FC49
:104E60001F48283000F022FC1D483C3000F01EFC9A
:104E70001B48503000F01AFC194860631430A063DE
:104E800005E02068E96AC06A884200D82560606A47
:104E9000401C60626864E86A2169884200D9206128
:104EA00000EB800007EB8000291D00F025FC00F0DE
:104EB0004FFC606900280CD02068E96AC06A88420B
:104EC00007D208494FF080500860BFF34F8FBFF3FF
:104ED0006F8FBDE8F08100005400002038050020ED
:104EE0009809002004ED00E038B500F011FC104CEA
:104EF0002068C8B90F4800F0D9FB0E48143000F004
:104F0000D5FB0C48E060143020610A4B0020F03BD8
:104F1000009003F1500210210A2000F068FE20608A
:104F200010B105A100F096FCBDE8384000F010BCBF
:104F300090000020EC0A0020546D72510000000027
:104F400030B4026C0B46002A0BD0C1681144C1601A
:104F50008468A14201D30168C16030BC1846FBF7E8
:104F600072BA30BC70472DE9F041856B1746044694
:104F70000026026C82B1C7B1E068FBF764FAE16811
:104F8000206C091AE1602268914202D2A168081AD5
:104F9000E060022F16D017E02068A8B9A06801F0E1
:104FA000A1F906460020A0600EE06068FBF74BFA0E
:104FB000216C606808446060A168884204D320685E
:104FC000606001E005B16D1E6D1CA5633046BDE853
:104FD000F08110B5044690F8590058B101280CD062
:104FE00002280FD0502080F31188BFF34F8FBFF3FA
:104FF0006F8FFEE7206B00F0BFFB2046BDE810403E
:1050000000F0BABB10BD000010484FF470514207C9
:1050100006D0C01D0D4920F00700411AC1F570519E
:105020000B4A00230144C2E900030839183A21F071
:10503000070111604B600B600B1AC0E9001393600D
:105040004FF000405360506170470000CC110020C9
:10505000C0000020144E154CA6F29C474FF080581B
:10506000DFF84C9012E000BF00F052FBF068C5681A
:10507000281D00F0F1FAA068401EA0606068401E84
:10508000606000F065FB2846FFF7A3FF606800281A
:10509000EAD138680128F9D9C9F80080BFF34F8FE9
:1050A000BFF36F8FF2E70000D40900205400002006
:1050B00004ED00E070B51D46049C51B1C4F8002019
:1050C000C4E90F010121204600F0C4FD84F84C50D2
:1050D00070BD2460F4E700002DE9F05F8846DDE94B
:1050E0000B941546834691009A460A9EA522206B92
:1050F000FBF720FA6FF00301206B01EB85010844F8
:1051000020F00707780707D0502080F31188BFF3FD
:105110004F8FBFF36F8FFEE70025B8F1000F0FD060
:105120005FF00000221818F8001082F8341018F808
:10513000001011B1401C1028F4D384F8435001E052
:1051400084F83450382E00D33726E662C4E913655C
:10515000201D00F0B6FA04F1180000F0B2FA246144
:10516000C6F138006462A061656584F85850524603
:105170005946384600F05AFA2060B9F1000F01D0C4
:10518000C9F80040BDE8F09F30B5114900E0114674
:105190000A688242FBD34B685C18844203D14068A2
:1051A00018444860084643681C18944209D1084CCA
:1051B000183C2468A24209D052681A4442600A6826
:1051C00012680260814200D0086030BD0460F9E7D7
:1051D000C000002070B5002441600B4D0061914279
:1051E00006D8D11A8269914206D2011D286907E0CA
:1051F0009A4203D2994201D3012403E0011DE868D9
:1052000000F062FA204670BD9000002010B5044600
:1052100000F07EFAA06B28B15FF0000400F098FA6D
:10522000204610BD0124F9E730B589B03C4D6EE051
:105230000498002806DADDE90601059A90470498EB
:10524000002864DB069C606910B1201D00F004FAA0
:1052500003A800F0D7F8024604980A2857D2DFE8DE
:1052600000F00505052D334A05052D3394F8280077
:1052700040F0010084F828000599A069059B0144CD
:105280002046FFF7A7FF68B3216A2046884794F8B5
:10529000280040073BD5002000900598A169002315
:1052A00042181946204601F027F9D8B9502080F35A
:1052B0001188BFF34F8FBFF36F8FFEE714F8280FED
:1052C00020F00100207022E094F8280040F0010056
:1052D00084F828000598A06128B18118134620465B
:1052E000FFF778FF13E0502080F31188BFF34F8F52
:1052F000BFF36F8FFEE794F82800810703D42046A0
:1053000000F03AFA03E020F0010084F828000022BF
:1053100004A9286800F0F2FD002889D109B030BD49
:10532000900000202DE9FC410F46054600F074FB7B
:1053300001A800F067F80446019818B101F04AF896
:10534000BDE8FC81254EAFB130690068D0B30027BD
:10535000291B3A46306800F091FA01F03BF800282A
:10536000EED11F494FF080500860BFF34F8FBFF35D
:105370006F8FE5E7A542EBD801F02CF8F0682746DF
:10538000C068C468201D00F067F994F82800410740
:1053900019D5A0692B4641193A462046FFF71AFF56
:1053A000A8B100200346014600902A46204601F09D
:1053B000A3F860B9502080F31188BFF34F8FBFF37B
:1053C0006F8FFEE707E020F0010084F82800216AD3
:1053D00020468847B4E70127BAE700009000002084
:1053E00004ED00E00648416B096829B1416BC968CA
:1053F000C9684968816270474FF0FF31FAE70000E1
:105400005400002070B5054600F002FF064E044629
:10541000B068844203D200F009F8012000E00020C7
:1054200028602046B46070BD90000020F8B5194D8A
:1054300020E0C068C4680668201D00F00DF9216AEC
:105440002046884794F82800400713D5A0693044C7
:10545000B04206D924616060211DE86800F034F98B
:1054600008E000200346014600903246204601F045
:1054700043F838B1E86801680029DAD12969C5E93B
:105480000310F8BD502080F31188BFF34F8FBFF396
:105490006F8FFEE79000002008484068401C4FF0E6
:1054A000500080F3118804D0BFF34F8FBFF36F8F8C
:1054B000FEE7BFF34F8FBFF36F8FFEE7C8000020FA
:1054C000074CE068016841B1C0680021D0F80000D5
:1054D000FFF728FFFFF7A8FEF3E701210020F7E719
:1054E000900000202DE9F041044600F011F994F9F4
:1054F000455004F1240609E0606A48B1304600F0E6
:1055000031FF08B100F00AFA6D1E6DB2002DF3DC18
:105510004FF0FF3684F8456000F01AF900F0F8F813
:1055200094F9445004F1100709E0206948B1384665
:1055300000F018FF08B100F0F1F96D1E6DB2002DFA
:10554000F3DC84F84460BDE8F04100F001B90000EC
:105550002DE9F0410546002700F05EFA324E306832
:1055600008B9FFF751FD706905424ED1C5B3083542
:1055700068070ED005F00700C0F108000544680771
:1055800007D0502080F31188BFF34F8FBFF36F8F88
:10559000FEE72DB37068854237D82348183001469E
:1055A0000C6801E020460C466168A94202D22168DD
:1055B0000029F7D131688C4227D007682168016043
:1055C00060680837411B10290FD96019420708D0BD
:1055D000502080F31188BFF34F8FBFF36F8FFEE72A
:1055E00013E041606560FFF7CFFD61687068401AA5
:1055F0007060B268904200D2B060706901430020D0
:10560000C4E90001F068401CF06000F0E3FE780798
:1056100007D0502080F31188BFF34F8FBFF36F8FF7
:10562000FEE73846BDE8F081A800002010B5031F52
:105630004FF080741C601B1F21F001011960191FBD
:10564000044B0B6014390A60091F6FF002024438E2
:105650000A6010BD99540008D0E9013201699A60CE
:10566000D0E901235A604A68824201D182684A60C7
:10567000002202610868401E086008687047000048
:10568000034B036003F15C000860802010607047EA
:10569000140B0020044B036003F15C0008604FF41E
:1056A0008070106070470000700D002000F108014C
:1056B0004FF0FF32C0E90112C160016100210160B9
:1056C000704700210161704730B50B685A1C02D049
:1056D00000F1080202E0026904E0224654682568ED
:1056E0009D42FAD953684B6099608A6051600861A5
:1056F0000168491C016030BD42684A6093688B6054
:1057000093685960916008610168491C01607047A5
:10571000502080F31188BFF34F8FBFF36F8F0A497A
:105720004868401C486001280CD10848006810F007
:10573000FF0F07D0502080F31188BFF34F8FBFF3C6
:105740006F8FFEE770470000C800002004ED00E006
:105750000849486828B1401E486001D180F311888B
:105760007047502080F31188BFF34F8FBFF36F8FC6
:10577000FEE70000C800002070B500282AD0164DB2
:10578000A0F1080460686969084207D1502080F3DD
:105790001188BFF34F8FBFF36F8FFEE722683AB1D6
:1057A000502080F31188BFF34F8FBFF36F8FFEE758
:1057B0008843606000F030F9606869680844686098
:1057C0002046FFF7E1FC2869401C2861BDE87040D5
:1057D00000F000BE70BD0000A80000204FF0E020E7
:1057E00000210161816105494FF47A720968B1FBBA
:1057F000F2F1491E4161072101617047500000200C
:1058000010B5FAF77BFD114910280ED300F1E02006
:1058100090F8F0030A78904207D2502080F3118864
:10582000BFF34F8FBFF36F8FFEE7094800688968A9
:1058300000F4E060884207D9502080F31188BFF35C
:105840004F8FBFF36F8FFEE710BD0000C800002030
:105850000CED00E010B5084B002200BF53F83240B9
:105860001CB1521C082AF9D310BD43F8321003EBC7
:10587000C201486010BD0000F804002070B5154654
:105880000E460446FFF744FF94F944100020491CDB
:1058900001D184F8440094F94510491C01D184F8E1
:1058A0004500FFF755FFA06B28B92A46314604F1A1
:1058B000240000F051F82046BDE87040FFF712BE0A
:1058C00010B5020014D00F48006B38B1502080F39F
:1058D0001188BFF34F8FBFF36F8FFEE700F09CF886
:1058E00000211046FFF76AFA00F074FD002807D186
:1058F00005494FF080500860BFF34F8FBFF36F8FA3
:1059000010BD00005400002004ED00E002490A6AC6
:105910000260C968416070475400002001490120BD
:10592000C86170475400002010B50C4650B10949B9
:1059300009681831FFF7C8FE2046BDE81040012174
:10594000FFF73CBA502080F31188BFF34F8FBFF3AD
:105950006F8FFEE75400002070B514460D4668B105
:105960000A4909681831FFF7C7FE0CB14FF0FF353F
:1059700021462846BDE87040FFF720BA502080F34A
:105980001188BFF34F8FBFF36F8FFEE754000020E5
:1059900030B587B00024039405AA04A903A8049491
:1059A000FFF76EFEDDE903010094CDE9011000234D
:1059B00015A11748059A00F0F2FB164D0028E86281
:1059C0001FD000F069FD012809D0401C19D15020DA
:1059D00080F31188BFF34F8FBFF36F8FFEE7502026
:1059E00080F31188BFF34F8FBFF36F8F4FF0FF30FD
:1059F000A86201206861EC6007B0BDE8304000F0AB
:105A000045B807B030BD000049444C4500000000D7
:105A100055500008540000200248016B491C0163E6
:105A20007047000054000020164810B5016B11B1FA
:105A30000121C16110BD0021C1610169124A01E06B
:105A4000B9B1491E01EB810352F82330002BF7D086
:105A500001EB810302EB830202F1080453685B68E7
:105A60005360A34201D15B685360DA680260016150
:105A700010BD502080F31188BFF34F8FBFF36F8F9D
:105A8000FEE7000054000020380500201CB5374810
:105A90000168374A914207D1502080F31188BFF343
:105AA0004F8FBFF36F8FFEE700683149491E884270
:105AB00007D1502080F31188BFF34F8FBFF36F8F52
:105AC000FEE72C4908780190FF20087008788DF8CF
:105AD00000009DF800009DF8002000F0F0009042CA
