:020000040800F2
:1000000028530020E90200080329000847270008B8
:1000100001290008450A0008DD330008000000003F
:10002000000000000000000000000000290200089D
:10003000F50A00080000000085020008552F00089E
:100040000303000803030008030300080303000878
:100050000303000803030008030300080303000868
:100060000303000803030008030300080303000858
:1000700003030008550A000803030008610A00088A
:100080006D0A0008030300080303000803030008C7
:10009000490A0008030300080303000803030008DB
:1000A00003030008153000080303000803030008D9
:1000B0000303000803030008030300080303000808
:1000C00003030008030300080303000803030008F8
:1000D0000303000803030008D133000803030008EA
:1000E00003030008030300080303000803030008D8
:1000F00003030008030300080303000803030008C8
:1001000003030008030300080303000803030008B7
:10011000F13000080303000803030008030300088C
:100120000303000803030008030300080303000897
:1001300003030008000000000000000003030008A3
:100140000303000803030008030300080303000877
:100150000303000803030008030300080303000867
:100160000303000803030008030300080303000857
:100170000303000803030008000000000000000063
:10018000030300080303000800F002F800F03CF845
:100190000AA090E8000C82448344AAF10107DA45E2
:1001A00001D100F031F8AFF2090EBAE80F0013F0F8
:1001B000010F18BFFB1A43F001031847304E00002F
:1001C000504E0000103A24BF78C878C1FAD85207C0
:1001D00024BF30C830C144BF04680C6070470000C1
:1001E0000023002400250026103A28BF78C1FBD840
:1001F000520728BF30C148BF0B6070471FB504F0DD
:1002000051FE1FBD10B510BD00F0D0F91146FFF72B
:10021000F5FF03F045F900F0EEF903B4FFF7F2FF44
:1002200003BC00F0F5F900002C4B19680868B0E831
:10023000F04F80F30988BFF36F8F4FF0000080F319
:10024000118870470000000008480068006880F3CB
:1002500008884FF0000080F3148862B661B6BFF3DF
:100260004F8FBFF36F8F00DF00BF00BF08ED00E0CE
:10027000DFF80C00016841F470010160704700BFB5
:1002800088ED00E0EFF30980BFF36F8F134B1A681E
:100290001EF0100F08BF20ED108A20E9F04F10600B
:1002A00009B44FF0500080F31188BFF34F8FBFF3B4
:1002B0006F8F04F05BF84FF0000080F3118809BCE9
:1002C00019680868B0E8F04F1EF0100F08BFB0ECD6
:1002D000108A80F30988BFF36F8F70474C000020AD
:1002E000EFF3058070470000094880470948004740
:1002F000FEE7FEE7FEE7FEE7FEE7FEE7FEE7FEE7D6
:10030000FEE7FEE704480549054A064B7047000032
:100310000530000889010008284D002028530020DE
:10032000284F0020284F002053EA020C00F069807B
:100330002DE9F04B4FF00006002B1FBFB3FA83F5F9
:1003400003FA05F424FA05F65E4012BF1643B2FA2A
:1003500082F502FA05F4C5F120051EBF22FA05FC5C
:1003600044EA0C04203556EA044C4FEA144418BF02
:10037000641C4FF000084FF00009904271EB030C31
:1003800039D3002919BFB1FA81F701FA07F6B0FA9B
:1003900080F700FA07F6C7F120071EBF20FA07FC16
:1003A00046EA0C062037B6FBF4FCA7EB0507103F26
:1003B00007F01F0BCBF120060CFA0BFB2CFA06F60C
:1003C00044BFB3460026202FA4BF5E464FF0000B6B
:1003D0005BEA060C08BF4FF0010B19EB0B09ABFBF6
:1003E000027C48EB0608C01B06FB02CC0BFB03CCCF
:1003F00071EB0C01C1E70B46024641464846BDE899
:10040000F08B13B54FF000004FF00001AFF3008008
:10041000BDE81C407047032A40F2308010F0030C06
:1004200000F0158011F8013BBCF1020F624498BF47
:1004300011F801CB00F8013B38BF11F8013BA2F1E4
:10044000040298BF00F801CB38BF00F8013B11F05F
:10045000030300F02580083AC0F0088051F8043BFF
:10046000083A51F804CBA0E80810F5E7121D5CBF6C
:1004700051F8043B40F8043BAFF30080D20724BF9F
:1004800011F8013B11F801CB48BF11F8012B24BF33
:1004900000F8013B00F801CB48BF00F8012B704782
:1004A00010B5203AC0F00B80B1E81850203AA0E80F
:1004B0001850B1E81850A0E81850BFF4F5AF5FEA43
:1004C000027C24BFB1E81850A0E8185044BF18C9F6
:1004D00018C0BDE810405FEA827C24BF51F8043B9D
:1004E00040F8043B08BF7047D20728BF31F8023BF1
:1004F00048BF11F8012B28BF20F8023B48BF00F885
:10050000012B704702F0FF0343EA032242EA024252
:1005100000F02CB84FF0000200B513469446964602
:10052000203922BFA0E80C50A0E80C50B1F1200106
:10053000BFF4F7AF090728BFA0E80C5048BF0CC0B4
:100540005DF804EB890028BF40F8042B08BF704712
:1005500048BF20F8022B11F0804F18BF00F8012B84
:1005600070477047704770474FF000020429C0F091
:10057000128010F0030C3FF4CFAFCCF1040CBCF1AF
:10058000020F18BF00F8012BA8BF20F8022BA1EB27
:100590000C01FFF7C1BF5FEAC17C24BF00F8012B4B
:1005A00000F8012B48BF00F8012B7047754600F09A
:1005B0002BF8AE4605006946534620F007008546F5
:1005C00018B020B5FFF79EFEBDE820404FF00006B2
:1005D0004FF000074FF000084FF0000B21F007012B
:1005E000AC46ACE8C009ACE8C009ACE8C009ACE86E
:1005F000C0098D46704710B50446AFF30080204611
:10060000BDE81040FFF709BE00487047C44C002009
:1006100001491820ABBEFEE726000200704700002B
:1006200010B51E4A2DED028B135C8B421FD0115466
:10063000A2F11204B3EE0E8A30B101280DD00228C7
:1006400018D0032813D119E0B0EE600A00F076F953
:1006500094ED070A30EE080A07E0B0EE600A00F0F9
:100660006DF994ED070A30EE480A84ED070ABDECF7
:10067000028B10BD022908D00029F8D100F046F9FC
:1006800094ED060A30EE480A05E000F03FF994EDDB
:10069000060A30EE080A84ED060AE8E72E0000207C
:1006A00070B5040038D01D4D21886088EA8802F1B9
:1006B0003C0399422ED83C3191422BD3298901F138
:1006C0003C02904226D83C30884223D3A08900F0D7
:1006D00027F80646688900F023F886421AD1E08997
:1006E00000F01EF80646A88900F01AF8864211D1DB
:1006F000208A00F01DF80646E88900F019F88642C5
:1007000008D1608A00F00CF80446288A00F008F846
:10071000844201D0012070BD002070BD1C0000206B
:1007200040F2DF31884201D9012070470020704734
:1007300040F267610322B1FBF2F140F6CE43B3FB16
:10074000F2F2AC31AC3289B292B2884201D80020C8
:100750007047904201D3022070470120704700008B
:1007600070B504468089FFF7DBFF144D2870E089DF
:10077000FFF7D6FF6870208AFFF7DAFFA870608A5B
:10078000FFF7CEFFE8709FED0E0AA5F112000021E1
:1007900080ED060A80ED070A8170C1702188C18052
:1007A00061880181A1894181E1898181218AC18199
:1007B000618A01820121417070BD00002E0000207D
:1007C00000000000F0B52DED048B8FB003ADEFF30A
:1007D000108472B602F00EFB010003D030222846CE
:1007E000FFF75EFE04B962B602F016FB9FED448A85
:1007F0000126444F444C002528B19DF8350010B91E
:100800009DF8360070B18DED008A8DED018A8DF86E
:1008100008602570657084ED068A84ED078AA570EE
:10082000E57055E08DF808509DED0C9ADDED0B8AD2
:10083000A570E570207938B103A8FFF731FFE0B368
:10084000257103A8FFF78CFF2078B8B36078A8B3B0
:10085000BDF81800FFF764FF0146F0EE680AB0EE3D
:10086000490A0020FFF7DCFEBDF81A00FFF758FF29
:100870000146F0EE680AB0EE490A0120FFF7D0FE0B
:10088000BDF81C00FFF754FF0146F0EE680AB0EE19
:10089000490A0220FFF7C4FEBDF81E00FFF740FF23
:1008A0000146F0EE680AB0EE490A0320FFF7B8FEF1
:1008B00094ED060A39EE000A01E013E017E08DED31
:1008C000000A94ED070A38EE800A8DED010A2670C1
:1008D00000231A466946386802F098FE0FB0BDEC56
:1008E000048BF0BD8DED008A8DED018AEFE703A842
:1008F000FFF736FF8DED009ACDED018AE7E70000A6
:1009000000000000100000201C00002010B50A4C60
:100910002DED028BB0EE408AA078002808D102208D
:1009200002F06EF830EE480A012084ED060AA0704D
:10093000BDEC028B10BD00001C00002010B50A4C5D
:100940002DED028BB0EE408AE078002808D104201B
:1009500002F056F830EE480A012084ED070AE070F4
:10096000BDEC028B10BD00001C00002030B500253E
:100970002DED028B87B02F4C10E000BFDDED050A96
:100980009DED040A02F030F99DF8180030B1012500
:1009900002F0ECF80021084600F004F900231A46A2
:1009A00004A9206802F0D4FD0028E7D0234C9FED75
:1009B000228A75B18DED008A022002F021F88DEDBA
:1009C000010A8DED028A042002F01AF88DED030A67
:1009D00026E002F01FF930B102F0C8F80021084605
:1009E00000F0E0F8E6E7022002F02AF88DED000AB8
:1009F000022002F005F88DED010A042002F020F833
:100A00008DED020A042001F0FBFF0D488DED030A75
:100A1000417929B18DED008A8DED028A0021417165
:100A200000231A466946206802F0F0FD07B0BDECCD
:100A3000028B30BD100000200000000014000020D8
:100A40001C000020FEE70000014800F058BA00003A
:100A5000CC000020014800F0EDBC00008401002023
:100A6000014800F0E7BC0000E4010020014800F06C
:100A7000E1BC00004402002001681823CAB2103A09
:100A8000B2FBF3F2054B6FF30901032A9B5CC365CC
:100A900000D9091D8165084670470000704F0008A5
:100AA00010B5014600208B698A6A4FF0C07453B1BB
:100AB000B3F5005F15D072B1012A0CD0022A0AD01A
:100AC000032A09D104E01AB1012A06D0022A03D16F
:100AD000C96AC90100D5012010BDC96AA142FAD076
:100AE00010BD002AF7D0012AF2D0022AF3D0032A3F
:100AF000F3D010BD704772B6FEE7000010B58AB0A3
:100B000028216846FFF706FD00200124CDE90604F0
:100B1000059044F2C001CDE900104FF6E071CDE937
:100B2000021004900E20CDE908406946104800F0FC
:100B3000E5F808B1FFF7DFFF4FF48240059400901D
:100B400069460B4800F0DAF808B1FFF7D4FF08480F
:100B500000F0E2FB08B1FFF7CEFF0221044800F0ED
:100B600053F8002801D0FFF7C6FF0AB010BD0000FF
:100B7000CC00002046F2A811884202DC494288429B
:100B800000DA084670470000022803D0042803D08A
:100B9000002070470248704701481030704700003D
:100BA0008403002070B58AB00E46054618216846B9
:100BB000FFF7B0FC00240694079428460894FFF73A
:100BC000D9FF05463046FFF7D5FF40F2FF11CDE9CA
:100BD000001408210294CDE90341290A8DF81A1066
:100BE000010A8DF81E108DF81F008DF814408DF845
:100BF0001B5008AB06AA6946024800F017F80AB075
:100C000070BD0000CC00002090F82020012A07D001
:100C1000022A05D0416A41F48021416201207047D7
:100C2000006842690A43426100207047F0B590F8BD
:100C300020500468A468012D05D0022D03D0416A1C
:100C400041F4802157E014F0406F01D1E5004FD509
:100C5000C4F301640125A5401D608D684FF4C07385
:100C60009DB1CE6835434E6845EAC605066803EB7C
:100C70000417F5514FF4C275076805EB04150E69AA
:100C80007E51097D012905D009E00E88CD6845EA2D
:100C90004655EBE701684E5946F480764E5111797E
:100CA000D579567941EA056195792D0445EA0625FD
:100CB00029434FF4C676056806EB0416A95111784E
:100CC000D57841EA0561957852782D0445EA0222EB
:100CD00011434FF4C475026805EB041551510068C7
:100CE00003EB0411425842F0010242500020F0BDD3
:100CF000416A41F4001141620120F0BD10B590F845
:100D00002020012A07D0022A05D0416A41F480211F
:100D10004162012010BD3B48D0F8002242F00102A0
:100D2000C0F80022D0F8002222F47C52C0F8002241
:100D3000D0F800224B6A42EA0322C0F800220A7D62
:100D400002F01F0301229A40D0F81C329343C0F8EE
:100D50001C32CB69B3B9D0F80C329343C0F80C32D3
:100D60008C894B6864F31F434C6900EBC404C4F8DE
:100D700040320C890B6864F31F434C6900EBC404D8
:100D8000C4F84432CB69012B16D1D0F80C3213438E
:100D9000C0F80C320C884B6864F31F434C6900EBBD
:100DA000C404C4F840320C89CB6864F31F434C6917
:100DB00000EBC404C4F844328B69002BD0F8043231
:100DC0000ED01343C0F804320B69002BD0F8143254
:100DD00008D01343C0F81432096A012904D008E08E
:100DE0009343EFE79343F5E7D0F81C121143C0F8A3
:100DF0001C12D0F8001221F00101C0F800120020EE
:100E000010BD000000640040704770B590F82040AD
:100E1000012C05D0022C03D0416A41F4802128E046
:100E2000046809B32469A40720D04FF4D874056876
:100E300004EB01142D5915F00405956005682D5932
:100E40001AD0ED08556005682C5904F00204D460EE
:100E50004FF4DA74056804EB01142E5906F00F06FE
:100E6000082E0CD308250DE0E468DCE7416A41F464
:100E700000114162012070BD6D0D1560E3E72D5931
:100E800005F00F05156105682D59C5F30725956116
:100E900005682C59240C54614FF4DC72046802EB91
:100EA0000112A4581C700468A458240A5C700468D9
:100EB000A458240C9C700468A258120EDA704FF4E7
:100EC000DE72046802EB0112A4581C710468A45875
:100ED000240A5C710468A458240C9C710468A2580C
:100EE000120EDA71006829B1016941F02001016137
:100EF000002070BDC16841F02001C160F8E72DE914
:100F0000F05F0546006800244669D0F804908768C1
:100F1000D0F80CB0D0F810A0D0F81880F10748D065
:100F2000F90714D001218160B80703D5284600F0E5
:100F300020FA0CE0780702D54FF4006407E0380788
:100F400002D54FF4805402E0284600F011FAF8056B
:100F500016D529684FF480708860B80503D52846F7
:100F600000F009FA0CE0780502D544F4005407E0DB
:100F7000380502D544F4804402E0284600F0FAF92E
:100F8000F80316D529684FF480308860B80303D57C
:100F9000284600F0F2F90CE0780302D544F400444E
:100FA00007E0380302D544F4803402E0284600F01C
:100FB000E3F9300707D55FEACB6004D52968102034
:100FC00044F40074C86070074FF0080707D55FEA63
:100FD0000B7004D52868C760284600F059F9B0079F
:100FE00006D52868C068800702D0284600F052F96C
:100FF000700607D55FEACA6004D52968102044F45A
:1010000080640861B00607D55FEA0A7004D52868D5
:101010000761284600F07CF9F00606D528680069CB
:10102000800702D0284600F074F9B00308D55FEAC3
:10103000C96005D5296810204860284600F06AF983
:10104000F00307D55FEA097004D528684760284691
:1010500000F094F9300446D55FEA497040D5F005B8
:1010600004D55FEAC87001D044F00104B00504D58E
:101070005FEA887001D544F00204700504D55FEA88
:10108000487001D544F00404300529D518F0700FDC
:1010900026D008F07000402815D006DC102809D0B2
:1010A00020280AD0302816D10AE050280ED0602817
:1010B00011D10EE044F008040DE044F010040AE001
:1010C00044F0200407E044F0400404E044F08004CD
:1010D00001E044F480742868816921F07001816125
:1010E000296804204860002C05D0686A20436862A3
:1010F0002846FFF789FEBDE8F09F70B5040003D0D5
:1011000094F8200010B104E0012070BD204600F0EA
:1011100081F82068016841F00101016000F0BCFB2A
:101120000546052604E000F0B7FB401B0A2811D84D
:1011300020684068C007F6D02068016821F00201ED
:10114000016000F0A9FB05460BE000F0A5FB401B89
:101150000A2806D9606A40F40030606284F8206092
:10116000D2E7206840688007EFD4207E01282068FD
:1011700001683DD021F080010160607E0128206877
:10118000016838D021F040010160A07E012820686C
:10119000016833D021F020010160E07E0128206841
:1011A00001682ED041F010010160207F01282068E5
:1011B000016829D021F008010160607F01282068C2
:1011C000016824D021F004010160D4E90201084340
:1011D000D4E90412114308436168491E0843216899
:1011E000C86100206062012084F82000002070BDEA
:1011F00041F08001C0E741F04001C5E741F0200126
:10120000CAE721F01001CFE741F00801D4E741F02F
:101210000401D9E710B586B0044614216846FFF7EB
:1012200079F918492068884229D1174800210268B5
:1012300042F000720260006800F0007005901248F1
:101240001038026842F001020260006800F00100FC
:1012500005904FF4C05000900220CDE90101032019
:101260000390092004906946084800F01DFA002206
:101270000521142000F0A8FB142000F097FB06B015
:1012800010BD0000006400404038024000000240F1
:101290007047000010B58AB004461C216846FFF76D
:1012A00039F900200790089017492068884226D114
:1012B00007AB6A4600212046FFF7A7FD00281ED194
:1012C0000098A0F5007106391BD0B0F5027F16D149
:1012D0000E4C002C13D0BDF81C0040BA2080BDF885
:1012E0001E0040BA6080BDF8200040BAA0809DF882
:1012F0002200A07100F0D0FAA060012020730AB093
:1013000010BD024C103CE4E7006400409403002050
:10131000704770477047000070B5044690F8200091
:10132000012804D0606A40F40020606218E00220C6
:1013300084F820002068016821F00101016000F0BC
:10134000ABFA05460EE000BF00F0A6FA401B0A28E3
:1013500008D9606A40F400306062052084F82000FB
:10136000012070BD20684068C007EDD1606270BD8B
:1013700070477047704770477047704770472DE956
:10138000F0410446876D00F087FA064694F8350070
:101390000025022806D08020606584F834500120A2
:1013A000BDE8F0812068016821F016010160206825
:1013B000416921F080014161206C08B9A06C20B125
:1013C0002068016821F0080101602068016821F0AF
:1013D000010101600CE000F05FFA801B052807D9CD
:1013E00020206065032084F8350084F83450D7E766
:1013F00020680068C007EED194F85C103F20884058
:10140000B860012084F8350084F834500020C7E724
:1014100090F83510022903D08021416501207047E2
:10142000052180F835100068016821F00101016094
:10143000002070472DE9F84304464FF00009CDF82D
:10144000009063484FF41651A56D0068B0FBF1F7AA
:101450002E6894F85C10082000FA01F131420FD098
:1014600021680A6852070BD50A6822F004020A6054
:1014700094F85C108840A860606D40F001006065E1
:1014800094F85C104FF0010808FA01F0304208D0DF
:1014900021684969090604D5A860606D40F0020022
:1014A000606594F85C1004208840304208D02168C0
:1014B0000968890704D5A860606D40F00400606584
:1014C00094F85C1010208840304218D021680968D8
:1014D000090714D5A86020680168490304D500688D
:1014E000000308D5A16C07E00168C90503D40168B1
:1014F00021F008010160216C09B12046884794F869
:101500005C1020208840304231D021680968C9062B
:101510002DD5A86094F8350005282068016806D00C
:10152000490347D5006800031DD4616C1CE021F01D
:10153000160101602068416921F080014161206C41
:1015400008B9A06C20B12068016821F00801016091
:1015500094F85C103F208840A86084F8358084F8B7
:101560003490216D1FE0E16B09B120468847606D22
:1015700000282BD0606DC00714D0052084F83500FA
:101580002068016821F0010101600098401C009072
:10159000B84203D820680068C007F6D184F83580C7
:1015A00084F83490E16C002910D001B02046BDE8E9
:1015B000F04308470168C905D5D4016821F010013E
:1015C000016084F8358084F83490CCE7BDE8F88376
:1015D000480000202DE9F041044600F05DF9064680
:1015E0005CB1022084F83500002584F8345020686E
:1015F000016821F0010101600DE00120BDE8F081EA
:1016000000F04AF9801B052805D9202060650320D9
:1016100084F83500F2E720680068C007F0D122683E
:10162000116820480140D4E901031843D4E9033686
:101630003343184363691843A3691843E3691843A4
:10164000236A18430843616A042903D1D4E90B13C0
:1016500019430843106020684069666A20F007015A
:1016600030460E43012704280CD1A06A0643E06AE5
:1016700040B12046FFF714FA20B14020606584F89D
:101680003570BAE7206846612046FFF7F5F994F80F
:101690005C203F2191408160656584F835700020B1
:1016A000ACE700003F8010F02DE9F84FDFF8BCA157
:1016B0000022012503264FF00F090AF1040BAAF1BD
:1016C000040E00BF0B6805FA02F42340A34270D158
:1016D0000F7907F00307012F01D0022F16D1876879
:1016E0004FEA420806FA08FC27EA0C07D1F80CC0BA
:1016F0000CFA08FC4CEA070CC0F808C04768A7437E
:101700000C79C4F3001494403C4344600C79E443E6
:10171000A4070AD0C4684FEA420C06FA0CF7BC438F
:101720008F6807FA0CF72743C7600C7904F00304AD
:10173000022C12D1D40800EB840CDCF820405707AF
:10174000FF0E09FA07F824EA0804D1F8108008FA15
:1017500007F848EA0408CCF8208004684FEA420CF5
:1017600006FA0CF7BC430F7907F0030707FA0CF7EA
:10177000274307604C6814F4403F70D03C4C276806
:1017800047F480472760246822F0030704F480446C
:101790000094384C07EB040CDCF8084897074FEA34
:1017A000177809FA08F7BC43334FB84202D1002733
:1017B00024E054E0314FB84201D101271EE0304F00
:1017C000B84201D1022719E02E4FB84201D10327B8
:1017D00014E02D4FB84201D104270FE02B4FB8423F
:1017E00001D105270AE02A4FB84201D1062705E0BA
:1017F000284FB84201D1072700E0082707FA08F769
:101800002743CCF80878DAF800405746D1F804C0EE
:101810009C435FEACC2C00D51C433C60DBF80040C5
:101820005F46D1F804C09C435FEA8C2C00D51C4372
:101830003C60DEF800407746D1F804C09C435FEA84
:101840008C3C00D51C433C60084F083F3C68D1F8F5
:1018500004C09C435FEACC3C00D51C433C60521C56
:10186000102AFFF42FAFBDE8F88F0000083C0140BC
:1018700044380240003001400000024000040240B1
:1018800000080240000C0240001002400014024018
:1018900000180240001C02400148806870470000A8
:1018A0003C00002002488168027811448160704742
:1018B0003C0000200B4810B5016841F40071016044
:1018C000016841F480610160016841F48071016048
:1018D000032000F099F80F2000F006F800F04AF815
:1018E000002010BD003C024030B505461C4887B0C2
:1018F0000024016841F001010160006806A900F0C0
:101900000100009001A800F02BF900F059F91549E9
:101910004000B0FBF1F11548134A491E026040F245
:10192000E732C0E90324C0E90114846100F042FBFE
:10193000040012D10D4800F06BFB04000DD11920FA
:1019400000F034F8102D07D200222946192000F0AB
:101950003BF80748056000E0012407B0204630BD91
:101960004438024040420F0000000140A402002021
:10197000400000200C4882B0016841F480410160C1
:10198000006800F4804000900748001F016841F0A3
:10199000805101600068002200F0805000900F210B
:1019A000901E02B000F010B844380240002809DB55
:1019B00000F01F02012191404009800000F1E02069
:1019C000C0F8001170470000F0B40E4B1B680C46C5
:1019D000C3F30223C3F10705042D00D90425191D03
:1019E000072901D2002300E0DB1E012606FA05F1DB
:1019F000491E214099409E40761E16403143F0BC5E
:101A000001F03EBD0CED00E0064900F00702086859
:101A10004FF6FF03184040EA0220034A10430860D3
:101A2000704700000CED00E00000FA052DE9F047DA
:101A30000E46050065D0DFF81481D8F80000F7B233
:101A400000F00700B04207D288F80070D8F8000014
:101A500000F00700B04254D128683D4C810712D5F0
:101A6000400703D5206840F4E05020602878000744
:101A700003D5206840F4604020602068A96820F009
:101A8000F000084320602878C0072DD030496868EE
:101A90000839012812D0022813D0032811D0096870
:101AA000890700292DDA216821F003010143216013
:101AB000FFF7F2FE814641F2883A0EE00968890399
:101AC000EFE709688901ECE7FFF7E6FEA0EB090103
:101AD000514502D90320BDE8F0872068696800F00D
:101AE0000C00B0EB810FEFD1D8F80010404601F0A8
:101AF0000701B14207D90770006800F00700B04243
:101B000001D00120E7E72878400705D52068E9687B
:101B100020F4E050084320602878000706D52068AC
:101B2000296920F4604040EAC100206000F058F8C4
:101B30002168084AC1F30311515CC8400649086096
:101B400006480068FFF7D0FE0020C4E7003C0240D2
:101B500008380240784F000848000020400000206C
:101B60000F2202600C4A136803F0030343601368FA
:101B700003F0F0038360136803F4E053C36012685A
:101B80004FF4E05303EAD20202610448006800F017
:101B9000070008607047000008380240003C02401F
:101BA0000448054900680968044AC1F38221515C70
:101BB000C84070474800002008380240884F00089D
:101BC0000448054900680968044AC1F34231515C80
:101BD000C84070474800002008380240884F00087D
:101BE000154810B5006810F00C02144813D01449C1
:101BF000042A0FD0082A0ED10F4C241F2268236814
:101C000002F03F025B0207D52068C0F38810A0FBFA
:101C1000010106E0084610BD2168C1F38811A1FB4F
:101C200000010023FEF780FB2168C1F30141491C3C
:101C30004900B0FBF1F010BD083802400024F40068
:101C400040787D012DE9F84F04006ED02078DFF850
:101C50004C93C007A9F104054AD009F104000168BA
:101C6000C1F38101012908D00068C0F38100022876
:101C70000AD1D9F80000400206D52868800337D57C
:101C800060680028E1D033E06068B0F5803F10D094
:101C9000B0F5A02F286810D020F480302860286884
:101CA00020F4802028606068A8B1FFF7F5FD0646A3
:101CB0000DE0286840F48030F4E740F4802028608C
:101CC000F7E700BFFFF7E8FD801B642873D828689A
:101CD0008003F7D50CE0FFF7DFFD064605E000BF07
:101CE000FFF7DAFD801B6428F0D828688003F7D45A
:101CF0002078DFF8AC8280074FF0000A3ED5A74875
:101D0000001D016811F00C0F08D00068C0F38100BD
:101D100002280BD1D9F80000400207D428688007B8
:101D200016D5E068012800D112E033E1E068B8B1CF
:101D30000120C8F80000FFF7AFFD064605E000BF30
:101D4000FFF7AAFD801B0228C0D828688007F7D5B6
:101D50002868216920F0F80040EAC10028600DE001
:101D6000C8F800A0FFF798FD064604E0FFF794FDD1
:101D7000801B02281FD828688007F7D42078000726
:101D800022D5864F87486169703771B101210160A2
:101D9000FFF782FD064604E0FFF77EFD801B022868
:101DA00009D838688007F7D50EE0C0F800A0FFF723
:101DB00073FD064605E082E0FFF76EFD801B0228FA
:101DC0007DD838688007F7D42078400768D5DFF8D9
:101DD000CCB100270BF13C0BDBF80000C0000BD4AA
:101DE000DBF8001041F08051CBF80010DBF8000068
:101DF000012700F0805000906B4E3068C00510D471
:101E0000306840F480703060FFF746FD009005E0D8
:101E1000FFF742FD0099401A022850D83068C005EB
:101E2000F6D55E4EA0686C3601280FD005283068C4
:101E300010D020F001003060306820F004003060E5
:101E4000A068B8B1FFF728FD00900FE0306840F0BF
:101E50000100F4E740F004003060F7E7FFF71CFDF5
:101E60000099411A41F28830814266D83068800773
:101E7000F4D50EE0FFF710FD009007E0FFF70CFD32
:101E80000099411A41F28830814256D83068800763
:101E9000F4D42FB1DBF8001021F08051CBF8001002
:101EA000A069C8B33D49091D0968C1F38101022930
:101EB0004AD00228504607D0C8F8600000E03CE055
:101EC000FFF7EAFC04463BE04746C8F86000FFF72E
:101ED000E3FC064605E000BFFFF7DEFC801B02289E
:101EE0002BD828688001F7D4D4E907010843A16AF8
:101EF0002E4A490802EB0141626A41EA8211084315
:101F000094F82C1040EA0161C9F8001001203866ED
:101F1000FFF7C2FC044606E03EE000BFFFF7BCFC52
:101F2000001B022809D828688001F7D534E000BFDB
:101F3000FFF7B2FC001B022802D90320BDE8F88F8E
:101F400028688001F4D427E00128F7D0D9F80000F0
:101F5000E26900F4800191421CD1226A00F03F0145
:101F6000914217D147F6C071626A0140B1EB821FFE
:101F700010D1A26A4FF0FF3300F4403103EB52025C
:101F8000B1EB024F06D194F82C1000F07060B0EB6A
:101F9000016F01D00120D1E70020CFE704380240D3
:101FA00000004742800E4742007000400000FFFFE3
:101FB0007047704710B5040003D094F83D0010B18D
:101FC00007E0012010BD002084F83C00204600F00E
:101FD0001EF8022084F83D00211D206801F020F841
:101FE000012084F8460084F83E0084F83F0084F81D
:101FF000400084F8410084F8420084F8430084F8EB
:10200000440084F8450084F83D00002010BD70476E
:1020100090F83D10012901D001207047022180F87D
:102020003D100168CA6842F00102CA6000681149A7
:10203000884214D0B0F1804F11D00F4988420ED0A1
:102040000E4988420BD00E49884208D00D4988427B
:1020500005D00D49884202D00C49884204D18168DC
:1020600001F00701062903D0016841F00101016078
:1020700000207047000001400004004000080040BC
:10208000000C0040000401400040014000180040E6
:1020900070472DE9F04104460068C66805694FF0B5
:1020A0000007A90713D5B10711D5F91E0161012059
:1020B0002077206880698007204602D0FFF7E8FF7C
:1020C00004E000F07EF8204600F07CF827776807EF
:1020D00016D5700714D521686FF00400086102203E
:1020E00020772068806910F4407F204602D0FFF7F7
:1020F000CFFF04E000F065F8204600F063F8277792
:10210000280715D5300713D521686FF0080008613E
:10211000042020772068C0698007204602D0FFF79E
:10212000B7FF04E000F04DF8204600F04BF82777A9
:10213000E80616D5F00614D521686FF01000086186
:10214000082020772068C06910F4407F204602D024
:10215000FFF79EFF04E000F034F8204600F032F86C
:102160002777E80708D0F00706D021686FF0010054
:102170000861204600F028F8280608D5300606D564
:1021800021686FF0800008612046FFF711FF6806A4
:1021900008D5700606D521686FF04000086120461A
:1021A00000F01CF8A8060AD5B00608D521686FF023
:1021B000200008612046BDE8F041FFF7FABEBDE807
:1021C000F08170477047000000680349884201D1E0
:1021D000FFF768BB70470000000001407047704780
:1021E00070470000F8B5016804460868CA684B6982
:1021F00010F00F0F4FF0000559D003F0010602F464
:102200009077374365D0C10705D0D10503D5616C00
:1022100041F001016164410705D5D90703D0616C24
:1022200041F002016164810705D5D90703D0616CD3
:1022300041F004016164010707D502F02001314338
:1022400003D0616C41F008016164616C00293AD0EF
:10225000800604D5900602D5204600F07DFF206858
:102260004069616CC0F38010090700D460B3204658
:1022700000F04BFF20684069400621D520681430EB
:1022800050E8001F21F0400140E80012002AF5D17B
:10229000E06BA8B172490165E06BFFF7B9F800285F
:1022A00011D0E06B016D01B0BDE8F0400847830636
:1022B0000FD593060DD52046BDE8F84000F04CBF81
:1022C0002046FFF78DFFF8BD2046FFF789FF6564C4
:1022D000F8BD266B2023012E7ED1C6067CD5D606FE
:1022E0007AD508684868009048694FF002064006B1
:1022F0004DD5E26B106840684FF480770004000C05
:102300003AD0A18D814237D9E085D069B8422DD02D
:1023100020680C3050E8001F21F4807140E8001262
:10232000002AF5D12068143050E8001F21F0010187
:1023300040E80012002AF5D12068143050E8001F50
:1023400021F0400140E80012002AF5D184F8423023
:10235000256320680C3050E8001F21F0100140E890
:102360000012002AF5D1E06BFFF709F86663A08D33
:10237000E18D401A81B206E0A18D8142A8D1D069D9
:10238000B842A5D166632046FFF729FFF8BDA08DAE
:10239000E18D401A81B2E08D0028F7D00029F5D0F8
:1023A00020680C3050E8002F22F4907240E800279B
:1023B000002FF5D12068143050E8002F22F00102E0
:1023C00040E80027002FF5D184F8423025632068CB
:1023D0000C3050E8002F00E006E022F0100240E848
:1023E0000023002BF3D1CDE705062BD5150629D503
:1023F00094F841002128C9D1A068B0F5805F01D1CF
:102400002069B0B1206A411C2162216800784860CF
:10241000E08C401E0004000CE084B7D12068C16845
:1024200021F08001C1602068C16841F04001C160B5
:10243000F8BD206A0088C0F308004860206A801C4C
:102440002062E5E74006F3D55006F1D5CA6820467C
:1024500022F04002CA6084F8413000F073F9F8BD00
:10246000FD30000870B5040004D094F84100002548
:1024700010B106E0012070BD84F84050204600F005
:1024800023F8242084F841002068C16821F4005119
:10249000C160204600F0C2FE2068016921F490412D
:1024A00001612068416921F02A0141612068C16809
:1024B00041F40051C1606564202084F8410084F833
:1024C00042006563002070BD2DE9F04387B00646E9
:1024D00014216846FEF71EF84E494E48DFF830C119
:1024E000356810380222032300244F054FF4806919
:1024F00065454DD10D6845F400250D60096801F46E
:1025000000210591016841F00401016000686946FD
:1025100000F00400059098028DE815000820CDE930
:1025200003303D48FFF7C0F83D4D3C48B8462860B1
:10253000C5E90174C5E903496C61AC61EC612C62C9
:102540004F4628466C62FFF745F808B1FEF7D3FA0C
:10255000F563AE63324D314860353030E5E802084E
:10256000402091C52E4845F814496030AC61EC61BB
:102570002C626C62FFF72EF808B1FEF7BCFAB56367
:10258000002205213420AE63FFF71EFA342039E023
:10259000DFF890C0654537D10D6845F400350D6012
:1025A000096801F400310591016841F00101016001
:1025B0000068694600F0010005900C208DE81500C8
:1025C0000720CDE903301848FFF76EF8144D134883
:1025D000C03548302860C5E90174C5E903496C611C
:1025E000AC61EC612C6228466C62FEF7F3FF08B127
:1025F000FEF781FAF563002205212620AE63FFF77E
:10260000E3F92620FFF7D2F907B0BDE8F083000018
:10261000004C004040380240000802404060024048
:1026200084010020004400400000024090F8423045
:10263000202B01D00220704721B11AB1002303637F
:1026400000F072BE0120704710B5002821D000684C
:10265000104988421DD110480278417809B90F2AE3
:1026600010D10E4B5A54491CC9B24170192909D3D3
:102670000021417018780F2804D1187E10B918462F
:1026800000F080FBBDE81040012203490448FFF739
:10269000CDBF10BD0044004018000020D40300202E
:1026A0003C0100202DE9F843044690F8410098468B
:1026B00016460D46202802D00220BDE8F88385B1D9
:1026C0007EB100206064212084F84100FFF7E4F827
:1026D000A6848146E684A0682027B0F5805F02D0FA
:1026E00003E00120E9E7206910B12E4600250EE045
:1026F00000260CE08021204600F031FEA8B9C6B1CA
:1027000016F8010B21684860E08C401EE084E08CE4
:102710004B464FF00002CDF800800028EAD14FF080
:102720004001204600F01BFE40B184F841700320B8
:10273000C3E735F8020BC0F30800E3E784F8417003
:102740000020BAE77047FEE70F4810B50D49016059
:102750000321416000214FF400228160C0E903128F
:102760004FF440124261017641768176C17601775D
:102770004177FEF7C2FC002803D0BDE81040FEF709
:10278000BAB910BD00640040CC000020114808B563
:10279000016841F4001101600068002200F400109B
:1027A000009005210D20FFF70FF90D20FFF7FEF82F
:1027B000002205210F20FFF707F90F20FFF7F6F899
:1027C000002205211020FFF7FFF8BDE80840102087
:1027D000FFF7ECB83038024010B5154A0C21102034
:1027E00000F0E8FE134C124A10212061183208460E
:1027F00000F0E0FE0E4A6061903A00210E4800F0C1
:1028000039FF0B4A20606C3A00210C4800F032FF7F
:10281000074A6060483A0021094800F02BFF044A4B
:10282000A060243A0021074800F024FFE06010BDBA
:10283000404F000800000020F12E0008F92E00088B
:10284000052F0008112F00080D4808B5016841F058
:1028500080010160016801F080010091016841F090
:1028600001010160016801F001010091016841F07E
:1028700004010160006800F00400009008BD000041
:10288000303802400C4810B50A4901604FF4E1317C
:102890004160002181600C22C160C0E904128161A5
:1028A000C161FFF7DFFD002803D0BDE81040FEF74F
:1028B00022B910BD004C0040F40000200E4810B5B5
:1028C0000C4901600D4941604FF48051816049001D
:1028D000C160C91001610421416100218161C161B0
:1028E000FFF7C0FD002803D0BDE81040FEF703B994
:1028F00010BD0000004400403C010020A086010003
:10290000FEE7FEE7B4EEC10AF1EE10FA02DDB0EE2A
:10291000410A7047B4EEE00AF1EE10FAF9D2B0EED7
:10292000600A704710B504002DED028B3DD030EEEB
:10293000608A94ED040A30EE080A84ED040A94EDEE
:10294000061AF1EE410AFFF7DDFF84ED040AD4ED2B
:10295000050ADFED1D1A38EE601AD4ED030A60EEA9
:10296000A10ADFED1A1A41EE210AC4ED030A94ED23
:10297000011A21EE000A94ED001A01EE080A94ED06
:10298000021A01EE200A94ED071AF1EE410AFFF750
:10299000B9FF10EE100A0E4984ED058A884206DD63
:1029A00046F2A810BDEC028B10BD0020FAE710EE35
:1029B000100A0849884201D90748F3E7BDEEC00A6A
:1029C00010EE100A00B2EDE7CDCC4C3FCDCC4C3E22
:1029D0000050C3460050C3C6589EFFFFDFED060AF5
:1029E00020EE200ADFED050A80EE201ABDEEC10AB6
:1029F00010EE100A70470000000000460000B443CB
:102A00009FED0B0ADFED0B0A022804D0042804D046
:102A10009FED090A7047094801E008484C3090EDE5
:102A2000111AB8EEC11A21EE000A20EE200A7047F2
:102A30000000B4430000003900000000EC02002058
:102A40009FED0B0ADFED0B0A022804D0042804D006
:102A50009FED090A7047094801E008484C3090EDA5
:102A6000101AB8EEC11A21EE000A20EE200A7047B3
:102A70000000B4430000003900000000EC02002018
:102A800010B59FED281ADFED280AB0EE080A2DEDEB
:102A9000048B9FED228ADFED228A2448B0EE482A7B
:102AA000F0EE681A00F04EF89FED219ADFED219AC2
:102AB0001E48B0EE492AF0EE691AB7EE001ADFEDB3
:102AC0001E0AB1EE040A203000F03CF81748B0EEC0
:102AD000482AF0EE681AB6EE081ADFED180AB0EED2
:102AE0000C0A4C3000F02EF81048B0EE492AF0EEF7
:102AF000691AB7EE081ADFED120AB0EE000A6C3060
:102B000000F020F8094800F045F8BDEC048B0748B8
:102B1000BDE810404C3000F03DB8000000007A45A0
:102B200000409C4500000C428FC2F53CEC020020A6
:102B30000050C3460080BB45000000000AD7A33DFB
:102B40000AD7A33C00280DD080EC030A9FED060AAB
:102B500080ED030A80ED040A80ED050AC0ED061A37
:102B600080ED072A704700000000000010B50848FB
:102B700000F024F80648203000F020F804484C30DB
:102B800000F01CF80248BDE810406C3000F016B8A8
:102B9000EC02002010B504000FD000202064606417
:102BA000A4F8480084F84A00204600F007F804F131
:102BB0002000BDE8104000F001B810BD002807D08B
:102BC0009FED040A80ED040A80ED050A80ED030AFA
:102BD0007047000000000000024A106402F14C003F
:102BE00001647047EC02002010B52DED028BB0EEB1
:102BF000408AB0EE600AFFF7F1FE0446B0EE480AE4
:102C0000FFF7ECFEBDEC028B2146BDE81040FFF75C
:102C1000E3BF000070B502202DED028BFDF7B4FF7D
:102C200004460420FDF7B0FF0546E4B3DDB3207B86
:102C3000C8B3287BB8B32146364800F06DF8354854
:102C400029464C3000F068F8324890ED110AF8EE51
:102C5000C00A90ED100AB8EEC00AFFF763FE08EE56
:102C6000100A2C484C3090ED110AF8EEC00A90ED95
:102C7000100AB8EEC00AFFF755FE08EE900AB4F944
:102C8000020000EE100A2348F8EEC00AB8EEC80AA7
:102C90002030FFF747FE0446B5F9020000EE100AA7
:102CA000F8EEC00A00E01FE01A48B8EEE80A6C30FF
:102CB000FFF738FE0146621E4FF49570824203D939
:102CC00004F22B12824200D800244A1E824203D909
:102CD00001F22B12824200D8002143F2D40250426A
:102CE000944205DD144606E0BDEC028B012070BD68
:102CF000844200DA0446914201DD114602E081423D
:102D000000DA0146BDEC028B2046BDE87040FDF7BD
:102D100049BF0000EC020020002816D0002914D082
:102D200090F84A204AB10A88B0F84830D21AB2F571
:102D3000805F0BDDA2F500520DE00988A0F8481075
:102D4000002140F8441F01218171704712F5805F16
:102D500001DA02F50052436C1A4442640988A0F873
:102D600048107047B4EEC10AF1EE10FA02DDB0EE81
:102D7000410A7047B4EEE00AF1EE10FAF9D2B0EE73
:102D8000600A704770B50021194C0546012600BF46
:102D900001EB410000EBC10006EBD00300F007029D
:102DA000E8188378008863F31F40D040C0F30A001E
:102DB00024F81100491CC9B21029E9D3208800F079
:102DC0003DF884ED090A608800F038F884ED080ABF
:102DD000E87DC0F3800184F82910C0F3C00084F8B6
:102DE0002A0084F82860FEF757FDE06270BD0000FD
:102DF000A403002000487047A403002010B500F091
:102E000057F8BDE81040012201490248FFF70EBC07
:102E1000180000203C01002010B5074C94F8280051
:102E2000002806D0FEF738FDE16A401A642801D276
:102E3000012010BD002010BDA403002010B500EE3D
:102E4000100A2DED028B9FED158A9FED131AB8EE37
:102E5000400AF0EE480AFFF785FFBCEEC00A9FED7E
:102E6000101ADFED101A10EE100A80B200EE100AF0
:102E7000B8EE400A30EE480ABDEC028BBDE81040C7
:102E8000C0EE010A9FED081AB0EE410A10EEA10A49
:102E9000DFED060AFFF766BF0060E24400002C4346
:102EA00000E0CC440000B44300003443000034C3CD
:102EB00000210C480A4600BF20F81120491CC9B265
:102EC0001029F9D39FED080A80ED080A80ED090A60
:102ED00080F8282080F8292080F82A20C262034840
:102EE00042707047A403002000000000180000207A
:102EF000012000F0F2FAFBE7FDF764FC052000F08A
:102F0000ECFAF9E7FDF732FD052000F0E6FAF9E703
:102F10000F4C88B000231A4604A9206800F018FB63
:102F200090B99DED050A68468DED000A9DED040AF5
:102F30008DED010A9DED070A8DED020A9DED060A51
:102F40008DED030A00F062FA0A2000F0C6FAE1E70C
:102F50001400002010B54FF0E020006901F0ECFDF6
:102F6000012803D0BDE8104001F0ACBA10BD00004C
:102F700030B593B030216846FDF7CCFA14210CA887
:102F8000FDF7C8FA1D480025016841F08051016035
:102F9000006800F0805011901948016841F48041A8
:102FA00001600068022400F4804011900120039029
:102FB00010200490009406940820CDE90750A82022
:102FC000CDE9090404200B906846FEF73BFE08B1EA
:102FD00072B6FEE70CA90F2081E831004FF4A05033
:102FE0000F904FF48050109005210CA8FEF71EFDA5
:102FF000002801D072B6FEE713B030BD4038024061
:10300000007000400248016841F47001016070479F
:1030100088ED00E00148FFF73CB80000A402002062
:10302000F0B50268274B284D284E294F294C4FF008
:10303000804C984209D0604507D0A84205D0B042E4
:1030400003D0B84201D0A04204D122F0700E4A68E9
:1030500042EA0E0298421BD0604519D0A84217D010
:10306000B04215D0B84213D0A04211D01A4DA84298
:103070000ED01A4DA8420BD0194DA84208D0194DB8
:10308000A84205D0184DA84202D0184DA84203D13D
:1030900022F44075CA682A434D6922F080022A430F
:1030A0008D68C5620D688562984201D0A04201D149
:1030B00009690163016841F0040101600121416176
:1030C0000260F0BD00000140000400400008004024
:1030D000000C004000040140004001400044014059
:1030E0000048014000180040001C00400020004043
:1030F0000148FFF777B80000F400002010B5806B9E
:103100000021C185FFF76CF810BD01680C3151E852
:10311000002F22F4907241E80023002BF5D10168C2
:10312000143151E8002F22F0010241E80023002B66
:10313000F5D1016B012909D101680C3151E8002F4B
:1031400022F0100241E80023002BF5D1202180F865
:10315000421000210163704708B590F842102229FF
:1031600001D0022008BD82684FF480539A4201D1F9
:10317000016921B1816A9A421BD04AB10AE0026812
:10318000816A5268C2F308020A80816A891C08E0D9
:10319000026972B10268526802F07F020A70816AA5
:1031A000491C8162C18D491E0904090CC18503D0E7
:1031B0001BE002685268F1E70168CA6822F0200249
:1031C000CA600168CA6822F48072CA6001684A69EC
:1031D00022F001024A61202180F84210002141635F
:1031E000026B012A03D0FFF72FFA002008BD01630C
:1031F00001680C3151E8002F22F0100241E8002351
:10320000002BF5D101680A68D20602D50A68496820
:103210000091818DFEF7E3FFE7E7000070B50446FB
:1032200000680169E26821F440511143016121699C
:10323000A068E26908436169114308432168CA68CC
:1032400049F20C639A430243CA6020684169A2694B
:1032500021F440711143416131492068884202D014
:103260003049884202D1FEF7ABFC01E0FEF798FC42
:10327000E2690023192164253226B2F5004F626805
:1032800028D0A0FB0101930F9200FDF74DF80146F5
:10329000B0FBF5F06FF01802504301EB800006EB35
:1032A0000010B0FBF5F000F0F002B1FBF5F002EB1E
:1032B0000012B1FBF5F06FF01803584301EB8000EA
:1032C00006EB0010B0FBF5F000F00F002168104491
:1032D000886070BDA0FB010192185B41FDF724F8E6
:1032E0000146B0FBF5F00201B1FBF5F06FF01803F9
:1032F000584301EB800006EBC000B0FBF5F000F096
:10330000F80002EB4002B1FBF5F0584301EB8000FE
:1033100006EBC000B0FBF5F000F00700D6E70000B8
:10332000001001400014014081628285C2850021A5
:103330004164222180F84210016921B10168CA6804
:1033400042F48072CA6001684A6942F001024A612F
:103350000068C16841F02001C160002070472DE97C
:10336000F843984617460D460446089E24E0701C14
:1033700022D0FEF791FAA0EB0800B0421AD8CEB1E5
:103380002068C168490717D5802D15D0402D13D06E
:103390000168C94309070FD40168002540680090FF
:1033A0002046FFF7B2FE0820606484F840500120F8
:1033B000BDE8F8830320FBE72068006835EA0000D9
:1033C00004D00020B842D2D00020F1E70120F9E774
:1033D0000148FEF707BF00003C010020FEE730B5C2
:1033E0000B7810EE102AC2540D78431C140AEC54CA
:1033F0000D78831C140CEC540B78C01C120E1A545C
:103400000878001D087030BD7047000030B587B0E7
:10341000044614216846FDF77DF800258DF8145008
:1034200054B394ED000A05A96846FFF7D8FF94ED60
:10343000010A05A96846FFF7D2FF94ED020A05A923
:103440006846FFF7CCFF94ED030A05A96846FFF72D
:10345000C6FF9DF814100A230DEB01000DF8015072
:103460004570802181707F21C17014226946034814
:10347000FFF718F907B030BD0120FBE7F40000208A
:103480000907090E002804DB00F1E02080F8001491
:10349000704700F00F0000F1E02080F8141D704725
:1034A000FEF708FAFFF764FDFFF7CEF9FFF76EF9B4
:1034B000FFF74AF9FDF722FBFFF7E2FAFFF7E2F91F
:1034C000FFF7FCF9FFF79AFCFFF79EFF00F012F8F8
:1034D000FFF782F900F020F8FEE710B5EFF3058161
:1034E00011B16FF0050403E0002408B100F08AFE7A
:1034F000204610BDEFF3058010B16FF00500704756
:103500000448016811B14FF0FF307047012101609C
:10351000002070479C00002010B5EFF3058010B12B
:103520006FF0050010BD08480168012902D04FF076
:10353000FF3010BD054A002182F8141D02210160F0
:1035400000F0C8FE002010BD9C0000200BE000E051
:10355000F8B51D466FF003026FF002064FF000044D
:10356000EFF30583A3B1F0B1E9B1E5B90022009210
:103570006A4601F001FA012817D10098B0B10C4950
:103580004FF080500860BFF34F8FBFF36F8F0DE097
:1035900048B141B12A4601F053F9012806D025B1BE
:1035A0006FF0010402E0144600E034462046F8BD06
:1035B00004ED00E0F8B514464FF00005EFF3058286
:1035C00012BB08B301B3A4B1D4E9023263B1502AEB
:1035D0001AD32269C2B1676900FB01F6B74213D35F
:1035E000009500F0A6FF07E072B9226962B962692E
:1035F00052B9002200F07CFF050005D00CB1216813
:1036000000E0002100F0C8FD2846F8BDF8B51D46D1
:103610006FF003026FF002064FF00004EFF3058332
:10362000ABB100B3F9B1F5B90022134600926A4676
:1036300001F0A6F8012818D10098B8B10C494FF054
:1036400080500860BFF34F8FBFF36F8F0EE050B113
:1036500049B100232A4600F0E3FF012806D025B136
:103660006FF0010402E0144600E034462046F8BD45
:1036700004ED00E02DE9FF414FEA01034FF00005A2
:10368000EFF30581039549BB40B38027182100243F
:103690004AB3166806B1344696691EB13146761EA5
:1036A000382E02D21679F60703D0002004B0BDE808
:1036B000F081566906B1B708D2F808C0BCF1000F16
:1036C0000DD0D5685C2D18D312693AB136B18DE8AA
:1036D00006103A46214601F004FA03900DE0D66840
:1036E0005EB912694AB903AACDE90012BAB22146FD
:1036F00001F0CAF9012800D003950398D6E700002D
:103700002DE9F041134C0F460546E6682068001D80
:1037100000F044FC681C07D137B12168BDE8F041D6
:103720000D48091D00F08ABC20683544B54245604B
:10373000216805D2A06BBDE8F041091D00F066BC10
:10374000606B091D00F062FCA06A854200D2A56290
:10375000BDE8F0814C000020E00800202DE9F04198
:10376000054600F077FC2D4CA068401CA060206846
:103770002B4F10B1606930B32BE02560A0680128A1
:1037800027D1002606EB860007EB800000F030FC16
:10379000761C382EF6D3234800F02AFC214814303A
:1037A00000F026FC1F48283000F022FC1D483C3069
:1037B00000F01EFC1B48503000F01AFC19486063F2
:1037C0001430A06305E02068E96AC06A884200D826
:1037D0002560606A401C60626864E86A216988420A
:1037E00000D9206100EB800007EB8000291D00F06C
:1037F00025FC00F04FFC606900280CD02068E96AC5
:10380000C06A884207D208494FF080500860BFF371
:103810004F8FBFF36F8FBDE8F08100004C00002098
:10382000300400209008002004ED00E038B500F0DE
:1038300011FC104C2068C8B90F4800F0D9FB0E48A5
:10384000143000F0D5FB0C48E060143020610A4BC6
:103850000020F03B009003F1500210210A2000F0FC
:1038600068FE206010B105A100F096FCBDE838406C
:1038700000F010BC88000020E4090020546D725153
:103880000000000030B4026C0B46002A0BD0C16867
:103890001144C1608468A14201D30168C16030BC99
:1038A0001846FCF7B8BD30BC70472DE9F041856B78
:1038B000174604460026026C82B1C7B1E068FCF7E7
:1038C000AAFDE168206C091AE1602268914202D2E7
:1038D000A168081AE060022F16D017E02068A8B986
:1038E000A06801F0A1F906460020A0600EE0606823
:1038F000FCF791FD216C606808446060A168884213
:1039000004D32068606001E005B16D1E6D1CA563E5
:103910003046BDE8F08110B5044690F8590058B122
:1039200001280CD002280FD0502080F31188BFF35B
:103930004F8FBFF36F8FFEE7206B00F0BFFB204679
:10394000BDE8104000F0BABB10BD000010484FF4B5
:103950007051420706D0C01D0D4920F00700411AE2
:10396000C1F570510B4A00230144C2E90003083934
:10397000183A21F0070111604B600B600B1AC0E987
:10398000001393604FF00040536050617047000097
:10399000C4100020B8000020144E154CA6F29C471D
:1039A0004FF08058DFF84C9012E000BF00F052FB5F
:1039B000F068C568281D00F0F1FAA068401EA060FC
:1039C0006068401E606000F065FB2846FFF7A3FFBB
:1039D00060680028EAD138680128F9D9C9F8008060
:1039E000BFF34F8FBFF36F8FF2E70000CC080020CA
:1039F0004C00002004ED00E070B51D46049C51B160
:103A0000C4F80020C4E90F010121204600F0C4FDE4
:103A100084F84C5070BD2460F4E700002DE9F05F9D
:103A20008846DDE90B941546834691009A460A9E26
:103A3000A522206BFCF766FD6FF00301206B01EB04
:103A40008501084420F00707780707D0502080F34D
:103A50001188BFF34F8FBFF36F8FFEE70025B8F1DA
:103A6000000F0FD05FF00000221818F8001082F845
:103A7000341018F8001011B1401C1028F4D384F849
:103A8000435001E084F83450382E00D33726E662E4
:103A9000C4E91365201D00F0B6FA04F1180000F027
:103AA000B2FA2461C6F138006462A061656584F8E9
:103AB000585052465946384600F05AFA2060B9F13B
:103AC000000F01D0C9F80040BDE8F09F30B51149A2
:103AD00000E011460A688242FBD34B685C188442BE
:103AE00003D1406818444860084643681C18944253
:103AF00009D1084C183C2468A24209D052681A44E3
:103B000042600A6812680260814200D0086030BDDD
:103B10000460F9E7B800002070B5002441600B4D47
:103B20000061914206D8D11A8269914206D2011DE4
:103B3000286907E09A4203D2994201D3012403E0A5
:103B4000011DE86800F062FA204670BD8800002080
:103B500010B5044600F07EFAA06B28B15FF00004B7
:103B600000F098FA204610BD0124F9E730B589B07D
:103B70003C4D6EE00498002806DADDE90601059A5E
:103B800090470498002864DB069C606910B1201DF2
:103B900000F004FA03A800F0D7F8024604980A28B7
:103BA00057D2DFE800F00505052D334A05052D3312
:103BB00094F8280040F0010084F828000599A069D5
:103BC000059B01442046FFF7A7FF68B3216A204602
:103BD000884794F8280040073BD5002000900598BE
:103BE000A169002342181946204601F027F9D8B9E7
:103BF000502080F31188BFF34F8FBFF36F8FFEE724
:103C000014F8280F20F00100207022E094F828001A
:103C100040F0010084F828000598A06128B18118BF
:103C200013462046FFF778FF13E0502080F31188F9
:103C3000BFF34F8FBFF36F8FFEE794F82800810723
:103C400003D4204600F03AFA03E020F0010084F8A3
:103C50002800002204A9286800F0F2FD002889D17C
:103C600009B030BD880000202DE9FC410F46054613
:103C700000F074FB01A800F067F80446019818B141
:103C800001F04AF8BDE8FC81254EAFB1306900680B
:103C9000D0B30027291B3A46306800F091FA01F0B2
:103CA0003BF80028EED11F494FF080500860BFF369
:103CB0004F8FBFF36F8FE5E7A542EBD801F02CF8EB
:103CC000F0682746C068C468201D00F067F994F8C2
:103CD0002800410719D5A0692B4641193A462046CC
:103CE000FFF71AFFA8B100200346014600902A46BC
:103CF000204601F0A3F860B9502080F31188BFF38B
:103D00004F8FBFF36F8FFEE707E020F0010084F8CC
:103D10002800216A20468847B4E70127BAE7000057
:103D20008800002004ED00E00648416B096829B1D5
:103D3000416BC968C9684968816270474FF0FF31BB
:103D4000FAE700004C00002070B5054600F002FFC5
:103D5000064E0446B068844203D200F009F8012000
:103D600000E0002028602046B46070BD880000207C
:103D7000F8B5194D20E0C068C4680668201D00F041
:103D80000DF9216A2046884794F82800400713D58A
:103D9000A0693044B04206D924616060211DE86802
:103DA00000F034F908E00020034601460090324656
:103DB000204601F043F838B1E86801680029DAD1FB
:103DC0002969C5E90310F8BD502080F31188BFF3BD
:103DD0004F8FBFF36F8FFEE78800002008484068D0
:103DE000401C4FF0500080F3118804D0BFF34F8F78
:103DF000BFF36F8FFEE7BFF34F8FBFF36F8FFEE709
:103E0000C0000020074CE068016841B1C068002193
:103E1000D0F80000FFF728FFFFF7A8FEF3E7012125
:103E20000020F7E7880000202DE9F041044600F06B
:103E300011F994F9455004F1240609E0606A48B18B
:103E4000304600F031FF08B100F00AFA6D1E6DB285
:103E5000002DF3DC4FF0FF3684F8456000F01AF9CE
:103E600000F0F8F894F9445004F1100709E02069D3
:103E700048B1384600F018FF08B100F0F1F96D1EA6
:103E80006DB2002DF3DC84F84460BDE8F04100F031
:103E900001B900002DE9F0410546002700F05EFA67
:103EA000324E306808B9FFF751FD706905424ED1B6
:103EB000C5B3083568070ED005F00700C0F108004B
:103EC0000544680707D0502080F31188BFF34F8F57
:103ED000BFF36F8FFEE72DB37068854237D8234854
:103EE000183001460C6801E020460C466168A94282
:103EF00002D221680029F7D131688C4227D00768A7
:103F00002168016060680837411B10290FD96019CA
:103F1000420708D0502080F31188BFF34F8FBFF3C2
:103F20006F8FFEE713E041606560FFF7CFFD6168CA
:103F30007068401A7060B268904200D2B0607069D8
:103F400001430020C4E90001F068401CF06000F06B
:103F5000E3FE780707D0502080F31188BFF34F8F1E
:103F6000BFF36F8FFEE73846BDE8F081A000002068
:103F700010B5031F4FF080741C601B1F21F001015E
:103F80001960191F044B0B6014390A60091F6FF088
:103F9000020244380A6010BDDD3D0008D0E901325C
:103FA00001699A60D0E901235A604A68824201D1CE
:103FB00082684A60002202610868401E0860086842
:103FC00070470000034B036003F15C000860802031
:103FD000106070470C0A0020044B036003F15C0082
:103FE00008604FF48070106070470000680C00207B
:103FF00000F108014FF0FF32C0E90112C160016118
:1040000000210160704700210161704730B50B68E5
:104010005A1C02D000F1080202E0026904E02246C4
:10402000546825689D42FAD953684B6099608A604C
:10403000516008610168491C016030BD42684A60F6
:1040400093688B6093685960916008610168491CAE
:1040500001607047502080F31188BFF34F8FBFF38A
:104060006F8F0A494868401C486001280CD10848F5
:10407000006810F0FF0F07D0502080F31188BFF3C5
:104080004F8FBFF36F8FFEE770470000C000002026
:1040900004ED00E00849486828B1401E486001D19D
:1040A00080F311887047502080F31188BFF34F8F41
:1040B000BFF36F8FFEE70000C000002070B500283E
:1040C0002AD0164DA0F1080460686969084207D13A
:1040D000502080F31188BFF34F8FBFF36F8FFEE73F
:1040E00022683AB1502080F31188BFF34F8FBFF39D
:1040F0006F8FFEE78843606000F030F960686968A0
:10410000084468602046FFF7E1FC2869401C2861EC
:10411000BDE8704000F000BE70BD0000A0000020AF
:104120004FF0E02000210161816105494FF47A726E
:104130000968B1FBF2F1491E416107210161704735
:104140004800002010B5FCF7CBF8114910280ED319
:1041500000F1E02090F8F0030A78904207D2502056
:1041600080F31188BFF34F8FBFF36F8FFEE70948CD
:104170000068896800F4E060884207D9502080F325
:104180001188BFF34F8FBFF36F8FFEE710BD0000A4
:10419000C00000200CED00E010B5084B002200BF6D
:1041A00053F832401CB1521C082AF9D310BD43F811
:1041B000321003EBC201486010BD0000F003002084
:1041C00070B515460E460446FFF744FF94F94410B7
:1041D0000020491C01D184F8440094F94510491C81
:1041E00001D184F84500FFF755FFA06B28B92A4696
:1041F000314604F1240000F051F82046BDE870403B
:10420000FFF712BE10B5020014D00F48006B38B192
:10421000502080F31188BFF34F8FBFF36F8FFEE7FD
:1042200000F09CF800211046FFF76AFA00F074FDD8
:10423000002807D105494FF080500860BFF34F8F29
:10424000BFF36F8F10BD00004C00002004ED00E0B4
:1042500002490A6A0260C968416070474C00002048
:1042600001490120C86170474C00002010B50C4680
:1042700050B1094909681831FFF7C8FE2046BDE86A
:1042800010400121FFF73CBA502080F31188BFF3A2
:104290004F8FBFF36F8FFEE74C00002070B51446C0
:1042A0000D4668B10A4909681831FFF7C7FE0CB11D
:1042B0004FF0FF3521462846BDE87040FFF720BA91
:1042C000502080F31188BFF34F8FBFF36F8FFEE74D
:1042D0004C00002030B587B00024039405AA04A93F
:1042E00003A80494FFF76EFEDDE903010094CDE915
:1042F0000110002315A11748059A00F0F2FB164D96
:104300000028E8621FD000F069FD012809D0401C98
:1043100019D1502080F31188BFF34F8FBFF36F8FF7
:10432000FEE7502080F31188BFF34F8FBFF36F8FEC
:104330004FF0FF30A86201206861EC6007B0BDE873
:10434000304000F045B807B030BD000049444C454E
:1043500000000000993900084C0000200248016B61
:10436000491C0163704700004C000020164810B53E
:10437000016B11B10121C16110BD0021C161016951
:10438000124A01E0B9B1491E01EB810352F8233012
:10439000002BF7D001EB810302EB830202F108044A
:1043A00053685B685360A34201D15B685360DA686D
:1043B0000260016110BD502080F31188BFF34F8F60
:1043C000BFF36F8FFEE700004C0000203004002098
:1043D0001CB537480168374A914207D1502080F315
:1043E0001188BFF34F8FBFF36F8FFEE7006831492D
:1043F000491E884207D1502080F31188BFF34F8FA8
:10440000BFF36F8FFEE72C4908780190FF200870FA
:1044100008788DF800009DF800009DF8002000F05D
:10442000F000904207D0502080F31188BFF34F8FE7
:10443000BFF36F8FFEE79DF80000204C00F05000A6
:1044400020700720A06005E09DF8002052008DF844
:104450000020401E9DF800201206F5D4A06003281D
:1044600007D0502080F31188BFF34F8FBFF36F8FB9
:10447000FEE74FF44070A060019808700C482030AF
:10448000016841F470010160016841F07041016010
:10449000FFF746FE00206060FBF7EAFE084801686F
:1044A00041F040410160FBF7CFFE00201CBD000041
:1044B00000ED00E071C20F4100E400E0C000002008
:1044C00034EF00E010B5502080F31188BFF34F8F18
:1044D000BFF36F8F00F044FB18B104494FF08050D8
:1044E0000860002080F3118810BD000004ED00E09A
:1044F000F8B517460E46050013D005FB06F0503000
:10450000FFF7C8FC04000AD0002084F8460004F13C
:1045100050023B46314628460094FFF76DFA20468C
:10452000F8BD502080F31188BFF34F8FBFF36F8F1A
:10453000FEE738B5049D18B153B1CAB181B120E08E
:10454000502080F31188BFF34F8FBFF36F8FFEE7CA
:10455000502080F31188BFF34F8FBFF36F8FFEE7BA
:10456000502080F31188BFF34F8FBFF36F8FFEE7AA
:1045700039B1502080F31188BFF34F8FBFF36F8F95
:10458000FEE750241C46012384F846302B46009455
:10459000FFF732FA204638BD70B50D46040025D02D
:1045A000FFF758FDD4E90F20216802FB0011A1603C
:1045B0000021A163216861600A46D4E90F01401E11
:1045C00000FB0121E16021464FF0FF3001F8440F6C
:1045D000487004F110008DB1FFF70AFD04F12400CA
:1045E000FFF706FDFFF756FD012070BD502080F358
:1045F0001188BFF34F8FBFF36F8FFEE7216900294A
:10460000F0D000F051FB0028ECD004494FF080506E
:104610000860BFF34F8FBFF36F8FE3E704ED00E057
:104620002DE9FF4782B01D468A464FF0000804007E
:1046300003D0BAF1000F08D011E0502080F31188A8
:10464000BFF34F8FBFF36F8FFEE7206C38B1502060
:1046500080F31188BFF34F8FBFF36F8FFEE7022DFA
:104660000AD1E06B012807D0502080F31188BFF3F6
:104670004F8FBFF36F8FFEE700F05EFA3F4F4FF0B2
:1046800000094FF0805648B9049838B1502080F3A3
:104690001188BFF34F8FBFF36F8FFEE7FFF7DAFC90
:1046A000A06BE16B884207D3022D05D00498D0B1EE
:1046B000B8F1000F1AD01EE02A4651462046FFF7F7
:1046C000F4F8616A19B104F1240000F0EDFA20B1A8
:1046D0003E60BFF34F8FBFF36F8FFFF7DBFC01200E
:1046E00006B0BDE8F087FFF7D5FC22E06846FFF78B
:1046F000AFFD4FF00108FFF7CDFCFFF72FFEFFF7EE
:10470000A9FC94F94400401C01D184F8449094F928
:104710004500401C01D184F84590FFF7BBFC04A97B
:10472000684600F077F930B12046FFF77DFB00F0D6
:10473000F3FA0020D4E7FFF78DFCA06BE16B884211
:1047400013D1FFF7A7FC04F110000499FFF78EFDC9
:104750002046FFF769FB00F0DFFA00289ED13E609B
:10476000BFF34F8FBFF36F8F98E7FFF793FC20469F
:10477000FFF75AFB00F0D0FA90E7000004ED00E0EC
:104780002DE9F0471F4690468946040003D0B9F151
:10479000000F08D011E0502080F31188BFF34F8F35
:1047A000BFF36F8FFEE7206C38B1502080F3118883
:1047B000BFF34F8FBFF36F8FFEE7022F0AD1E06B7D
:1047C000012807D0502080F31188BFF34F8FBFF32B
:1047D0006F8FFEE7FFF7B6FC5020EFF3118680F3F2
:1047E0001188BFF34F8FBFF36F8FA06BE16B8842CF
:1047F00006D3022F04D0002086F31188BDE8F0878D
:1048000094F94550A06B3A4649462046FFF74DF8CB
:10481000681C04D06D1C84F845500120ECE7606AE8
:104820000028FAD004F1240000F03EFA0028F4D069
:10483000B8F1000FF1D00121C8F80010EDE7000039
:104840002DE9F747002683B08A46040003D0BAF169
:10485000000F08D011E0502080F31188BFF34F8F74
:10486000BFF36F8FFEE7206C38B1502080F31188C2
:10487000BFF34F8FBFF36F8FFEE700F05DF9DFF8F6
:10488000F4804FF000094FF0805748B9059838B1CF
:10489000502080F31188BFF34F8FBFF36F8FFEE777
:1048A000FFF7D8FBA56BC5B151462046FEF7EAFFDE
:1048B0006D1EA563206950B104F1100000F0F4F9F9
:1048C00028B1C8F80070BFF34F8FBFF36F8FFFF7A9
:1048D000E1FB012006B0BDE8F087059808B11EB1E4
:1048E00006E0FFF7D7FB27E06846FFF7B1FC01269B
:1048F000FFF7D0FBFFF732FDFFF7ACFB94F9440064
:10490000401C01D184F8449094F94500401C01D129
:1049100084F84590FFF7BEFB05A9684600F07AF8D9
:10492000002820460AD0FFF77FFA00F0F5F920466C
:10493000FFF70EF90028B3D00020CBE7FFF708F906
:1049400090B104F124000599FFF790FC2046FFF791
:104950006BFA00F0E1F90028A2D1C8F80070BFF3AB
:104960004F8FBFF36F8F9BE72046FFF75DFA00F094
:10497000D3F995E704ED00E02DE9F047904689462C
:10498000040003D0B9F1000F08D011E0502080F3EB
:104990001188BFF34F8FBFF36F8FFEE7206C38B1E4
:1049A000502080F31188BFF34F8FBFF36F8FFEE766
:1049B000FFF7C8FB5020EFF3118680F31188BFF397
:1049C0004F8FBFF36F8FA76BF7B194F944504946EF
:1049D0002046FEF757FF7F1EA763681C04D06D1C9E
:1049E00084F84450012010E020690028FAD004F136
:1049F000100000F059F90028F4D0B8F1000FF1D000
:104A00000121C8F80010EDE7002086F31188BDE809
:104A1000F08700002DE9F0410C46050011D0C4B12B
:104A2000FFF718FB174BDA686E682068911B471C6C
:104A300017D02F681B6A9F4219D0964217D80124BD
:104A400010E0502080F31188BFF34F8FBFF36F8FBA
:104A5000FEE7502080F31188BFF34F8FBFF36F8FB5
:104A6000FEE70024FFF716FB2046BDE8F0818842F0
:104A700005D9401A20602846FFF7EAFBF1E700203D
:104A80002060DCE74C0000202DE9FF5F8346DDE974
:104A90000E87994616468A469000FFF7FBF90500F7
:104AA0001CD05C20FFF7F6F9040014D00020256329
:104AB00084F85900CDE90240CDE900874B463246E3
:104AC00051465846FEF7AAFF2046FEF747FE012052
:104AD00004B0BDE8F09F2846FFF7F0FA4FF0FF3032
:104AE000F6E7F0B585B0DDE90B640A9DA6B1DCB14F
:104AF0005C2700972663022684F85960002604AFDD
:104B0000CDE90246CDE90057FEF788FF2046FEF7C3
:104B100025FE049805B0F0BD502080F31188BFF346
:104B20004F8FBFF36F8FFEE7502080F31188BFF3E4
:104B30004F8FBFF36F8FFEE70548416919B1006BD6
:104B400018B1002070470120704702207047000014
:104B50004C0000200148C068704700004C00002055
:104B60002DE9F0412E4C0027206B28B1A069401C94
:104B7000A0613846BDE8F081E668761CE66013D196
:104B8000606B006838B1502080F31188BFF34F8FFD
:104B9000BFF36F8FFEE7606BA16B6163A063206A58
:104BA000401C2062FFF7C0F8A06ADFF878808642D8
:104BB00009D3606B0068A0B1606BC068C5686868A5
:104BC000864211D2A0622068C06A00EB800158F8CA
:104BD0002100012800D90127E0690028C9D0012758
:104BE000C7E74FF0FF30EDE7281DFFF7D7F9A86AB8
:104BF00018B105F11800FFF7D1F9E86A2169884278
:104C000000D9206100EB800108EB8100291DFFF72E
:104C100015FAE86A2168C96A8842CAD30127C8E739
:104C20004C0000203004002070B504004FF000015B
:104C300033D01B4D2868844207D0502080F3118860
:104C4000BFF34F8FBFF36F8FFEE7206D38B1401E6B
:104C50002065E36CE26A9A421FD040B11DE050200B
:104C600080F31188BFF34F8FBFF36F8FFEE7201DD6
:104C7000FFF794F9E06CE062C0F13800A061E06AEF
:104C80002969884200D92861064900EB800001EBC0
:104C90008000211DFFF7D2F90121084670BD0000F8
:104CA0004C0000203004002070B5C068C46854B1C6
:104CB00004F118000646FFF771F9144D286B50B146
:104CC0003146134815E0502080F31188BFF34F8F11
:104CD000BFF36F8FFEE7201DFFF760F9E06A2969D7
:104CE000884200D928610B4900EB800001EB80006D
:104CF000211DFFF7A3F9E06A2968C96A884202D931
:104D00000120E86170BD002070BD00004C00002053
:104D1000B8080020300400202DE9F0472C4D002475
:104D20002746286B38B1FFF795F9286B401E28639A
:104D3000286B40B146E0502080F31188BFF34F8FBD
:104D4000BFF36F8FFEE7A968224E0120D1B3A6F50D
:104D5000916980463068E0B1F068C46804F11800D9
:104D6000FFF71CF9201DFFF719F9E06A296988424D
:104D700000D9286100EB800109EB8100211DFFF7BC
:104D80005DF9E06A2968C96A8842E3D3C5F81C80E6
:104D9000E0E70CB1FEF7C8FFAC694CB14FEA08067A
:104DA000FFF7DEFE00B1EE61641EF9D10020A861BC
:104DB000E86938B10849012738070860BFF34F8F09
:104DC000BFF36F8FFFF766F93846BDE8F087000044
:104DD0004C000020B808002004ED00E010B586B0BB
:104DE000FEF724FD114C2068B8B100200390049018
:104DF00005AA04A903A8FFF7EFF8DDE903210220C3
:104E00008DE8070000230AA10B48059AFFF769FE09
:104E1000606010B106B0012010BD502080F31188F1
:104E2000BFF34F8FBFF36F8FFEE7000088000020B5
:104E3000546D722053766300053E00082DE9FF4152
:104E40001E46134602000A9D4FF0000016D0144C77
:104E50002768002F0FD0CDE900130292062917DA38
:104E6000FFF76AFE02284FF000030FD000226946C8
:104E70002068FFF7D5FB04B0BDE8F081502080F337
:104E80001188BFF34F8FBFF36F8FFEE72A46EEE71F
:104E90000023324669463846FFF772FCEBE7000014
:104EA000880000204FF04070E1EE100A70470000CB
:104EB000D04F0008000000000000000000000000CB
:104EC00000000000000200001800000000000000C8
:104ED000000000009C4F00080000000000000000DF
:104EE00000000000000000000004000008000000B6
:104EF0000000000000000000DC4F0008000000007F
:104F00000000000000000000000000000008000099
:104F1000080000000000000000000000904F0008A2
:104F20000000000000000000000000000000000081
:104F30000002000008000000000000000000000067
:104F4000B84F000800000000000000000000000052
:104F50000000000000000000A84F00080000000052
:104F60000000000000000000000000000000000041
:104F700000061016000610160000000000000000D9
:104F800001020304060708090000000001020304EF
:104F9000566F66615F446174610000005465787407
:104FA0005F48616E646C65004170705F566F66614A
:104FB00051756575650000004170705F54617267DE
:104FC0006574416E676C655175657565000000001C
:104FD00064656661756C745461736B004D6F746FBA
:104FE000725F4D6F76656D656E7400000C50000841
:104FF00000000020CC000000C4010008D8500008C8
:10500000CC0000205C520000E0010008000000001D
:105010000000000000000000000000000000000090
:10502000000000000000000000000000010100007E
:105030000000000000000000000000000000000070
:10504000000000000000000001000000100000004F
:10505000000000000024F400000000000000000038
:105060000000000000000000000000000000000040
:105070000000000000000000000000000000000030
:105080000000000000000000000000000000000020
:105090000000000000000000000000000000000010
:1050A0000000000000000000000000000000000000
:1050B00000000000000000000000000000000000F0
:1050C00000000000000000000000000000000000E0
:0850D000AAAAAAAA0000000030
:040000050800018965
:00000001FF
