:020000040800F2
:1000000040540020050300080B3E00082D3C00086A
:10001000093E0008351E0008054E000800000000DB
:100020000000000000000000000000004502000881
:100030000D1F000800000000A1020008D5470008BD
:100040001F0300081F0300081F0300081F03000808
:100050001F0300081F0300081F0300081F030008F8
:100060001F0300081F0300081F0300081F030008E8
:100070001F030008451E00081F030008511E00084A
:100080005D1E00081F0300081F0300081F0300086F
:10009000391E00081F0300081F0300081F03000883
:1000A0001F030008954800081F0300081F030008ED
:1000B0001F0300081F0300081F0300081F03000898
:1000C0001F0300081F0300081F0300081F03000888
:1000D0001F0300081F030008F94D00081F03000854
:1000E0001F0300081F0300081F0300081F03000868
:1000F0001F0300081F0300081F0300081F03000858
:100100001F0300081F0300081F0300081F03000847
:10011000714900081F0300081F0300081F0300089F
:100120001F0300081F0300081F0300081F03000827
:100130001F03000800000000000000001F0300086B
:100140001F0300081F0300081F0300081F03000807
:100150001F0300081F0300081F0300081F030008F7
:100160001F0300081F0300081F0300081F030008E7
:100170001F0300081F03000800000000000000002B
:100180001F0300081F03000800F002F800F04AF8FF
:100190000AA090E8000C82448344AAF10107DA45E2
:1001A00001D100F03FF8AFF2090EBAE80F0013F0EA
:1001B000010F18BFFB1A43F0010318473478000001
:1001C00054780000103A24BF78C878C1FAD8520792
:1001D00024BF30C830C144BF04680C6070470000C1
:1001E0000023002400250026103A28BF78C1FBD840
:1001F000520728BF30C148BF0B6070471FB507F0DA
:100200005FFA00F07FFD04000020002107F050F8A5
:10021000401C60600020002107F034F8E0601FBD42
:1002200010B510BD00F04CFA1146FFF7E7FF05F0DE
:1002300025FB00F093FA03B4FFF7F2FF03BC00F0D4
:100240005BFD00002C4B19680868B0E8F04F80F3A4
:100250000988BFF36F8F4FF0000080F3118870475B
:100260000000000008480068006880F308884FF02C
:10027000000080F3148862B661B6BFF34F8FBFF3FE
:100280006F8F00DF00BF00BF08ED00E0DFF80C005B
:10029000016841F470010160704700BF88ED00E023
:1002A000EFF30980BFF36F8F134B1A681EF0100F26
:1002B00008BF20ED108A20E9F04F106009B44FF01C
:1002C000500080F31188BFF34F8FBFF36F8F06F09C
:1002D0003DFA4FF0000080F3118809BC19680868E6
:1002E000B0E8F04F1EF0100F08BFB0EC108A80F39A
:1002F0000988BFF36F8F704764000020EFF305801B
:10030000704700000948804709480047FEE7FEE7BC
:10031000FEE7FEE7FEE7FEE7FEE7FEE7FEE7FEE7B5
:1003200004480549054A064B704700008548000807
:1003300089010008404E0020405400204050002019
:100340004050002053EA020C00F069802DE9F04B88
:100350004FF00006002B1FBFB3FA83F503FA05F434
:1003600024FA05F65E4012BF1643B2FA82F502FA8D
:1003700005F4C5F120051EBF22FA05FC44EA0C0471
:10038000203556EA044C4FEA144418BF641C4FF061
:1003900000084FF00009904271EB030C39D300299B
:1003A00019BFB1FA81F701FA07F6B0FA80F700FA3F
:1003B00007F6C7F120071EBF20FA07FC46EA0C0625
:1003C0002037B6FBF4FCA7EB0507103F07F01F0B27
:1003D000CBF120060CFA0BFB2CFA06F644BFB34611
:1003E0000026202FA4BF5E464FF0000B5BEA060CF0
:1003F00008BF4FF0010B19EB0B09ABFB027C48EB7C
:100400000608C01B06FB02CC0BFB03CC71EB0C01F6
:10041000C1E70B46024641464846BDE8F08B13B59E
:100420004FF000004FF00001AFF30080BDE81C402A
:100430007047CBB22AB101788B4203D0401C521EC8
:10044000F9D100207047032A40F2308010F0030CED
:1004500000F0158011F8013BBCF1020F624498BF17
:1004600011F801CB00F8013B38BF11F8013BA2F1B4
:10047000040298BF00F801CB38BF00F8013B11F02F
:10048000030300F02580083AC0F0088051F8043BCF
:10049000083A51F804CBA0E80810F5E7121D5CBF3C
:1004A00051F8043B40F8043BAFF30080D20724BF6F
:1004B00011F8013B11F801CB48BF11F8012B24BF03
:1004C00000F8013B00F801CB48BF00F8012B704752
:1004D00010B5203AC0F00B80B1E81850203AA0E8DF
:1004E0001850B1E81850A0E81850BFF4F5AF5FEA13
:1004F000027C24BFB1E81850A0E8185044BF18C9C6
:1005000018C0BDE810405FEA827C24BF51F8043B6C
:1005100040F8043B08BF7047D20728BF31F8023BC0
:1005200048BF11F8012B28BF20F8023B48BF00F854
:10053000012B704702F0FF0343EA032242EA024222
:1005400000F002B84FF000020429C0F0128010F051
:10055000030C00F01B80CCF1040CBCF1020F18BF9F
:1005600000F8012BA8BF20F8022BA1EB0C0100F032
:100570000DB85FEAC17C24BF00F8012B00F8012B05
:1005800048BF00F8012B70474FF0000200B513463A
:1005900094469646203922BFA0E80C50A0E80C50A3
:1005A000B1F12001BFF4F7AF090728BFA0E80C5054
:1005B00048BF0CC05DF804EB890028BF40F8042B4D
:1005C00008BF704748BF20F8022B11F0804F18BFBA
:1005D00000F8012B704770477047704710B500F066
:1005E00015F8006810BD10B5044600F00FF804605F
:1005F00010BD7CB5054600236846CDE9003300F008
:1006000027F86946284605F02BF87CBD004870475E
:10061000DC4D00200FB4002300B589B00CA9009177
:100620000B99CB60214B7B440693214B7B44079372
:1006300004236FF00042CDE901321E4A7A446B4632
:1006400008920246002007F0A8F809B05DF814FBF4
:1006500070B506464FF0FF3015460C46324686B060
:100660000091CDE9010169460020049004A8FFF73C
:10067000D1FF02460498211825B108B1084600E0D0
:1006800020462860049800280DD0002A02DD00983A
:10069000884208D03246081B69460094CDE901041F
:1006A00004A8FFF7B7FF06B070BD0000F30000001C
:1006B0000B010000CB00000000487047DC4D00201B
:1006C0007546FFF7F9FFAE4605006946534620F030
:1006D0000700854618B020B5FFF722FEBDE8204090
:1006E0004FF000064FF000074FF000084FF0000BEE
:1006F00021F00701AC46ACE8C009ACE8C009ACE8A1
:10070000C009ACE8C0098D46704710B5044600F03A
:100710002FF80068005D00F0010010BD426842B192
:10072000016811F8013B23B1521EC0E900121846BE
:1007300070470121C160881E704742685AB1C36882
:10074000016843B983688B4205D0491E521CC0E939
:100750000012002070474FF0FF30704710B504467C
:10076000AFF300802046BDE81040FFF764BD0000F5
:1007700010B500F0C7FA001D10BD00BF356B0000BA
:100780002DE9FF4F06468BB00878FF2806D0491C9C
:100790002D2805D000244FF0000908E000200CE0CF
:1007A0000124F8E709EB8903491C00EB43090878A9
:1007B000FF28F7D114B1C9F1000081461078002557
:1007C0002C46AA4629462D2801D02B2804D1521C9C
:1007D0002D2813D0002082468B461078FF280FD09A
:1007E0004FF0000C0A21521CA5FB017804FB01818B
:1007F00005FB0C11C5194BEB0104EEE70120EAE7FC
:10080000002108464FF00000BAF1000F02D000EBC3
:1008100080004008C0F38157012F01DD4FF0FF3702
:100820000E9955EA040009EB01080BD04FF00209BC
:1008300018F5FA7F16DA4FEACA70002F706008DDEB
:10084000012007E04FEACA70C6E900B00FB0BDE86A
:10085000F08F00203060FFF7D9FEC0F8009018211B
:10086000084616E0B8F5FA7F18DD002F02DAF748DF
:10087000784401E0F6487844D0E90010C6E9001059
:1008800040EACA707060FFF7C1FEC0F80090142102
:1008900008460FB0BDE8F04F06F01CBF0021084627
:1008A0004FF00000B8F10001099002DAC7F1000230
:1008B00000E03A4601DAC8F1000106A800F026FA85
:1008C00006AB93E8070003AB83E8070044F23E0061
:1008D0005BEA04010090584604D144F21E012C4604
:1008E0005D460091210C0904014306D100992404BE
:1008F00044EA15442D041039009104F07F4101436E
:1009000006D10099240244EA15642D0208390091A9
:1009100004F07041014306D10099240144EA1574A2
:100920002D01091F009104F04041014306D10099B7
:10093000A40044EA9574AD00891E009104F00041C2
:10094000084304D100986D196441401E00904FF097
:1009500001033A466846B8F1000FCDE9014503A905
:1009600002DD00F01EFF01E000F0F1FEBAF1000F21
:1009700004460D4601D084F00044002108464FF0A3
:100980000000099940F2FF77484010F00C0F07D1A2
:1009900024F00040284303D0C4F30A50B84212D1D7
:1009A000FFF734FEC0F80090C4F30A50B8420AD1F1
:1009B000A8487844D0E90010C6E9001004F00041CE
:1009C0000843706042E7C6E900543FE72DE9FF4F56
:1009D0001F464FF0000A4FF0FF38454691B0D7E967
:1009E0000146CDF83CA000F08DF9C0680168405C7C
:1009F0001090B96912986D1C8847396A81468847FA
:100A00000028F6D1B9F1FF3F0AD0002E24F4D064BB
:100A100011DDB9F12B0F08D0B9F12D0F0BD102E088
:100A2000404615B013E744F48064B96912986D1C10
:100A30008847761E8146600504A901D52D2000E077
:100A40002B20002E01F1010B0DF130088DF8100064
:100A50003FDDB9F1690F08D0B9F1490F05D0B9F1FF
:100A60006E0F02D0B9F14E0F1CD13B4601A8009584
:100A700080E85002DDE912126FF0020006F091FEEC
:100A8000C11CCED10EE0B96912986D1C8847814611
:100A90001398761E44F4007405600F98401C002ED5
:100AA0000F9016DDB9F1300FEDD0B9F1780F02D00B
:100AB000B9F1580F0DD10F9801280AD13B46CDE965
:100AC0000054DDE91212001F029606F068FEC11CF8
:100AD000A7D1109989453ED144F0800406E01399CE
:100AE000681CAAF1010A44F400740860B9696D1C1D
:100AF0001298761E884730288146F0D02BE0109956
:100B0000894505D1200603D4761E44F0800418E000
:100B1000484604F063FE08B3761E0DF123018B45B1
:100B200044F4007408D2A9F130000BF8010B200640
:100B300007D5AAF1010003E0200602D40AF1010062
:100B40008246A00502D51399681C0860B9691298FD
:100B50006D1C88478146002ED1DC53E0002E51DD0C
:100B6000B9F1650F02D0B9F1450F4BD1A00549D5B8
:100B7000B9696D1C1298761E24F440748847002EC3
:100B800081460CDD2B2804D0B9F12D0F07D144F498
:100B90008074B96912986D1C8847761E8146E005FD
:100BA00001D52D2100E02B2108F8011BCDF8008094
:100BB00021E0761E0DF13901884544F400740CD211
:100BC000A9F1300010F0FF0088F8000002D1009970
:100BD000884509D908F1010806E0E00501D51E485D
:100BE00001E042F20F708246B96912986D1C884785
:100BF000814613980560002E04DD484604F0EEFDA2
:100C00000028D6D1F96912988847FF2053468BF8FF
:100C1000000088F8000000200A900B9004AA0CA99C
:100C20000AA8FFF7ADFDA00502D46FF00100F8E6B9
:100C300014F0240F12D0E0071CD13868DDE90A1245
:100C4000031D3B600068C0E9001213E0A4710000BE
:100C5000967100005A700000F1D8FFFF0AA968469B
:100C600004F0FEFCE00705D13868009A011D3960E8
:100C7000006802602846D4E64FF0013C50F8042B8F
:100C800051F8043B9A4221D1A2EB0C03934313EA9F
:100C9000CC1317D150F8042B51F8043B9A4215D1CC
:100CA000A2EB0C03934313EACC130BD150F8042BA3
:100CB00051F8043B9A4209D1A2EB0C03934313EA87
:100CC000CC13DBD04FF00000704700BFD01A01BA40
:100CD000B1FA81F101F0180122FA01F0CB40C1F123
:100CE0002001DBB2C0B2C01A2CFA01F3D11A914331
:100CF00011EAC311E6D1704701491820ABBEFEE7E7
:100D00002600020000487047FC4D00202DE9F04706
:100D1000814616468AB0354878440DC88DE80D00E6
:100D200032487844801C03AC0DC884E80D0041F6BD
:100D30009B300844372190FBF1F290FBF1F5A5F1CF
:100D4000800501FB12041B3C02D56442012000E037
:100D50000020DFF898A080460027FA44AAF1BE0AD6
:100D60000EE0E0070AD03246684607EB4701012350
:100D70000AEB810100F000FD8DE8070064107F1C84
:100D8000002CEED1194F7F44AE3F19E0E80715D093
:100D900007EB04100DF1180A90E80E008AE80E0027
:100DA000C068F04201D1981908903246012306A983
:100DB00003A800F0E1FC03AB83E807006D10641C9E
:100DC000002DE3D14FF0010332466946B8F1000F20
:100DD00003A802D000F0A6FC01E000F0CDFCC9E9B8
:100DE0000001C9F808200AB0BDE8F087506C000087
:100DF000704700002DE9FF4F1F464FF03C0987B0B8
:100E00004FF00042DDE9141001F10108DDF858A0AF
:100E100002EA4050039000200590834605460446B0
:100E20000490B969461E08988847AAF1010A029001
:100E3000BAF1000F3BDD02982E2815D0102100F0EA
:100E400016FA00282EDB4FF0010B0599014317D04D
:100E5000B9F1000F0BDB4A46C11700F0F5F9054365
:100E60000C43A9F1040905E0012004900BE008B14E
:100E700045F0010501200590049820B9361D02E0D7
:100E8000049800B1361FB969089808F1010888472D
:100E9000BBF1000FAAF1010A0290C9D00999C1F86B
:100EA0000080C5E70298702808D0502806D0F9695C
:100EB00008988847BBF1000F14D04FE00020029043
:100EC0000120BBF1000F049009D0B969089808F11E
:100ED00001088847AAF10109B9F1000F07DCF96997
:100EE000089888476FF001000BB0BDE8F08F2B2801
:100EF00004D02D280CD14FF0FF300490B969089828
:100F000008F101088847A9F10109B9F1000FE6DDF0
:100F1000411CE4D00A2100F0AAF90028DFDB029985
:100F200008F1010801EB810100EB41000290B96971
:100F3000089888470A2100F09AF9099AA9F101094D
:100F4000B9F1000FC2F8008001DD0028E7DAF96985
:100F5000089888470499029800FB016655EA040046
:100F600004D004F04041090002D006E0039898E064
:100F7000A40044EA9574AD00B61E04F000410800D8
:100F800002D16D196441761E159810F0240F03D01C
:100F90004FF00B095C4803E04FF028096FF07D002B
:100FA0008246564507DAAAEB06018944B9F1410F9A
:100FB00001DD4FF0410901200021A9F1010200F0FB
:100FC00043F9024628400B462140084301D0012145
:100FD00000E00021501E029143F1FF3128402140E2
:100FE000084301D0012000E000200299834651EA25
:100FF0000B014FD0002108464FF00000039900F488
:10100000400039B100EB80004FF4400100EBD0709C
:1010100001EA60008015012802DD4FF0FF3000E09A
:1010200013D0401C36D0029860B3BBF1000F0CD136
:101030004A460120002100F007F9284021400843DA
:1010400001D0012000E00020E0B101204A4600214B
:1010500000F0FAF8034640190A4661412D1A8C4106
:1010600011D3B9F1400F09DD159810F0240F02D00B
:10107000AAF1340603E0AAF1170600E0761C002569
:101080004FF0004406E05B1E42F1FF3220EA030508
:1010900021EA0204CAF10100B04206DA1B490398B2
:1010A00008430190002000900EE0039AC4F3D3217E
:1010B000E80A0A43164940EA44500A433146CDE95A
:1010C0000002684604F080FB159810F0240F0BD046
:1010D0001598C00715D13868DDE90012031D3B6083
:1010E0000068C0E900120CE002A8694604F0B8FAF2
:1010F0001598C00705D13868029A011D396000684B
:1011000002604046F0E6000002FCFFFF0000F07FB6
:101110000000F03F2DE9FF4F92461D4685B04FF08D
:101120000041DDE9124BDDE914727F1E01EA4B50EC
:10113000414940F0FF4940EA0108002122F0200027
:101140004928049102D04E2828D04CE03BA001262B
:1011500007C88DE80700A9690698641C88477F1EA8
:10116000014606D41DF8060018B121F02001814285
:101170000BD0E96906988847032E34D0082E32D068
:101180006FF0010009B0BDE8F08F761C032E01D08E
:10119000082EE0D1601CCAF80000DCE7A9690698B7
:1011A000641C88477F1E2AD420F02000412826D1C5
:1011B000A9690698641C88477F1E20D420F020006F
:1011C0004E281CD1A9690698641C88477F1E48F4E4
:1011D000002849F48009CAF8004001D4282806D024
:1011E000E969069888475FEACB7012D022E0A969C6
:1011F0000698641C88477F1E01D4002803DAE96939
:1012000006988847BCE72928F1D1641CCAF8004039
:10121000E9E71BF0240F07D028680499031D2B6011
:101220000068C0E9001805E02868021D2A6000680F
:10123000C0F800902046A5E70000F07F494E4649DF
:101240004E49545900000000B2F120030AD5C2F102
:10125000200301FA02F120FA03F300FA02F041EA56
:101260000301704700FA03F14FF0000070473A287D
:1012700000D2303820F02002412A01D3A2F13700F9
:10128000884201D34FF0FF30704720F07F4C80EA56
:10129000030023F07F47ACEB070303F57C5300F01A
:1012A000004003F1FF032DE980494FEA154B09B4D3
:1012B0004FEA144325EA0B4E24EA03480FF20426B2
:1012C00006EB132749083E785FEA320203FB066704
:1012D000C7F5000707FB06F64FEA54374FEAD64634
:1012E00006F1020607FB066CCCF1005C4FEA1C47D6
:1012F0002CEA074C07FB06F40CFB06F504EB15463D
:101300004FEA961634BF00204FF000404FEAD13725
:1013100006FB07FC4FEA1C4C0CFB0BF7D21B03FB34
:101320000CF761EB07010CFB0EF7B0EB074072EB1B
:1013300017420CFB08F734BFA2EB0742B2EB07429F
:1013400061EB17414FEA0C444FEA910706FB07FC9B
:101350004FEA1C4C0CFB0BF7B0EBC74072EB57325B
:1013600003FB0CF734BFA2EBC742B2EBC74261EB01
:1013700057310CFB0EF7B0EBC70072EB57720CFB4A
:1013800008F734BFA2EBC702B2EBC70261EB57719B
:10139000039F4FEA816141EA921104EBCC044FEACA
:1013A000D1374FEA826206FB07FC42EA90124FEA0D
:1013B00080604FEA1C4C0CFB0BF7D21B03FB0CF7B5
:1013C00061EB07010CFB0EF7B0EB074072EB174225
:1013D0000CFB08F734BFA2EB0742B2EB074261EB0C
:1013E00017414FEA8C554FEA910704EB9C2406FB0A
:1013F00007FC4FEA1C4C0CFB0BF7B0EBC74072EB41
:10140000573203FB0CF734BFA2EBC742B2EBC74223
:1014100061EB57310CFB0EF7B0EBC70072EB577264
:101420000CFB08F734BFA2EBC702B2EBC70261EBBB
:10143000577115EB4C254FEA816141EA92114FEA51
:1014400082624FEAD13742EA901206FB07FC44F170
:1014500000044FEA80604FEA1C4C0CFB0BF7D21BD8
:1014600003FB0CF761EB07010CFB0EF7B0EB074039
:1014700072EB17420CFB08F734BFA2EB0742B2EB4A
:10148000074261EB174115EB1C154FEA813141EA28
:1014900092414FEA823242EA90424FEA80304FEA6C
:1014A0000C7644F1000448EA03434EEA0B484FF03F
:1014B000000EB2EB080C71EB030724BF62463946FD
:1014C0004EEB0E0E4FF0000B0018524149414BEB12
:1014D0000B0BB2EB080C71EB03077BF1000B24BF85
:1014E000624639464EEB0E0E4FF0000B001852418B
:1014F00049414BEB0B0BB2EB080C71EB03077BF193
:10150000000B24BF624639464EEB0E0E51EA02072D
:1015100018BF46F0010616EB0E7655F1000254F1A5
:10152000000103D5BDE88901BDE80088BDE8890157
:10153000BDE80048B619524141EB0101A3F1010396
:10154000704780807F7E7D7C7B7A79787776767530
:101550007473727171706F6E6E6D6C6C6B6A6A69A8
:101560006868676666656464636362616160605F42
:101570005F5E5E5D5D5C5C5B5B5A5A5959585857BB
:101580005756565555555454535352525251515023
:1015900050504F4F4F4E4E4D4D4D4C4C4C4B4B4B76
:1015A0004A4A4A49494948484847474747464646BC
:1015B00045454544444444434343434242424241F7
:1015C0004141000046EA0646A3F570534FEA16462D
:1015D00046EA42564FEAD22242EA415210B54FEA59
:1015E000D121A3F1010300F02FF820F0004000F119
:1015F000020C00F0004701EB00501146BCF5006FF3
:1016000040EA070000D210BDBAF1000F0AD01CB5A5
:1016100003B44FF004004FF004014FF000000FBC82
:10162000BDE810404FF00001BBF1010FB9BF044805
:101630004FF0FF310348002140EA070010BD00BF12
:10164000FFFFEF7F0000F07F002B9C4630D4770037
:101650002BD01CB54FEA370703B44FF010004FF002
:101660001001BAF1000F06D0BCF1000FDCBF40F052
:10167000080040F008014FF000000FBCBDE810402A
:101680000BF1010BBBF1010F08BF5FEA170722BF87
:1016900012F1010211F101014FF0004143F1000389
:1016A00000F0004043EA00007047F9D35708D0E744
:1016B00046EA064613F1400F4FEA16461FDD13F1C6
:1016C000200FDFBF16430A46002120335B42BED005
:1016D000C3F1200746EA064602FA07F74FEA164624
:1016E00046EA0706C3F1200722FA03F201FA07F7D8
:1016F00021FA03F14FF0000342EA0702A7E746EAA6
:10170000020646EA06464FEA164646EA0106BCBF0E
:1017100046EA0646360C4FF000034FF000024FF049
:10172000000194E72DE9804C9A46934670B491E805
:10173000380007C831EA400C48BF34EA430C03D5EF
:10174000FFF7A3FDFFF780FFF0BCBDE8008C2DE99B
:10175000804C9A46934670B491E8380007C831EA45
:10176000400C48BF34EA430C03D5FFF78EFDFFF76A
:1017700029FFF0BCBDE8008C2DE9804C9A469346C9
:1017800070B491E8380007C810F0804F08BF13F01C
:10179000804F03D100F01AF8FFF756FFF0BCBDE808
:1017A000008C2DE9804C9A46934670B491E838003D
:1017B00007C810F0804F08BF13F0804F03D100F02E
:1017C00005F8FFF7FFFEF0BCBDE8008C20F07F4776
:1017D00080EA030023F07F4C07EB0C03A3F57C5356
:1017E00000F00040A3F1FE0392F0000F00F0B38080
:1017F00095F0000F00F077802DE901494FEA114084
:101800004FEA144621EA004800FB06FC24EA06479A
:1018100008FB06F607FB08F800FB07F718EB06487D
:101820004CEB164C4FEA124B18EB07484FEA1546A3
:101830004CEB174022EA0B4E0BFB06FC25EA064751
:101840000EFB06F607FB0EFE0BFB07F71EEB064E24
:101850004CEB164C4FF000061EEB074E4CEB174BB3
:1018600018EB0B0840F1000018EB0E0B58EB0008CA
:1018700040F100008F1A4FF000013CBFC943661BC6
:1018800014BFB5EB040C00213CBFC943F61B4FEA63
:1018900017444EEA8E0E27EA04454FEA1C4704FB24
:1018A00007622CEA074C05FB07F70CFB05F604FB67
:1018B0000CFC16EB074642EB174216EB0C4642EBCC
:1018C0001C421BEB060658EB0202414146EA9E060B
:1018D00001D5BDE80189B619524141EB0101A3F1DF
:1018E0000103BDE801894FEA14454FEA114724EA94
:1018F000054621EA074C05FB07F406FB07F70CFB3E
:1019000006F105FB0CFC11EB074144EB17444FEAD1
:10191000124711EB0C4144EB1C4422EA074C05FB37
:1019200007F206FB07F70CFB06F605FB0CFC16EBB3
:10193000074642EB174216EB0C4642EB1C456A1871
:1019400054F1000148BF7047B619524141EB010103
:10195000A3F10103704795F0000F37D04FEA114211
:101960004FEA144721EA024624EA074C02FB07F13A
:1019700006FB07F70CFB06F402FB0CFC14EB074418
:1019800041EB17414FEA154714EB0C4441EB1C4166
:1019900025EA074C02FB07F506FB07F70CFB06F6EA
:1019A00002FB0CFC16EB074645EB174516EB0C4605
:1019B00045EB1C42121951F1000148BF7047B6199E
:1019C000524141EB0101A3F1010370474FEA144575
:1019D0004FEA114724EA054621EA074C05FB07F1C7
:1019E00006FB07F70CFB06F24FF0000605FB0CFCAC
:1019F00012EB074241EB174112EB0C4251EB1C4139
:101A000048BF7047921841EB0101A3F101037047F1
:101A100010B51E4A2DED028B135C8B421FD0115462
:101A2000A2F11204B3EE0E8A30B101280DD00228C3
:101A300018D0032813D119E0B0EE600A00F076F94F
:101A400094ED070A30EE080A07E0B0EE600A00F0F5
:101A50006DF994ED070A30EE480A84ED070ABDECF3
:101A6000028B10BD022908D00029F8D100F046F9F8
:101A700094ED060A30EE480A05E000F03FF994EDD7
:101A8000060A30EE080A84ED060AE8E74600002060
:101A900070B5040038D01D4D21886088EA8802F1B5
:101AA0003C0399422ED83C3191422BD3298901F134
:101AB0003C02904226D83C30884223D3A08900F0D3
:101AC00027F80646688900F023F886421AD1E08993
:101AD00000F01EF80646A88900F01AF8864211D1D7
:101AE000208A00F01DF80646E88900F019F88642C1
:101AF00008D1608A00F00CF80446288A00F008F843
:101B0000844201D0012070BD002070BD340000204F
:101B100040F2DF31884201D9012070470020704730
:101B200040F267610322B1FBF2F140F6CE43B3FB12
:101B3000F2F2AC31AC3289B292B2884201D80020C4
:101B40007047904201D30220704701207047000087
:101B500070B504468089FFF7DBFF144D2870E089DB
:101B6000FFF7D6FF6870208AFFF7DAFFA870608A57
:101B7000FFF7CEFFE8709FED0E0AA5F112000021DD
:101B800080ED060A80ED070A8170C1702188C1804E
:101B900061880181A1894181E1898181218AC18195
:101BA000618A01820121417070BD00004600002061
:101BB00000000000F0B52DED048B8FB003ADEFF306
:101BC000108472B602F056FD010003D03022284680
:101BD000FEF77EFC04B962B602F05EFD9FED448A1A
:101BE0000126444F444C002528B19DF8350010B91A
:101BF0009DF8360070B18DED008A8DED018A8DF86B
:101C000008602570657084ED068A84ED078AA570EA
:101C1000E57055E08DF808509DED0C9ADDED0B8ACE
:101C2000A570E570207938B103A8FFF731FFE0B364
:101C3000257103A8FFF78CFF2078B8B36078A8B3AC
:101C4000BDF81800FFF764FF0146F0EE680AB0EE39
:101C5000490A0020FFF7DCFEBDF81A00FFF758FF25
:101C60000146F0EE680AB0EE490A0120FFF7D0FE07
:101C7000BDF81C00FFF754FF0146F0EE680AB0EE15
:101C8000490A0220FFF7C4FEBDF81E00FFF740FF1F
:101C90000146F0EE680AB0EE490A0320FFF7B8FEED
:101CA00094ED060A39EE000A01E013E017E08DED2D
:101CB000000A94ED070A38EE800A8DED010A2670BD
:101CC00000231A466946386803F090FE0FB0BDEC59
:101CD000048BF0BD8DED008A8DED018AEFE703A83E
:101CE000FFF736FF8DED009ACDED018AE7E70000A2
:101CF00000000000000000203400002010B50A4C55
:101D00002DED028BB0EE408AA078002808D1022089
:101D100002F046F930EE480A012084ED060AA07070
:101D2000BDEC028B10BD00003400002010B50A4C41
:101D30002DED028BB0EE408AE078002808D1042017
:101D400002F02EF930EE480A012084ED070AE07017
:101D5000BDEC028B10BD00003400002030B5002522
:101D60002DED028B87B02F4C10E000BFDDED050A92
:101D70009DED040A02F0A8FA9DF8180030B1012583
:101D800002F0DAF90021084600F018F900231A469B
:101D900004A9206803F0CCFD0028E7D0234C9FED78
:101DA000228A75B18DED008A022002F0F9F88DEDDE
:101DB000010A8DED028A042002F0F2F88DED030A8B
:101DC00026E002F097FA30B102F0B6F90021084699
:101DD00000F0F4F8E6E7022002F002F98DED000AC7
:101DE000022002F0DDF88DED010A042002F0F8F87F
:101DF0008DED020A042002F0D3F80D488DED030AA0
:101E0000417929B18DED008A8DED028A0021417161
:101E100000231A466946206803F0E8FD07B0BDECD0
:101E2000028B30BD000000200000000004000020F4
:101E300034000020FEE70000014800F06CBA00000A
:101E4000E4000020014800F001BD00009C010020DA
:101E5000014800F0FBBC0000FC010020014800F03C
:101E6000F5BC00005C02002001681823CAB2103AD9
:101E7000B2FBF3F2054B6FF30901032A9B5CC365C8
:101E800000D9091D8165084670470000B078000838
:101E900010B5014600208B698A6A4FF0C07453B1B7
:101EA000B3F5005F15D072B1012A0CD0022A0AD016
:101EB000032A09D104E01AB1012A06D0022A03D16B
:101EC000C96AC90100D5012010BDC96AA142FAD072
:101ED00010BD002AF7D0012AF2D0022AF3D0032A3B
:101EE000F3D010BD30B50468256825F48025256041
:101EF000046863608368402B036803D099600068BE
:101F0000C26030BD9A600068C16030BD704772B673
:101F1000FEE7000010B58AB028216846FEF734FBC2
:101F200000200124CDE90604059044F2C001CDE96A
:101F300000104FF6E071CDE9021004900E20CDE9BB
:101F400008406946104800F0E5F808B1FFF7DFFFE8
:101F50004FF482400594009069460B4800F0DAF88F
:101F600008B1FFF7D4FF084800F0E2FB08B1FFF723
:101F7000CEFF0221044800F053F8002801D0FFF7FB
:101F8000C6FF0AB010BD0000E400002046F2A81110
:101F9000884202DC4942884200DA08467047000065
:101FA000022803D0042803D000207047024870475D
:101FB00001481030704700009C03002070B58AB0C3
:101FC0000E46054618216846FEF7DEFA0024069400
:101FD000079428460894FFF7D9FF05463046FFF7D7
:101FE000D5FF40F2FF11CDE9001408210294CDE99C
:101FF0000341290A8DF81A10010A8DF81E108DF878
:102000001F008DF814408DF81B5008AB06AA6946D6
:10201000024800F017F80AB070BD0000E40000208C
:1020200090F82020012A07D0022A05D0416A41F405
:102030008021416201207047006842690A43426181
:1020400000207047F0B590F820500468A468012D76
:1020500005D0022D03D0416A41F4802157E014F0ED
:10206000406F01D1E5004FD5C4F301640125A540BF
:102070001D608D684FF4C0739DB1CE6835434E68C6
:1020800045EAC605066803EB0417F5514FF4C2751F
:10209000076805EB04150E697E51097D012905D0FD
:1020A00009E00E88CD6845EA4655EBE701684E59D0
:1020B00046F480764E511179D579567941EA056119
:1020C00095792D0445EA062529434FF4C67605681F
:1020D00006EB0416A9511178D57841EA0561957887
:1020E00052782D0445EA022211434FF4C475026868
:1020F00005EB04155151006803EB0411425842F0FE
:10210000010242500020F0BD416A41F400114162D9
:102110000120F0BD10B590F82020012A07D0022A36
:1021200005D0416A41F480214162012010BD3B4845
:10213000D0F8002242F00102C0F80022D0F80022BC
:1021400022F47C52C0F80022D0F800224B6A42EA06
:102150000322C0F800220A7D02F01F0301229A40E8
:10216000D0F81C329343C0F81C32CB69B3B9D0F815
:102170000C329343C0F80C328C894B6864F31F43D4
:102180004C6900EBC404C4F840320C890B6864F35A
:102190001F434C6900EBC404C4F84432CB69012BE3
:1021A00016D1D0F80C321343C0F80C320C884B68AF
:1021B00064F31F434C6900EBC404C4F840320C893B
:1021C000CB6864F31F434C6900EBC404C4F8443289
:1021D0008B69002BD0F804320ED01343C0F80432C0
:1021E0000B69002BD0F8143208D01343C0F8143216
:1021F000096A012904D008E09343EFE79343F5E728
:10220000D0F81C121143C0F81C12D0F8001221F0B3
:102210000101C0F80012002010BD00000064004061
:10222000704770B590F82040012C05D0022C03D0E7
:10223000416A41F4802128E0046809B32469A407B5
:1022400020D04FF4D874056804EB01142D5915F013
:102250000405956005682D591AD0ED08556005688C
:102260002C5904F00204D4604FF4DA74056804EBCE
:1022700001142E5906F00F06082E0CD308250DE088
:10228000E468DCE7416A41F400114162012070BD5D
:102290006D0D1560E3E72D5905F00F051561056813
:1022A0002D59C5F30725956105682C59240C5461F7
:1022B0004FF4DC72046802EB0112A4581C7004682D
:1022C000A458240A5C700468A458240C9C70046808
:1022D000A258120EDA704FF4DE72046802EB01129B
:1022E000A4581C710468A458240A5C710468A4589A
:1022F000240C9C710468A258120EDA71006829B18E
:10230000016941F020010161002070BDC16841F008
:102310002001C160F8E72DE9F05F05460068002460
:102320004669D0F804908768D0F80CB0D0F810A0B7
:10233000D0F81880F10748D0F90714D00121816046
:10234000B80703D5284600F020FA0CE0780702D53C
:102350004FF4006407E0380702D54FF4805402E0E0
:10236000284600F011FAF80516D529684FF4807058
:102370008860B80503D5284600F009FA0CE0780516
:1023800002D544F4005407E0380502D544F48044F3
:1023900002E0284600F0FAF9F80316D529684FF450
:1023A00080308860B80303D5284600F0F2F90CE0CD
:1023B000780302D544F4004407E0380302D544F41E
:1023C000803402E0284600F0E3F9300707D55FEAE1
:1023D000CB6004D52968102044F40074C8607007ED
:1023E0004FF0080707D55FEA0B7004D52868C7606F
:1023F000284600F059F9B00706D52868C06880075C
:1024000002D0284600F052F9700607D55FEACA608C
:1024100004D52968102044F480640861B00607D50B
:102420005FEA0A7004D528680761284600F07CF945
:10243000F00606D528680069800702D0284600F01B
:1024400074F9B00308D55FEAC96005D52968102082
:102450004860284600F06AF9F00307D55FEA097082
:1024600004D528684760284600F094F9300446D522
:102470005FEA497040D5F00504D55FEAC87001D025
:1024800044F00104B00504D55FEA887001D544F03A
:102490000204700504D55FEA487001D544F00404D5
:1024A000300529D518F0700F26D008F070004028AC
:1024B00015D006DC102809D020280AD0302816D1E3
:1024C0000AE050280ED0602811D10EE044F0080434
:1024D0000DE044F010040AE044F0200407E044F06A
:1024E000400404E044F0800401E044F4807428686F
:1024F000816921F070018161296804204860002C05
:1025000005D0686A204368622846FFF789FEBDE867
:10251000F09F70B5040003D094F8200010B104E0DF
:10252000012070BD204600F081F82068016841F06C
:102530000101016000F0F4FB0546052604E000F00F
:10254000EFFB401B0A2811D820684068C007F6D06E
:102550002068016821F00201016000F0E1FB0546FE
:102560000BE000F0DDFB401B0A2806D9606A40F44E
:102570000030606284F82060D2E7206840688007FD
:10258000EFD4207E0128206801683DD021F0800131
:102590000160607E01282068016838D021F0400188
:1025A0000160A07E01282068016833D021F020015D
:1025B0000160E07E0128206801682ED041F0100102
:1025C0000160207F01282068016829D021F00801DE
:1025D0000160607F01282068016824D021F0040197
:1025E0000160D4E902010843D4E90412114308430D
:1025F0006168491E08432168C861002060620120AB
:1026000084F82000002070BD41F08001C0E741F057
:102610004001C5E741F02001CAE721F01001CFE7F2
:1026200041F00801D4E741F00401D9E710B586B0C4
:10263000044614216846FDF7A7FF18492068884220
:1026400029D117480021026842F000720260006838
:1026500000F00070059012481038026842F0010244
:102660000260006800F0010005904FF4C050009037
:102670000220CDE90101032003900920049069465E
:10268000084800F055FA00220521142000F0E0FB74
:10269000142000F0CFFB06B010BD00000064004025
:1026A00040380240000002407047000010B58AB078
:1026B00004461C216846FDF767FF0020079008903C
:1026C00017492068884226D107AB6A460021204678
:1026D000FFF7A7FD00281ED10098A0F5007106396C
:1026E0001BD0B0F5027F16D10E4C002C13D0BDF8D4
:1026F0001C0040BA2080BDF81E0040BA6080BDF8C2
:10270000200040BAA0809DF82200A07100F008FBD4
:10271000A060012020730AB010BD024C103CE4E719
:1027200000640040AC030020704770477047000011
:1027300070B5044690F82000012804D0606A40F487
:102740000020606218E0022084F820002068016800
:1027500021F00101016000F0E3FA05460EE000BF40
:1027600000F0DEFA401B0A2808D9606A40F4003005
:102770006062052084F82000012070BD2068406858
:10278000C007EDD1606270BD7047704770477047F9
:102790007047704770472DE9F0410446876D00F09F
:1027A000BFFA064694F835000025022806D080209E
:1027B000606584F834500120BDE8F081206801682C
:1027C00021F0160101602068416921F0800141611A
:1027D000206C08B9A06C20B12068016821F00801C4
:1027E00001602068016821F0010101600CE000F047
:1027F00097FA801B052807D920206065032084F8FC
:10280000350084F83450D7E720680068C007EED15F
:1028100094F85C103F208840B860012084F83500AF
:1028200084F834500020C7E790F83510022903D00F
:102830008021416501207047052180F8351000682E
:10284000016821F001010160002070472DE9F84383
:1028500004464FF00009CDF8009063484FF416513C
:10286000A56D0068B0FBF1F72E6894F85C100820A5
:1028700000FA01F131420FD021680A6852070BD5E6
:102880000A6822F004020A6094F85C108840A8608C
:10289000606D40F00100606594F85C104FF0010835
:1028A00008FA01F0304208D021684969090604D5C8
:1028B000A860606D40F00200606594F85C10042030
:1028C0008840304208D021680968890704D5A8608B
:1028D000606D40F00400606594F85C101020884042
:1028E000304218D021680968090714D5A86020680B
:1028F0000168490304D50068000308D5A16C07E00E
:102900000168C90503D4016821F008010160216C48
:1029100009B12046884794F85C1020208840304256
:1029200031D021680968C9062DD5A86094F8350012
:1029300005282068016806D0490347D500680003D0
:102940001DD4616C1CE021F0160101602068416912
:1029500021F080014161206C08B9A06C20B1206891
:10296000016821F00801016094F85C103F20884064
:10297000A86084F8358084F83490216D1FE0E16B05
:1029800009B120468847606D00282BD0606DC007D4
:1029900014D0052084F835002068016821F0010179
:1029A00001600098401C0090B84203D8206800687D
:1029B000C007F6D184F8358084F83490E16C0029A2
:1029C00010D001B02046BDE8F04308470168C905B2
:1029D000D5D4016821F01001016084F8358084F8B5
:1029E0003490CCE7BDE8F883600000202DE9F04189
:1029F000044600F095F906465CB1022084F83500E3
:102A0000002584F834502068016821F0010101603C
:102A10000DE00120BDE8F08100F082F9801B05285F
:102A200005D920206065032084F83500F2E720688E
:102A30000068C007F0D12268116820480140D4E93D
:102A400001031843D4E90336334318436369184339
:102A5000A3691843E3691843236A18430843616A6A
:102A6000042903D1D4E90B131943084310602068EB
:102A70004069666A20F0070130460E4301270428AA
:102A80000CD1A06A0643E06A40B12046FFF700FA85
:102A900020B14020606584F83570BAE7206846614F
:102AA0002046FFF7E1F994F85C203F2191408160D6
:102AB000656584F835700020ACE700003F8010F0B9
:102AC0002DE9F0410446866D90F834000025012878
:102AD0000DD0012084F8340094F835700020012FC7
:102AE00007D084F8340002252846BDE8F081022092
:102AF000FBE7022784F8357060652046FFF7F2F99E
:102B000094F85C103F208840B0602068016841F074
:102B100016010160206C20B12068016841F00801B5
:102B200001602068016841F001010160DCE70000FC
:102B30002DE9F84FDFF8BCA10022012503264FF054
:102B40000F090AF1040BAAF1040E00BF0B6805FA85
:102B500002F42340A34270D10F7907F00307012F3D
:102B600001D0022F16D187684FEA420806FA08FC06
:102B700027EA0C07D1F80CC00CFA08FC4CEA070C49
:102B8000C0F808C04768A7430C79C4F30014944008
:102B90003C4344600C79E443A4070AD0C4684FEA7C
:102BA000420C06FA0CF7BC438F6807FA0CF7274370
:102BB000C7600C7904F00304022C12D1D40800EB96
:102BC000840CDCF820405707FF0E09FA07F824EAC6
:102BD0000804D1F8108008FA07F848EA0408CCF88D
:102BE000208004684FEA420C06FA0CF7BC430F79C8
:102BF00007F0030707FA0CF7274307604C6814F443
:102C0000403F70D03C4C276847F4804727602468D9
:102C100022F0030704F480440094384C07EB040CC2
:102C2000DCF8084897074FEA177809FA08F7BC4319
:102C3000334FB84202D1002724E054E0314FB8426C
:102C400001D101271EE0304FB84201D1022719E01F
:102C50002E4FB84201D1032714E02D4FB84201D1C5
:102C600004270FE02B4FB84201D105270AE02A4F75
:102C7000B84201D1062705E0284FB84201D1072705
:102C800000E0082707FA08F72743CCF80878DAF8B5
:102C900000405746D1F804C09C435FEACC2C00D5D5
:102CA0001C433C60DBF800405F46D1F804C09C4305
:102CB0005FEA8C2C00D51C433C60DEF80040774670
:102CC000D1F804C09C435FEA8C3C00D51C433C60B7
:102CD000084F083F3C68D1F804C09C435FEACC3CF5
:102CE00000D51C433C60521C102AFFF42FAFBDE8F6
:102CF000F88F0000083C0140443802400030014099
:102D0000000002400004024000080240000C0240A3
:102D1000001002400014024000180240001C024053
:102D20000148806870470000540000200248816814
:102D30000278114481607047540000200B4810B5A0
:102D4000016841F400710160016841F48061016033
:102D5000016841F480710160032000F099F80F20B0
:102D600000F006F800F04AF8002010BD003C0240D8
:102D700030B505461C4887B00024016841F00101C8
:102D80000160006806A900F00100009001A800F0B1
:102D90002BF900F059F915494000B0FBF1F1154845
:102DA000134A491E026040F2E732C0E90324C0E939
:102DB0000114846100F042FB040012D10D4800F0C0
:102DC0006BFB04000DD1192000F034F8102D07D250
:102DD00000222946192000F03BF80748056000E072
:102DE000012407B0204630BD4438024040420F0065
:102DF00000000140BC020020580000200C4882B0B6
:102E0000016841F480410160006800F48040009056
:102E10000748001F016841F08051016000680022EE
:102E200000F0805000900F21901E02B000F010B80A
:102E300044380240002809DB00F01F0201219140C4
:102E40004009800000F1E020C0F800117047000048
:102E5000F0B40E4B1B680C46C3F30223C3F1070505
:102E6000042D00D90425191D072901D2002300E0F3
:102E7000DB1E012606FA05F1491E214099409E40BD
:102E8000761E16403143F0BC02F0E9B90CED00E0CB
:102E9000064900F0070208684FF6FF03184040EAB1
:102EA0000220034A10430860704700000CED00E068
:102EB0000000FA052DE9F0470E46050065D0DFF861
:102EC0001481D8F80000F7B200F00700B04207D232
:102ED00088F80070D8F8000000F00700B04254D124
:102EE00028683D4C810712D5400703D5206840F47F
:102EF000E05020602878000703D5206840F4604047
:102F000020602068A96820F0F0000843206028783D
:102F1000C0072DD0304968680839012812D002282E
:102F200013D0032811D00968890700292DDA2168F8
:102F300021F0030101432160FFF7F2FE814641F2D7
:102F4000883A0EE009688903EFE709688901ECE730
:102F5000FFF7E6FEA0EB0901514502D90320BDE8C9
:102F6000F0872068696800F00C00B0EB810FEFD1AA
:102F7000D8F80010404601F00701B14207D90770A8
:102F8000006800F00700B04201D00120E7E7287890
:102F9000400705D52068E96820F4E0500843206028
:102FA0002878000706D52068296920F4604040EAA7
:102FB000C100206000F058F82168084AC1F30311ED
:102FC000515CC8400649086006480068FFF7D0FE1B
:102FD0000020C4E7003C024008380240B8780008EE
:102FE00060000020580000200F2202600C4A136885
:102FF00003F003034360136803F0F0038360136876
:1030000003F4E053C36012684FF4E05303EAD202C2
:1030100002610448006800F0070008607047000083
:1030200008380240003C024004480549006809682D
:10303000044AC1F38221515CC840704760000020FF
:1030400008380240C8780008044805490068096843
:10305000044AC1F34231515CC8407047600000200F
:1030600008380240C8780008154810B5006810F00C
:103070000C02144813D01449042A0FD0082A0ED188
:103080000F4C241F2268236802F03F025B0207D521
:103090002068C0F38810A0FB010106E0084610BDBF
:1030A0002168C1F38811A1FB00010023FDF74AF953
:1030B0002168C1F30141491C4900B0FBF1F010BD8A
:1030C000083802400024F40040787D012DE9F84FD3
:1030D00004006ED02078DFF84C93C007A9F10405F6
:1030E0004AD009F104000168C1F38101012908D027
:1030F0000068C0F3810002280AD1D9F8000040021C
:1031000006D52868800337D560680028E1D033E011
:103110006068B0F5803F10D0B0F5A02F286810D0BF
:1031200020F480302860286820F4802028606068BF
:10313000A8B1FFF7F5FD06460DE0286840F48030A1
:10314000F4E740F480202860F7E700BFFFF7E8FDD0
:10315000801B642873D828688003F7D50CE0FFF73C
:10316000DFFD064605E000BFFFF7DAFD801B64289F
:10317000F0D828688003F7D42078DFF8AC82800785
:103180004FF0000A3ED5A748001D016811F00C0F52
:1031900008D00068C0F3810002280BD1D9F80000E4
:1031A000400207D42868800716D5E068012800D1BE
:1031B00012E033E1E068B8B10120C8F80000FFF781
:1031C000AFFD064605E000BFFFF7AAFD801B022801
:1031D000C0D828688007F7D52868216920F0F80052
:1031E00040EAC10028600DE0C8F800A0FFF798FD94
:1031F000064604E0FFF794FD801B02281FD82868CC
:103200008007F7D42078000722D5864F8748616968
:10321000703771B101210160FFF782FD064604E0BD
:10322000FFF77EFD801B022809D838688007F7D594
:103230000EE0C0F800A0FFF773FD064605E082E04F
:10324000FFF76EFD801B02287DD838688007F7D411
:103250002078400768D5DFF8CCB100270BF13C0B94
:10326000DBF80000C0000BD4DBF8001041F0805107
:10327000CBF80010DBF80000012700F08050009030
:103280006B4E3068C00510D4306840F480703060F8
:10329000FFF746FD009005E0FFF742FD0099401A58
:1032A000022850D83068C005F6D55E4EA0686C364E
:1032B00001280FD00528306810D020F001003060C0
:1032C000306820F004003060A068B8B1FFF728FD36
:1032D00000900FE0306840F00100F4E740F0040097
:1032E0003060F7E7FFF71CFD0099411A41F2883082
:1032F000814266D830688007F4D50EE0FFF710FDF4
:10330000009007E0FFF70CFD0099411A41F2883068
:10331000814256D830688007F4D42FB1DBF8001012
:1033200021F08051CBF80010A069C8B33D49091DB8
:103330000968C1F3810102294AD00228504607D00A
:10334000C8F8600000E03CE0FFF7EAFC04463BE020
:103350004746C8F86000FFF7E3FC064605E000BFFB
:10336000FFF7DEFC801B02282BD828688001F7D4E9
:10337000D4E907010843A16A2E4A490802EB01413A
:10338000626A41EA8211084394F82C1040EA016114
:10339000C9F8001001203866FFF7C2FC044606E0B9
:1033A0003EE000BFFFF7BCFC001B022809D82868DC
:1033B0008001F7D534E000BFFFF7B2FC001B022804
:1033C00002D90320BDE8F88F28688001F4D427E0F3
:1033D0000128F7D0D9F80000E26900F48001914299
:1033E0001CD1226A00F03F01914217D147F6C0710B
:1033F000626A0140B1EB821F10D1A26A4FF0FF3325
:1034000000F4403103EB5202B1EB024F06D194F8C5
:103410002C1000F07060B0EB016F01D00120D1E7FB
:103420000020CFE70438024000004742800E4742A8
:10343000007000400000FFFF7047704710B50400A7
:1034400003D094F83D0010B107E0012010BD00202A
:1034500084F83C00204600F01EF8022084F83D006D
:10346000211D206801F01CFA012084F8460084F830
:103470003E0084F83F0084F8400084F8410084F85E
:10348000420084F8430084F8440084F8450084F83E
:103490003D00002010BD704790F83D10012901D07B
:1034A00001207047022180F83D100168CA6842F08F
:1034B0000102CA6000681149884214D0B0F1804FFF
:1034C00011D00F4988420ED00E4988420BD00E49C8
:1034D000884208D00D49884205D00D49884202D063
:1034E0000C49884204D1816801F00701062903D004
:1034F000016841F0010101600020704700000140B7
:103500000004004000080040000C0040000401409E
:10351000004001400018004070472DE9F04104468A
:103520000068C66805694FF00007A90713D5B10701
:1035300011D5F91E0161012020772068806980077C
:10354000204602D0FFF7E8FF04E000F07EF82046B6
:1035500000F07CF82777680716D5700714D5216826
:103560006FF004000861022020772068806910F461
:10357000407F204602D0FFF7CFFF04E000F065F85F
:10358000204600F063F82777280715D5300713D5B4
:1035900021686FF008000861042020772068C06966
:1035A0008007204602D0FFF7B7FF04E000F04DF897
:1035B000204600F04BF82777E80616D5F00614D51C
:1035C00021686FF010000861082020772068C0692A
:1035D00010F4407F204602D0FFF79EFF04E000F089
:1035E00034F8204600F032F82777E80708D0F007D3
:1035F00006D021686FF001000861204600F028F82D
:10360000280608D5300606D521686FF080000861CD
:103610002046FFF711FF680608D5700606D5216819
:103620006FF040000861204600F01CF8A8060AD59B
:10363000B00608D521686FF0200008612046BDE87B
:10364000F041FFF7FABEBDE8F08170477047000017
:1036500000680349884201D1FFF768BB704700004A
:1036600000000140704738B5044690F84200202819
:1036700001D0022038BD51B14AB1012020630020A1
:103680006063204601F014FB216B012901D0012069
:1036900038BD21680A684968009121680C3151E8F9
:1036A000002F42F0100241E80023002BF5D138BD75
:1036B0000068034A904202D1084601F039BD7047C4
:1036C000004C004070470000F8B5016804460868E7
:1036D000CA684B6910F00F0F4FF0000559D003F086
:1036E000010602F49077374365D0C10705D0D105B4
:1036F00003D5616C41F001016164410705D5D9072B
:1037000003D0616C41F002016164810705D5D907DE
:1037100003D0616C41F004016164010707D502F038
:103720002001314303D0616C41F008016164616C98
:1037300000293AD0800604D5900602D5204601F033
:10374000D0F920684069616CC0F38010090700D48B
:1037500060B3204601F090F920684069400621D509
:103760002068143050E8001F21F0400140E80012AA
:10377000002AF5D1E06BA8B172490165E06BFFF753
:1037800053F8002811D0E06B016D01B0BDE8F040A6
:10379000084783060FD593060DD52046BDE8F840AF
:1037A00001F09FB92046FFF78DFFF8BD2046FFF7D7
:1037B00089FF6564F8BD266B2023012E7ED1C606E5
:1037C0007CD5D6067AD508684868009048694FF0DD
:1037D000020640064DD5E26B106840684FF48077D2
:1037E0000004000C3AD0A18D814237D9E085D06920
:1037F000B8422DD020680C3050E8001F21F48071B1
:1038000040E80012002AF5D12068143050E8001F6B
:1038100021F0010140E80012002AF5D1206814309F
:1038200050E8001F21F0400140E80012002AF5D1C5
:1038300084F84230256320680C3050E8001F21F0E6
:10384000100140E80012002AF5D1E06BFEF7A3FF5B
:103850006663A08DE18D401A81B206E0A18D8142A0
:10386000A8D1D069B842A5D166632046FFF720FFF2
:10387000F8BDA08DE18D401A81B2E08D0028F7D00F
:103880000029F5D020680C3050E8002F22F4907207
:1038900040E80027002FF5D12068143050E8002FB1
:1038A00022F0010240E80027002FF5D184F84230D1
:1038B000256320680C3050E8002F00E006E022F07D
:1038C000100240E80023002BF3D1CDE705062BD5ED
:1038D000150629D594F841002128C9D1A068B0F572
:1038E000805F01D12069B0B1206A411C216221684A
:1038F00000784860E08C401E0004000CE084B7D1E2
:103900002068C16821F08001C1602068C16841F071
:103910004001C160F8BD206A0088C0F3080048601B
:10392000206A801C2062E5E74006F3D55006F1D5F9
:10393000CA68204622F04002CA6084F8413000F094
:1039400074F9F8BD7D49000870B5040004D094F8FE
:103950004100002510B106E0012070BD84F8405000
:10396000204600F023F8242084F841002068C16834
:1039700021F40051C160204601F014F9206801696A
:1039800021F4904101612068416921F02A014161DF
:103990002068C16841F40051C1606564202084F84A
:1039A000410084F842006563002070BD2DE9F043BA
:1039B00087B0064614216846FCF7E6FD4E494E489E
:1039C000DFF830C1356810380222032300244F0588
:1039D0004FF4806965454DD10D6845F400250D60B3
:1039E000096801F400210591016841F004010160BA
:1039F0000068694600F00400059098028DE8150003
:103A00000820CDE903303D48FFF792F83D4D3C4892
:103A1000B8462860C5E90174C5E903496C61AC6129
:103A2000EC612C624F4628466C62FEF7DFFF08B15E
:103A3000FEF76DFAF563AE63324D314860353030D4
:103A4000E5E80208402091C52E4845F81449603049
:103A5000AC61EC612C626C62FEF7C8FF08B1FEF746
:103A600056FAB563002205213420AE63FFF7F0F962
:103A7000342039E0DFF890C0654537D10D6845F452
:103A800000350D60096801F400310591016841F0CD
:103A9000010101600068694600F0010005900C20FA
:103AA0008DE815000720CDE903301848FFF740F8EE
:103AB000144D1348C03548302860C5E90174C5E984
:103AC00003496C61AC61EC612C6228466C62FEF7C4
:103AD0008DFF08B1FEF71BFAF563002205212620B1
:103AE000AE63FFF7B5F92620FFF7A4F907B0BDE8EC
:103AF000F0830000004C00404038024000080240C3
:103B0000406002409C010020004400400000024050
:103B100090F84230202B01D00220704721B11AB119
:103B20000023036301F014B90120704710B5002889
:103B300021D00068104988421DD110480278417890
:103B400009B90F2A10D10E4B5A54491CC9B2417001
:103B5000192909D30021417018780F2804D1187E43
:103B600010B9184600F04EFDBDE81040012203498F
:103B70000448FFF7CDBF10BD004400402C000020DA
:103B8000EC0300205401002070472DE9F84304465F
:103B900090F84100984616460D46202802D0022093
:103BA000BDE8F88385B17EB100206064212084F8EF
:103BB0004100FFF7B5F8A6848146E684A068202777
:103BC000B0F5805F02D003E00120E9E7206910B181
:103BD0002E4600250EE000260CE08021204601F054
:103BE000D2F8A8B9C6B116F8010B21684860E08C7C
:103BF000401EE084E08C4B464FF00002CDF8008080
:103C00000028EAD14FF04001204601F0BCF840B155
:103C100084F841700320C3E735F8020BC0F30800B5
:103C2000E3E784F841700020BAE77047FEE7000040
:103C30000F4810B50D4901600321416000214FF488
:103C400000228160C0E903124FF440124261017604
:103C500041768176C17601774177FEF75AFC0028DC
:103C600003D0BDE81040FEF752B910BD006400401B
:103C7000E4000020114808B5016841F4001101601A
:103C80000068002200F40010009005210D20FFF7CD
:103C9000DFF80D20FFF7CEF8002205210F20FFF7F7
:103CA000D7F80F20FFF7C6F8002205211020FFF7F4
:103CB000CFF8BDE808401020FFF7BCB8303802400C
:103CC00010B5194A0221102001F064FE174C164A63
:103CD0000C21A061C03A082001F05CFE124A20606D
:103CE000A83A1021082001F055FE0F4A6060903A72
:103CF00000210F4801F0AEFE0B4AA0606C3A002193
:103D00000C4801F0A7FE084AE060483A00210A4842
:103D100001F0A0FE044A2061243A0021074801F086
:103D200099FE606110BD0000987800080000002036
:103D30007147000879470008854700089147000847
:103D4000114808B5016841F080010160016801F087
:103D500080010091016841F001010160016801F0FA
:103D600001010091016841F004010160016801F066
:103D700004010091016841F002010160006800F057
:103D80000200009008BD0000303802400C4810B519
:103D90000A4901604FF4E1314160002181600C2249
:103DA000C160C0E904128161C161FFF7CDFD002847
:103DB00003D0BDE81040FEF7AAB810BD004C00408B
:103DC0000C0100200E4810B50C4901600D494160FE
:103DD0004FF4805181604900C160C91001610C211C
:103DE000416100218161C161FFF7AEFD002803D070
:103DF000BDE81040FEF78BB810BD00000044004045
:103E000054010020A0860100FEE7FEE7B4EEC10ADF
:103E1000F1EE10FA02DDB0EE410A7047B4EEE00AAE
:103E2000F1EE10FAF9D2B0EE600A704710B5114CFD
:103E300094ED000AB5EEC00AF1EE10FA02D19FED42
:103E40000E0A10BD042000F0ABF8D4ED010A9FED7E
:103E50000C1A30EE600ADFED090A60EE200A80EEEF
:103E6000810A01F0F1FAD4ED000AB0EEC00A20EEAA
:103E7000200A10BD1C00002000000000DB0F49409C
:103E80000000344310B504002DED028B4CD030EE11
:103E9000608A94ED050A20EE080AB5EEC00AF1EE3C
:103EA00010FA94ED040A05D2DFED270A20EE200A6D
:103EB00084ED040A30EE080A84ED040A94ED061A33
:103EC000F1EE410AFFF7A2FF84ED040AD4ED050AE2
:103ED000DFED1E1A38EE601AD4ED030A60EEA10A77
:103EE000DFED1B1A41EE210AC4ED030A94ED011A1D
:103EF00021EE000A94ED001A01EE080A94ED021A70
:103F000001EE200A94ED071AF1EE410AFFF77EFF59
:103F100010EE100A0F4984ED058A884206DD46F24C
:103F2000A810BDEC028B10BD0020FAE710EE100ABD
:103F30000949884201D90948F3E7BDEEC00A10EEED
:103F4000100A00B2EDE70000CDCCCC3E85EB513F2E
:103F5000EC51383E0050C3460050C3C6589EFFFF88
:103F6000DFED060A20EE200ADFED050A80EE201ABA
:103F7000BDEEC10A10EE100A7047000000000046B6
:103F80000000B443022803D0042803D00020704767
:103F90000248704701484C3070470000040300207D
:103FA0009FED0B0ADFED0B0A022804D0042804D091
:103FB0009FED090A7047094801E008484C3090ED30
:103FC000111AB8EEC11A21EE000A20EE200A70473D
:103FD0000000B4430000003900000000040300208A
:103FE0009FED0B0ADFED0B0A022804D0042804D051
:103FF0009FED090A7047094801E008484C3090EDF0
:10400000101AB8EEC11A21EE000A20EE200A7047FD
:104010000000B44300000039000000000403002049
:10402000022803D0042803D000207047024801E092
:1040300001484C30203070470403002010B5DFEDFC
:10404000261A9FED261ADFED260A9FED260A26483E
:104050002DED048B9FED1F8AB0EE482A00F058F832
:104060009FED229ADFED228A1F48B0EE492AF0EE3A
:10407000481AB6EE001AF0EE680A9FED1E0A2030CC
:1040800000F046F818489FED1C2ADFED1C1A9FED42
:104090001C1AF0EE680A9FED1B0A4C3000F038F84D
:1040A0001148B0EE492AF0EE481AB0EE681ADFED7A
:1040B000160A9FED160A6C3000F02AF80A4800F044
:1040C0004FF8BDEC048B0848BDE810404C3000F0C0
:1040D00047B800000080BB450000484400000C4386
:1040E0006891ED3C0AD73642040300200050C346D5
:1040F00000000000295C8F3F00007A4500409C458D
:10410000295C764214AE1542CDCC4C3D7B14AE3FBB
:1041100000280DD080EC030A9FED060A80ED030A0B
:1041200080ED040A80ED050AC0ED061A80ED072A2D
:10413000704700000000000010B5084800F024F8A7
:104140000648203000F020F804484C3000F01CF8FD
:104150000248BDE810406C3000F016B8040300209F
:1041600010B504000FD0002020646064A4F848005B
:1041700084F84A00204600F007F804F12000BDE86A
:10418000104000F001B810BD002807D09FED040AD0
:1041900080ED040A80ED050A80ED030A70470000F7
:1041A0000000000010B52DED048BB0EE418AF0EE5A
:1041B000608AB0EE409AFFF7E5FE002822D0B5EE07
:1041C000C09AF1EE10FA07DBF5EEC08A80ED009A96
:1041D000F1EE10FA05DA06E0F5EEC08AF1EE10FA1B
:1041E00013DBC0ED018AB5EEC08AF1EE10FA01DBF7
:1041F00080ED028A9FED080A80ED040A80ED050A31
:1042000080ED030ABDEC048B10BDB5EEC08AF1EE63
:1042100010FAEDDAF6E7000000000000B5EEC00A83
:10422000F1EE10FA02DB024880ED000A7047000050
:104230001C000020014880ED010A70471C0000208E
:1042400010B52DED048BB0EE418AF0EE608AB0EE31
:10425000409AFFF7E5FE002822D0B5EEC09AF1EEB5
:1042600010FA07DBF5EEC08A80ED009AF1EE10FA45
:1042700005DA06E0F5EEC08AF1EE10FA13DBC0EDC8
:10428000018AB5EEC08AF1EE10FA01DB80ED028AF8
:104290009FED080A80ED040A80ED050A80ED030A0F
:1042A000BDEC048B10BDB5EEC08AF1EE10FAEDDA6C
:1042B000F6E7000000000000024A106402F14C0022
:1042C000016470470403002010B52DED028BB0EEA1
:1042D000408AB0EE600AFFF743FE0446B0EE480A9B
:1042E000FFF73EFEBDEC028B2146BDE81040FFF714
:1042F000E3BF00002DE9F04702202DED048BFDF710
:104300004FFE04460420FDF74BFE0546A4B39DB3C3
:10431000207B88B3287B78B32146914800F03CF994
:104320008F4829464C3000F037F9DFF83492484680
:1043300099ED110AF8EEC00A99ED100AB8EEC00A1C
:10434000FFF7A0FD064609F14C00864B90ED101AD0
:10435000D0ED110AB8EEC10AF8EEE01A30EE610AAB
:1043600010EE102A9FED809A8049B7EE008A9A429B
:1043700008D981ED028A0CE0FFE7BDEC048B012037
:10438000BDE8F08710EE102A794B9A4201D281EDF8
:10439000029A884689684FF07C5A514502DD9FEDAC
:1043A000750A01E0B0EE490A80ED010A6C48F8EEAA
:1043B000E00AB8EEC10A4C30FFF764FD08EE900A3F
:1043C000B4F9020000EE100A6548F8EEC00A00EEEB
:1043D000106A2030B8EEC00AFFF754FD0446B5F964
:1043E000020000EE100A5E48F8EEC00AB8EEE80AD5
:1043F0006C30FFF747FD0546601E312802D314F1EB
:10440000310000D30024681E312802D315F1310099
:1044100000D3002544F644077E42BC4201DD3C4601
:1044200002E0B44200DA3446BD4201DD3D4602E01E
:10443000B54200DA35460420FFF7D2FDF0EE401A0F
:104440000420FFF7ADFDF0EE400A71EEE00AF5EE54
:10445000C00AB0EEE00AF1EE10FA1BDD10EE100A11
:104460004549F0EE488A884202DDDFED448A06E0E5
:1044700010EE100A4249884201DDF6EE008AFFF78D
:10448000D5FC20EE280ABDEEC00A10EE100A05FA8F
:1044900080F005B2BD4201DD3D4602E0B54200DAE2
:1044A0003546D9E91010081A002829D000EE100A64
:1044B000F2EE080AB8EEC00A20EE201A00EE100A4A
:1044C000B8EEC00A01DCB1EE400A10EE100A2D4928
:1044D000884202DBF0EE480A03E0DFED2B1AC0EE63
:1044E000210A21EE200A9FED291ADFED290AFFF7A4
:1044F0008DFCBDEEC00A10EE100A04FA80F004B282
:104500000220FFF76DFDF0EE400A0220F0EE601A87
:10451000FFF746FD31EEC00A10EE100A504502DDED
:1045200088ED038A06E010EE100A1A4A904201DA7A
:1045300088ED039AD8F80C00504501DD963424B27A
:10454000BC4201DD3C4602E0B44200DA3446BDEC38
:10455000048B29462046BDE8F047FDF72FBD00003B
:1045600004030020898888C2000000001C0000208D
:104570000E745AC0B29DEF3D00002041CDCC4C3EA0
:104580000000404000007A4300007A430050C346D8
:104590000050C3C6CDCCCC3D002816D0002914D085
:1045A00090F84A204AB10A88B0F84830D21AB2F5D9
:1045B000805F0BDDA2F500520DE00988A0F84810DD
:1045C000002140F8441F01218171704712F5805F7E
:1045D00001DA02F50052436C1A4442640988A0F8DB
:1045E00048107047B4EEC10AF1EE10FA02DDB0EEE9
:1045F000410A7047B4EEE00AF1EE10FAF9D2B0EEDB
:10460000600A704770B50021194C0546012600BFAD
:1046100001EB410000EBC10006EBD00300F0070204
:10462000E8188378008863F31F40D040C0F30A0085
:1046300024F81100491CC9B21029E9D3208800F0E0
:104640003DF884ED090A608800F038F884ED080A26
:10465000E87DC0F3800184F82910C0F3C00084F81D
:104660002A0084F82860FEF75BFBE06270BD000062
:10467000BC03002000487047BC03002010B500F0C8
:1046800057F8BDE81040012201490248FFF740BA3F
:104690002C0000205401002010B5074C94F828008D
:1046A000002806D0FEF73CFBE16A401A642801D2DC
:1046B000012010BD002010BDBC03002010B500EE8D
:1046C000100A2DED028B9FED158A9FED131AB8EE9F
:1046D000400AF0EE480AFFF785FFBCEEC00A9FEDE6
:1046E000101ADFED101A10EE100A80B200EE100A58
:1046F000B8EE400A30EE480ABDEC028BBDE810402F
:10470000C0EE010A9FED081AB0EE410A10EEA10AB0
:10471000DFED060AFFF766BF0060E24400002C43AD
:1047200000E0CC440000B44300003443000034C334
:1047300000210C480A4600BF20F81120491CC9B2CC
:104740001029F9D39FED080A80ED080A80ED090AC7
:1047500080F8282080F8292080F82A20C2620348A7
:1047600042707047BC030020000000002C000020B5
:10477000012001F0A2F8FBE7FDF71CFA052001F08B
:104780009CF8F9E7FDF7EAFA052001F096F8F9E759
:104790000F4C88B000231A4604A9206801F0C8F81D
:1047A00090B99DED050A68468DED000A9DED040A5D
:1047B0008DED010A9DED070A8DED020A9DED060AB9
:1047C0008DED030A00F0EAFC0A2001F076F8E1E73B
:1047D0000400002010B54FF0E020006902F09CFBBF
:1047E000012803D0BDE8104002F05CB810BD000005
:1047F00030B593B030216846FBF7C6FE14210CA8F3
:10480000FBF7C2FE1D480025016841F080510160A0
:10481000006800F0805011901948016841F480410F
:1048200001600068022400F4804011900120039090
:1048300010200490009406940820CDE90750A82089
:10484000CDE9090404200B906846FEF73FFC08B14F
:1048500072B6FEE70CA90F2081E831004FF4A0509A
:104860000F904FF48050109005210CA8FEF722FB0A
:10487000002801D072B6FEE713B030BD40380240C8
:10488000007000400248016841F470010160704707
:1048900088ED00E00148FEF740BE0000BC020020A9
:1048A000F0B50268274B284D284E294F294C4FF070
:1048B000804C984209D0604507D0A84205D0B0424C
:1048C00003D0B84201D0A04204D122F0700E4A6851
:1048D00042EA0E0298421BD0604519D0A84217D078
:1048E000B04215D0B84213D0A04211D01A4DA84200
:1048F0000ED01A4DA8420BD0194DA84208D0194D20
:10490000A84205D0184DA84202D0184DA84203D1A4
:1049100022F44075CA682A434D6922F080022A4376
:104920008D68C5620D688562984201D0A04201D1B0
:1049300009690163016841F00401016001214161DD
:104940000260F0BD0000014000040040000800408B
:10495000000C0040000401400040014000440140C0
:104960000048014000180040001C004000200040AA
:104970000148FEF7A9BE00000C01002010B5806BB5
:104980000021C185FEF79EFE10BD70B5846B2068C6
:10499000406994F84110C0F3C0100025212904D1CA
:1049A00018B1E584204600F08EF82068406994F83C
:1049B0004210C0F38010222904D118B1E5852046A9
:1049C00000F05AF8606C40F0100060642046FEF77A
:1049D00079FE70BD10B50146806B096809684FF01B
:1049E0000002C9052ED4C28501680C3151E8003F90
:1049F00023F4807341E80034002CF5D101681431B0
:104A000051E8003F23F0010341E80034002CF5D1C8
:104A10000168143151E8003F23F0400341E80034BD
:104A2000002CF5D1202180F84210016B012909D119
:104A300001680C3151E8003F23F0100341E80034D5
:104A4000002CF5D14263016B012902D0FFF76EF80B
:104A500010BD818DFEF72CFE10BD10B5806B0121BD
:104A60004163016B012902D0FFF78EF810BD818DE3
:104A70004908FEF71DFE10BD01680C3151E8002FFA
:104A800022F4907241E80023002BF5D10168143123
:104A900051E8002F22F0010241E80023002BF5D15C
:104AA000016B012909D101680C3151E8002F22F076
:104AB000100241E80023002BF5D1202180F842109C
:104AC00000210163704701680C3151E8002F22F08A
:104AD000C00241E80023002BF5D1202180F84110CD
:104AE000704708B590F84210222901D0022008BD75
:104AF00082684FF480539A4201D1016921B1816AE1
:104B00009A421BD04AB10AE00268816A5268C2F335
:104B100008020A80816A891C08E0026972B1026891
:104B2000526802F07F020A70816A491C8162C18D5D
:104B3000491E0904090CC18503D01BE002685268B4
:104B4000F1E70168CA6822F02002CA600168CA68F9
:104B500022F48072CA6001684A6922F001024A6147
:104B6000202180F8421000214163026B012A03D00A
:104B7000FEF7DCFF002008BD016301680C3151E83D
:104B8000002F22F0100241E80023002BF5D101682C
:104B90000A68D20602D50A6849680091818DFEF73D
:104BA00087FDE7E770B5044600680169E26821F413
:104BB0004051114301612169A068E26908436169BC
:104BC000114308432168CA6849F20C639A430243BF
:104BD000CA6020684169A26921F4407111434161B2
:104BE00031492068884202D03049884202D1FEF71C
:104BF0002BFA01E0FEF718FAE26900231921642577
:104C00003226B2F5004F626828D0A0FB0101930F55
:104C10009200FBF797FB0146B0FBF5F06FF018022E
:104C2000504301EB800006EB0010B0FBF5F000F004
:104C3000F002B1FBF5F002EB0012B1FBF5F06FF002
:104C40001803584301EB800006EB0010B0FBF5F0B1
:104C500000F00F0021681044886070BDA0FB0101C6
:104C600092185B41FBF76EFB0146B0FBF5F00201C9
:104C7000B1FBF5F06FF01803584301EB800006EB31
:104C8000C000B0FBF5F000F0F80002EB4002B1FB11
:104C9000F5F0584301EB800006EBC000B0FBF5F0E7
:104CA00000F00700D6E700000010014000140140AA
:104CB00038B5816204468285002013466064222252
:104CC00084F84220E56B1F4AEA63E56B1E4A2A64BA
:104CD000E56B1E4AEA64E26B10650A462168E06BE8
:104CE000091DFDF7EDFE30B110206064202084F82E
:104CF0004200012038BD20680168406800902069AA
:104D000048B120680C3050E8001F41F4807140E841
:104D10000012002AF5D12068143050E8001F41F03D
:104D2000010140E80012002AF5D12068143050E853
:104D3000001F41F0400140E80012002AF5D1002098
:104D400038BD0000D54900085B4A00088B490008BF
:104D500081628285C28500214164222180F842104F
:104D6000016921B10168CA6842F48072CA600168B1
:104D70004A6942F001024A610068C16841F02001BD
:104D8000C160002070472DE9F843984617460D464C
:104D90000446089E24E0701C22D0FDF7C1FFA0EB62
:104DA0000800B0421AD8CEB12068C168490717D5AB
:104DB000802D15D0402D13D00168C94309070FD4A9
:104DC00001680025406800902046FFF755FE082046
:104DD000606484F840500120BDE8F8830320FBE7BD
:104DE0002068006835EA000004D00020B842D2D024
:104DF0000020F1E70120F9E70148FEF765BC00005B
:104E000054010020FEE730B50B7810EE102AC25492
:104E10000D78431C140AEC540D78831C140CEC54CC
:104E20000B78C01C120E1A540878001D087030BD93
:104E3000F0B5D0B1CAB1994217D3B3B10024C91AA1
:104E40008DB210E0002106E06618575C865DBE4218
:104E500003D1491C89B29942F6D3994201D1204429
:104E6000F0BD641CA4B2A542ECD20020F0BD00004D
:104E7000074910B5054808608021FBF763FB03482C
:104E80008021BDE810408030FBF75CBB05040020AA
:104E900030000020F0B50C462DED028B8DB00500E2
:104EA00073D0002C71D00A463D21FBF7C2FA0600F0
:104EB0006BD0224621212846FBF7BBFA002864D09C
:104EC000864262D2711B0F0406F10101A0EB0100C2
:104ED0003F0C84B259D0002C57D0DFED848A89B1C1
:104EE000202C0FD2224604A8FBF7ADFA04AE002016
:104EF000305501A9304600F06FFB0198B0EE408AB2
:104F0000B04201D1B0EE688A0C2379A23946284616
:104F1000FFF78EFF40B10DB0B0EE480ABDEC028B3A
:104F2000BDE8F040FFF77AB90E2375A2394628464E
:104F3000FFF77EFF40B10DB0B0EE480ABDEC028B2A
:104F4000BDE8F040FFF776B9082371A2394628463C
:104F5000FFF76EFF08B1002608E005236FA239466F
:104F60002846FFF765FF00280FD001260024032FF5
:104F70000FD328784D280CD1A8785F2809D16878FC
:104F8000322803D0342803D003E097E0022400E065
:104F90000424032363A239462846FFF749FF60B380
:104FA000AEB10CB1022C09D1BFEE001AFFEE000A1F
:104FB000B0EE480A0220FFF7F5F80CB1042C7DD1C1
:104FC000BFEE001AFFEE000AB0EE480A63E00CB133
:104FD000022C09D1BFEE001AFFEE000AB0EE480A1B
:104FE0000220FFF72DF90CB1042C7BD1BFEE001A83
:104FF000FFEE000AB0EE480A6CE003234AA23946ED
:105000002846FFF715FF40B39EB10CB1022C09D121
:10501000BFEE001AF0EE480ABFEE000A0220FFF7CA
:10502000C1F80CB1042C5DD1BFEE001AF0EE480AB5
:105030002FE00CB1022C09D1BFEE001AF0EE480AA5
:10504000BFEE000A0220FFF7FBF80CB1042C49D197
:10505000BFEE001AF0EE480A3AE0032333A23946C5
:105060002846FFF7E5FE00283CD0E6B10CB1022C43
:1050700009D1B0EE481AFFEE000ABFEE000A022086
:10508000FFF790F80CB1042C2CD1B0EE481AFFEECB
:10509000000ABFEE000A0DB00420BDEC028BBDE893
:1050A000F040FFF77FB80CB1022C0BD1B0EE481ADC
:1050B000FFEE000ABFEE000A022000E012E0FFF758
:1050C000BFF80CB1042C0DD1B0EE481AFFEE000A67
:1050D000BFEE000A0DB00420BDEC028BBDE8F0402D
:1050E000FFF7AEB80DB0BDEC028BF0BD00000000C4
:1050F000477261766974795F4761696E00000000EC
:10510000477261766974795F4F66667365740000F3
:1051100056656C6F6369747900000000416E676CBE
:10512000650000004B505F004B495F004B445F003F
:1051300070B500282CD017490A68002A28D0164BD1
:105140009A4204D103F180021D460A6002E0124D2A
:105150000B6080350446002005E0295C00F1010069
:10516000212903D080B2A042F7D30DE00604360C0B
:105170000AD0802E08D831462846FFF78BFEA01BA8
:1051800004043544240CE6D1BDE8704000F040B87A
:1051900070BD0000300000200504002030B587B04D
:1051A000044614216846FBF7EFF900258DF81450EA
:1051B00054B394ED000A05A96846FFF724FE94ED68
:1051C000010A05A96846FFF71EFE94ED020A05A92B
:1051D0006846FFF718FE94ED030A05A96846FFF735
:1051E00012FE9DF814100A230DEB01000DF801507A
:1051F0004570802181707F21C17014226946034867
:10520000FEF7C3FC07B030BD0120FBE70C01002016
:10521000064810B5016880220548FEF724FA0548C3
:105220000068016821F00801016010BD3000002015
:105230000C0100209C0100204100080218BF04203E
:105240000A0E18BF40F001004FF07F4232EA010120
:1052500008BF40F00200012808BF05207047090779
:10526000090E002804DB00F1E02080F800147047EC
:1052700000F00F0000F1E02080F8141D70470000DE
:1052800030B52DED048B81B0B0EE408AF0EE608A2F
:105290006A4651EC180B00F0ABFA00989FED329B78
:1052A0007E300090002821DC53EC192B51EC180BB8
:1052B00002F05AF81AD0002140F608004FF0000022
:1052C000044651EC180B02F009F808EE100A40F6FB
:1052D000080004EA00014FF00000B5EEC08AF1EECC
:1052E00010FA04BF0220FBF77EF92DE00098FF289A
:1052F00030DB002108464FF0000000F4400553EC7D
:10530000192B51EC180B02F0A5F98CBF00240124D5
:105310000220FBF768F99FED168A4DB1002C0CBFF7
:105320004FF400004FF48000A84218BF9FED118A8F
:10533000042108464FF00000002C01BFB1EE480ADE
:1053400001B0BDEC048B30BDB0EE480A01B0BDEC3D
:10535000048B30BD51EC180B01F0C0FF01B000EE22
:10536000100ABDEC048B30BD0000000000000000FE
:105370000000807FFFFF7F7F30B540F2FF742DED8E
:10538000048BF0EE608A18EE901A85B0B0EE408A79
:105390009FED2B9B05468DED008B34EA115147D0D4
:1053A00053EC192B51EC180B01F0DEFF40D02A46CC
:1053B00051EC180B02F0C3F941EC180B18EE900AEF
:1053C0008DED008B34EA10501CD053EC192B51ECAE
:1053D000180B01F0C9FF2BD10220FBF704F900F0F4
:1053E0001BF910EE901A18EE900A8DED020B8DED60
:1053F000008B61F31E0003909DED020B05B0BDEC28
:10540000048B30BD0220FBF7EEF800F0F5F810EE4B
:10541000901A18EE900A8DED020B8DED008B61F362
:105420001E0003909DED020B05B0BDEC048B30BD5A
:1054300005B0B0EE480AF0EE680ABDEC048B30BD52
:10544000000000000000000000B510EE101A2DED65
:10545000028B81B0524A6846B2EB410F2ED94FF011
:10546000E640B0EB410F94BF00204FF0FF300090BA
:105470000098B0EE408A00286ADB10F0010F4BD094
:1054800068EE080A9FED471A9FED470A00EE810A71
:105490009FED461A10F0020F00EE801AB7EE000AD8
:1054A00000EE810A02BF01B0BDEC028B00BD00BF5F
:1054B00001B0B1EE400ABDEC028B00BD3C4B21F0C7
:1054C0000042934241D911F0004FDFED3A0A20EE3D
:1054D000201ADFED390A19BF31EE601A71EE200A89
:1054E00031EE201A71EE600ABDEEE01A11EE100ADC
:1054F0009FED321A00F0030000EEC10A9FED301A52
:10550000009000EEC10A9FED2F1A00EEC10A9FED38
:105510002E1A00EEC10AABE728EE080A9FED2B1AFF
:10552000DFED2B0A10F0020F40EE410A9FED291A21
:1055300000EE201A61EE000AB0EE480A08EE200ADA
:10554000B6D101B0BDEC028B00BD00F093F88FE73F
:1055500018EE100A4000B0F17F4F0DD218EE100A7D
:10556000FFF76AFE042808BF00F072F8B0EE480AA0
:1055700001B0BDEC028B00BD09D10120FBF733F86F
:1055800001B0BDEC028B5DF804EB00F059B801B03E
:10559000B0EE480ABDEC028B5DF804EB00F04CB8AD
:1055A000B61F927EB93AB2BACA9F2A3DDDFFFFBE4E
:1055B000490E494683F9223F0000004B0000C93FD5
:1055C00000A0FD390020A2331A61342C336D4C3910
:1055D000DA82083CA0AA2ABE08B59FED060A0A4650
:1055E00001468DED000A6846FBF703F89DED000AC1
:1055F00008BD0000000000009FED050B10B553EC46
:10560000102B51EC100B01F027FF41EC100B10BDDB
:1056100000000000000000709FED050B10B553EC7A
:10562000102B51EC100B01F017FF41EC100B10BDCB
:10563000000000000000001030EE000A704700007B
:10564000DFED020A80EEA00A7047000000000000B3
:105650009FED020A20EE000A7047000000000010D3
:1056600010B5044691ED000BFFF70AFE84ED000A29
:1056700010BD00002DE9F0014FF07F42B2EB410F69
:105680009FBF4FF0FF310160BDE8F00170474FF060
:10569000004242EA0123C1F3C752783A551112F091
:1056A0001F0C434CCCF120067C44C1F3C752A2F13D
:1056B00078024FEA621204EB820254F8254008BFD8
:1056C000D2E9015612D0556804FA0CF425FA06F70F
:1056D0003C43976805FA0CF527FA06F8D26807FAF2
:1056E0000CFCF24045EA08054CEA0206A4FB034C18
:1056F000A5FB0352A6FB03631D449D4234BF012654
:1057000000261319334416B1934202D903E09342A1
:1057100001D2012200E00022624402F1200C920634
:10572000DC0C42EA443200EE102A5B03DFED210A72
:10573000F8EEC01A00EE103A4FEA9C1C11F0004F30
:10574000B8EE400AC0F800C020EE201A00EE105A51
:10575000DFED190AB8EE400A20EE200A71EE810A48
:1057600070EE800A10EE902A02F500626FF30B02D1
:1057700000EE902A70EEE11A31EEC11ADFED101A38
:1057800030EE411A9FED0D0A20EE800A01EE210A4B
:105790009FED0C1A00EE810A04BFBDE8F0017047CE
:1057A000CCF180510160BDE8F001B1EE400A7047D4
:1057B00024220000000000360000802C22AAFD29CF
:1057C000DB0FC92F0000C92F10B5044690ED000B68
:1057D0000846FFF7D1FD84ED000B10BD30380A28D4
:1057E00001D2012070470020704700000000000037
:1057F00010B582B01446CDE900010023009A236061
:10580000194B21F0004098422ADA024328D0B0F523
:10581000801FA8BF226810DA9FED150B53EC102BE8
:105820009DED000B51EC100B01F016FECDE90001CF
:105830006FF0350221F0004022600F4B6FF31E51D4
:1058400003EB20501044206041F0FF5040F0005026
:1058500001909DED000B00BF02B051EC100B10BD8C
:105860009DED000BF8E700000000F07F0000000055
:10587000000000000000504302FCFFFFFDF75EFA4D
:10588000FEF7B6FFFEF75CFAFEF7F4F9FEF7D0F983
:10589000FEF77CFAFEF796FA00F01CF8FEF710FA15
:1058A000FFF7E6FAFFF7B4FCFEF7E8FEFCF732FB81
:1058B000FEF7C4FB00F020F8FEE710B5EFF305811A
:1058C00011B16FF0050403E0002408B100F08AFE76
:1058D000204610BDEFF3058010B16FF00500704752
:1058E0000448016811B14FF0FF3070470121016099
:1058F00000207047B400002010B5EFF3058010B110
:105900006FF0050010BD08480168012902D04FF072
:10591000FF3010BD054A002182F8141D02210160EC
:1059200000F0C8FE002010BDB40000200BE000E035
:10593000F8B51D466FF003026FF002064FF0000449
:10594000EFF30583A3B1F0B1E9B1E5B9002200920C
:105950006A4601F001FA012817D10098B0B10C494C
:105960004FF080500860BFF34F8FBFF36F8F0DE093
:1059700048B141B12A4601F053F9012806D025B1BA
:105980006FF0010402E0144600E034462046F8BD02
:1059900004ED00E0F8B514464FF00005EFF3058282
:1059A00012BB08B301B3A4B1D4E9023263B1502AE7
:1059B0001AD32269C2B1676900FB01F6B74213D35B
:1059C000009500F0A6FF07E072B9226962B962692A
:1059D00052B9002200F07CFF050005D00CB121680F
:1059E00000E0002100F0C8FD2846F8BDF8B51D46CE
:1059F0006FF003026FF002064FF00004EFF305832F
:105A0000ABB100B3F9B1F5B90022134600926A4672
:105A100001F0A6F8012818D10098B8B10C494FF050
:105A200080500860BFF34F8FBFF36F8F0EE050B10F
:105A300049B100232A4600F0E3FF012806D025B132
:105A40006FF0010402E0144600E034462046F8BD41
:105A500004ED00E02DE9FF414FEA01034FF000059E
:105A6000EFF30581039549BB40B38027182100243B
:105A70004AB3166806B1344696691EB13146761EA1
:105A8000382E02D21679F60703D0002004B0BDE804
:105A9000F081566906B1B708D2F808C0BCF1000F12
:105AA0000DD0D5685C2D18D312693AB136B18DE8A6
:105AB00006103A46214601F004FA03900DE0D6683C
:105AC0005EB912694AB903AACDE90012BAB22146F9
:105AD00001F0CAF9012800D003950398D6E7000029
